{
  "contractName": "Barn",
  "abi": [
    {
      "inputs": [
        {
          "internalType": "address",
          "name": "_woolf",
          "type": "address"
        },
        {
          "internalType": "address",
          "name": "_wool",
          "type": "address"
        }
      ],
      "stateMutability": "nonpayable",
      "type": "constructor"
    },
    {
      "anonymous": false,
      "inputs": [
        {
          "indexed": true,
          "internalType": "address",
          "name": "previousOwner",
          "type": "address"
        },
        {
          "indexed": true,
          "internalType": "address",
          "name": "newOwner",
          "type": "address"
        }
      ],
      "name": "OwnershipTransferred",
      "type": "event"
    },
    {
      "anonymous": false,
      "inputs": [
        {
          "indexed": false,
          "internalType": "address",
          "name": "account",
          "type": "address"
        }
      ],
      "name": "Paused",
      "type": "event"
    },
    {
      "anonymous": false,
      "inputs": [
        {
          "indexed": false,
          "internalType": "uint256",
          "name": "tokenId",
          "type": "uint256"
        },
        {
          "indexed": false,
          "internalType": "uint256",
          "name": "earned",
          "type": "uint256"
        },
        {
          "indexed": false,
          "internalType": "bool",
          "name": "unstaked",
          "type": "bool"
        }
      ],
      "name": "SheepClaimed",
      "type": "event"
    },
    {
      "anonymous": false,
      "inputs": [
        {
          "indexed": false,
          "internalType": "address",
          "name": "owner",
          "type": "address"
        },
        {
          "indexed": false,
          "internalType": "uint256",
          "name": "tokenId",
          "type": "uint256"
        },
        {
          "indexed": false,
          "internalType": "uint256",
          "name": "value",
          "type": "uint256"
        }
      ],
      "name": "TokenStaked",
      "type": "event"
    },
    {
      "anonymous": false,
      "inputs": [
        {
          "indexed": false,
          "internalType": "address",
          "name": "account",
          "type": "address"
        }
      ],
      "name": "Unpaused",
      "type": "event"
    },
    {
      "anonymous": false,
      "inputs": [
        {
          "indexed": false,
          "internalType": "uint256",
          "name": "tokenId",
          "type": "uint256"
        },
        {
          "indexed": false,
          "internalType": "uint256",
          "name": "earned",
          "type": "uint256"
        },
        {
          "indexed": false,
          "internalType": "bool",
          "name": "unstaked",
          "type": "bool"
        }
      ],
      "name": "WolfClaimed",
      "type": "event"
    },
    {
      "inputs": [],
      "name": "DAILY_WOOL_RATE",
      "outputs": [
        {
          "internalType": "uint256",
          "name": "",
          "type": "uint256"
        }
      ],
      "stateMutability": "view",
      "type": "function",
      "constant": true
    },
    {
      "inputs": [],
      "name": "MAXIMUM_GLOBAL_WOOL",
      "outputs": [
        {
          "internalType": "uint256",
          "name": "",
          "type": "uint256"
        }
      ],
      "stateMutability": "view",
      "type": "function",
      "constant": true
    },
    {
      "inputs": [],
      "name": "MAX_ALPHA",
      "outputs": [
        {
          "internalType": "uint8",
          "name": "",
          "type": "uint8"
        }
      ],
      "stateMutability": "view",
      "type": "function",
      "constant": true
    },
    {
      "inputs": [],
      "name": "MINIMUM_TO_EXIT",
      "outputs": [
        {
          "internalType": "uint256",
          "name": "",
          "type": "uint256"
        }
      ],
      "stateMutability": "view",
      "type": "function",
      "constant": true
    },
    {
      "inputs": [],
      "name": "WOOL_CLAIM_TAX_PERCENTAGE",
      "outputs": [
        {
          "internalType": "uint256",
          "name": "",
          "type": "uint256"
        }
      ],
      "stateMutability": "view",
      "type": "function",
      "constant": true
    },
    {
      "inputs": [
        {
          "internalType": "uint256",
          "name": "",
          "type": "uint256"
        }
      ],
      "name": "barn",
      "outputs": [
        {
          "internalType": "uint16",
          "name": "tokenId",
          "type": "uint16"
        },
        {
          "internalType": "uint80",
          "name": "value",
          "type": "uint80"
        },
        {
          "internalType": "address",
          "name": "owner",
          "type": "address"
        }
      ],
      "stateMutability": "view",
      "type": "function",
      "constant": true
    },
    {
      "inputs": [],
      "name": "lastClaimTimestamp",
      "outputs": [
        {
          "internalType": "uint256",
          "name": "",
          "type": "uint256"
        }
      ],
      "stateMutability": "view",
      "type": "function",
      "constant": true
    },
    {
      "inputs": [],
      "name": "owner",
      "outputs": [
        {
          "internalType": "address",
          "name": "",
          "type": "address"
        }
      ],
      "stateMutability": "view",
      "type": "function",
      "constant": true
    },
    {
      "inputs": [
        {
          "internalType": "uint256",
          "name": "",
          "type": "uint256"
        },
        {
          "internalType": "uint256",
          "name": "",
          "type": "uint256"
        }
      ],
      "name": "pack",
      "outputs": [
        {
          "internalType": "uint16",
          "name": "tokenId",
          "type": "uint16"
        },
        {
          "internalType": "uint80",
          "name": "value",
          "type": "uint80"
        },
        {
          "internalType": "address",
          "name": "owner",
          "type": "address"
        }
      ],
      "stateMutability": "view",
      "type": "function",
      "constant": true
    },
    {
      "inputs": [
        {
          "internalType": "uint256",
          "name": "",
          "type": "uint256"
        }
      ],
      "name": "packIndices",
      "outputs": [
        {
          "internalType": "uint256",
          "name": "",
          "type": "uint256"
        }
      ],
      "stateMutability": "view",
      "type": "function",
      "constant": true
    },
    {
      "inputs": [],
      "name": "paused",
      "outputs": [
        {
          "internalType": "bool",
          "name": "",
          "type": "bool"
        }
      ],
      "stateMutability": "view",
      "type": "function",
      "constant": true
    },
    {
      "inputs": [],
      "name": "renounceOwnership",
      "outputs": [],
      "stateMutability": "nonpayable",
      "type": "function"
    },
    {
      "inputs": [],
      "name": "rescueEnabled",
      "outputs": [
        {
          "internalType": "bool",
          "name": "",
          "type": "bool"
        }
      ],
      "stateMutability": "view",
      "type": "function",
      "constant": true
    },
    {
      "inputs": [],
      "name": "totalAlphaStaked",
      "outputs": [
        {
          "internalType": "uint256",
          "name": "",
          "type": "uint256"
        }
      ],
      "stateMutability": "view",
      "type": "function",
      "constant": true
    },
    {
      "inputs": [],
      "name": "totalSheepStaked",
      "outputs": [
        {
          "internalType": "uint256",
          "name": "",
          "type": "uint256"
        }
      ],
      "stateMutability": "view",
      "type": "function",
      "constant": true
    },
    {
      "inputs": [],
      "name": "totalWoolEarned",
      "outputs": [
        {
          "internalType": "uint256",
          "name": "",
          "type": "uint256"
        }
      ],
      "stateMutability": "view",
      "type": "function",
      "constant": true
    },
    {
      "inputs": [
        {
          "internalType": "address",
          "name": "newOwner",
          "type": "address"
        }
      ],
      "name": "transferOwnership",
      "outputs": [],
      "stateMutability": "nonpayable",
      "type": "function"
    },
    {
      "inputs": [],
      "name": "unaccountedRewards",
      "outputs": [
        {
          "internalType": "uint256",
          "name": "",
          "type": "uint256"
        }
      ],
      "stateMutability": "view",
      "type": "function",
      "constant": true
    },
    {
      "inputs": [],
      "name": "woolPerAlpha",
      "outputs": [
        {
          "internalType": "uint256",
          "name": "",
          "type": "uint256"
        }
      ],
      "stateMutability": "view",
      "type": "function",
      "constant": true
    },
    {
      "inputs": [
        {
          "internalType": "address",
          "name": "account",
          "type": "address"
        },
        {
          "internalType": "uint16[]",
          "name": "tokenIds",
          "type": "uint16[]"
        }
      ],
      "name": "addManyToBarnAndPack",
      "outputs": [],
      "stateMutability": "nonpayable",
      "type": "function"
    },
    {
      "inputs": [
        {
          "internalType": "uint256",
          "name": "tokenId",
          "type": "uint256"
        }
      ],
      "name": "getWolfOwner",
      "outputs": [
        {
          "internalType": "address",
          "name": "",
          "type": "address"
        }
      ],
      "stateMutability": "view",
      "type": "function",
      "constant": true
    },
    {
      "inputs": [
        {
          "internalType": "uint16[]",
          "name": "tokenIds",
          "type": "uint16[]"
        },
        {
          "internalType": "bool",
          "name": "unstake",
          "type": "bool"
        }
      ],
      "name": "claimManyFromBarnAndPack",
      "outputs": [],
      "stateMutability": "nonpayable",
      "type": "function"
    },
    {
      "inputs": [
        {
          "internalType": "uint256[]",
          "name": "tokenIds",
          "type": "uint256[]"
        }
      ],
      "name": "rescue",
      "outputs": [],
      "stateMutability": "nonpayable",
      "type": "function"
    },
    {
      "inputs": [
        {
          "internalType": "bool",
          "name": "_enabled",
          "type": "bool"
        }
      ],
      "name": "setRescueEnabled",
      "outputs": [],
      "stateMutability": "nonpayable",
      "type": "function"
    },
    {
      "inputs": [
        {
          "internalType": "bool",
          "name": "_paused",
          "type": "bool"
        }
      ],
      "name": "setPaused",
      "outputs": [],
      "stateMutability": "nonpayable",
      "type": "function"
    },
    {
      "inputs": [
        {
          "internalType": "uint256",
          "name": "tokenId",
          "type": "uint256"
        }
      ],
      "name": "isSheep",
      "outputs": [
        {
          "internalType": "bool",
          "name": "sheep",
          "type": "bool"
        }
      ],
      "stateMutability": "view",
      "type": "function",
      "constant": true
    },
    {
      "inputs": [
        {
          "internalType": "uint256",
          "name": "seed",
          "type": "uint256"
        }
      ],
      "name": "randomWolfOwner",
      "outputs": [
        {
          "internalType": "address",
          "name": "",
          "type": "address"
        }
      ],
      "stateMutability": "view",
      "type": "function",
      "constant": true
    },
    {
      "inputs": [
        {
          "internalType": "address",
          "name": "",
          "type": "address"
        },
        {
          "internalType": "address",
          "name": "from",
          "type": "address"
        },
        {
          "internalType": "uint256",
          "name": "",
          "type": "uint256"
        },
        {
          "internalType": "bytes",
          "name": "",
          "type": "bytes"
        }
      ],
      "name": "onERC721Received",
      "outputs": [
        {
          "internalType": "bytes4",
          "name": "",
          "type": "bytes4"
        }
      ],
      "stateMutability": "pure",
      "type": "function",
      "constant": true
    }
  ],
  "bytecode": "0x60806040526000600655600060075560006008556000600c60006101000a81548160ff0219169083151502179055503480156200003b57600080fd5b50604051620047e4380380620047e4833981810160405281019062000061919062000208565b62000081620000756200012560201b60201c565b6200012d60201b60201c565b60008060146101000a81548160ff02191690831515021790555081600160006101000a81548173ffffffffffffffffffffffffffffffffffffffff021916908373ffffffffffffffffffffffffffffffffffffffff16021790555080600260006101000a81548173ffffffffffffffffffffffffffffffffffffffff021916908373ffffffffffffffffffffffffffffffffffffffff160217905550505062000297565b600033905090565b60008060009054906101000a900473ffffffffffffffffffffffffffffffffffffffff169050816000806101000a81548173ffffffffffffffffffffffffffffffffffffffff021916908373ffffffffffffffffffffffffffffffffffffffff1602179055508173ffffffffffffffffffffffffffffffffffffffff168173ffffffffffffffffffffffffffffffffffffffff167f8be0079c531659141344cd1fd0a4f28419497f9722a3daafe3b4186f6b6457e060405160405180910390a35050565b60008151905062000202816200027d565b92915050565b600080604083850312156200021c57600080fd5b60006200022c85828601620001f1565b92505060206200023f85828601620001f1565b9150509250929050565b600062000256826200025d565b9050919050565b600073ffffffffffffffffffffffffffffffffffffffff82169050919050565b620002888162000249565b81146200029457600080fd5b50565b61453d80620002a76000396000f3fe608060405234801561001057600080fd5b50600436106101c45760003560e01c80636f234fb5116100f957806388ff498b11610097578063db796b8911610071578063db796b89146104d7578063dd55fcb3146104f5578063de54625d14610527578063f2fde38b14610557576101c4565b806388ff498b1461047d5780638da5cb5b1461049b578063c0c472c0146104b9576101c4565b806376531008116100d357806376531008146103f757806376fbe719146104135780637cb5375e1461043157806381d449c114610461576101c4565b80636f234fb51461039f5780636f257875146103cf578063715018a6146103ed576101c4565b8063387f8bdd11610166578063512114361161014057806351211436146103295780635c975abb14610347578063607af397146103655780636a3ef05714610383576101c4565b8063387f8bdd146102a957806339db714f146102db5780633c989e6a146102f9576101c4565b8063201ef2a4116101a2578063201ef2a4146102315780632435d6511461024f57806328b3e6971461026d57806337a386b91461028b576101c4565b806313324aa9146101c9578063150b7a02146101e557806316c38b3c14610215575b600080fd5b6101e360048036038101906101de919061371c565b610573565b005b6101ff60048036038101906101fa9190613644565b610833565b60405161020c9190613ec8565b60405180910390f35b61022f600480360381019061022a91906137b9565b6108b6565b005b610239610951565b604051610246919061411e565b60405180910390f35b610257610956565b6040516102649190614095565b60405180910390f35b610275610964565b6040516102829190614095565b60405180910390f35b610293610969565b6040516102a09190614095565b60405180910390f35b6102c360048036038101906102be91906138e6565b610970565b6040516102d29392919061405e565b60405180910390f35b6102e36109de565b6040516102f09190613ead565b60405180910390f35b610313600480360381019061030e91906138e6565b6109f1565b6040516103209190613db1565b60405180910390f35b610331610b47565b60405161033e9190614095565b60405180910390f35b61034f610b4d565b60405161035c9190613ead565b60405180910390f35b61036d610b63565b60405161037a9190614095565b60405180910390f35b61039d60048036038101906103989190613774565b610b69565b005b6103b960048036038101906103b491906138e6565b6114c8565b6040516103c69190614095565b60405180910390f35b6103d76114e0565b6040516103e49190614095565b60405180910390f35b6103f56114e6565b005b610411600480360381019061040c91906137b9565b61156e565b005b61041b611607565b6040516104289190614095565b60405180910390f35b61044b600480360381019061044691906138e6565b61160d565b6040516104589190613db1565b60405180910390f35b61047b600480360381019061047691906136c4565b611751565b005b610485611c7a565b6040516104929190614095565b60405180910390f35b6104a3611c8a565b6040516104b09190613db1565b60405180910390f35b6104c1611cb3565b6040516104ce9190614095565b60405180910390f35b6104df611cb9565b6040516104ec9190614095565b60405180910390f35b61050f600480360381019061050a919061390f565b611cbf565b60405161051e9392919061405e565b60405180910390f35b610541600480360381019061053c91906138e6565b611d46565b60405161054e9190613ead565b60405180910390f35b610571600480360381019061056c91906135f2565b611e2a565b005b61057b610b4d565b156105bb576040517f08c379a00000000000000000000000000000000000000000000000000000000081526004016105b290613fa3565b60405180910390fd5b6b07c13bc4b2c133c560000000600954101561062f576201518069021e19e0c9bab2400000600a54600b54426105f1919061423c565b6105fb91906141e2565b61060591906141e2565b61060f91906141b1565b60096000828254610620919061415b565b9250508190555042600b819055505b6000805b848490508110156107865761069885858381811061067a577f4e487b7100000000000000000000000000000000000000000000000000000000600052603260045260246000fd5b905060200201602081019061068f91906138bd565b61ffff16611d46565b1561070a576106f88585838181106106d9577f4e487b7100000000000000000000000000000000000000000000000000000000600052603260045260246000fd5b90506020020160208101906106ee91906138bd565b61ffff1684611f22565b82610703919061415b565b9150610773565b610765858583818110610746577f4e487b7100000000000000000000000000000000000000000000000000000000600052603260045260246000fd5b905060200201602081019061075b91906138bd565b61ffff168461246d565b82610770919061415b565b91505b808061077e90614377565b915050610633565b506000811415610796575061082e565b600260009054906101000a900473ffffffffffffffffffffffffffffffffffffffff1673ffffffffffffffffffffffffffffffffffffffff166340c10f196107dc612cf1565b836040518363ffffffff1660e01b81526004016107fa929190613e4d565b600060405180830381600087803b15801561081457600080fd5b505af1158015610828573d6000803e3d6000fd5b50505050505b505050565b60008073ffffffffffffffffffffffffffffffffffffffff168573ffffffffffffffffffffffffffffffffffffffff16146108a3576040517f08c379a000000000000000000000000000000000000000000000000000000000815260040161089a90613f63565b60405180910390fd5b63150b7a0260e01b905095945050505050565b6108be612cf1565b73ffffffffffffffffffffffffffffffffffffffff166108dc611c8a565b73ffffffffffffffffffffffffffffffffffffffff1614610932576040517f08c379a000000000000000000000000000000000000000000000000000000000815260040161092990613fe3565b60405180910390fd5b801561094557610940612cf9565b61094e565b61094d612d9c565b5b50565b600881565b69021e19e0c9bab240000081565b601481565b6202a30081565b60036020528060005260406000206000915090508060000160009054906101000a900461ffff16908060000160029054906101000a900469ffffffffffffffffffff169080600001600c9054906101000a900473ffffffffffffffffffffffffffffffffffffffff16905083565b600c60009054906101000a900460ff1681565b6000806006541415610a065760009050610b42565b600060065463ffffffff8416610a1c91906143f8565b90506000602084901c9350600060036008610a379190614270565b60ff1690505b600860ff168111610b3a57806004600083815260200190815260200160002080549050610a6a91906141e2565b82610a75919061415b565b9150818310610a8357610b27565b60046000828152602001908152602001600020600460008381526020019081526020016000208054905086610ab891906143f8565b81548110610aef577f4e487b7100000000000000000000000000000000000000000000000000000000600052603260045260246000fd5b90600052602060002001600001600c9054906101000a900473ffffffffffffffffffffffffffffffffffffffff169350505050610b42565b8080610b3290614377565b915050610a3d565b506000925050505b919050565b60095481565b60008060149054906101000a900460ff16905090565b600b5481565b600c60009054906101000a900460ff16610bb8576040517f08c379a0000000000000000000000000000000000000000000000000000000008152600401610baf90613f43565b60405180910390fd5b6000610bc261343a565b610bca61343a565b600080600090505b868690508110156114bf57868682818110610c16577f4e487b7100000000000000000000000000000000000000000000000000000000600052603260045260246000fd5b905060200201359450610c2885611d46565b15610ed757600360008681526020019081526020016000206040518060600160405290816000820160009054906101000a900461ffff1661ffff1661ffff1681526020016000820160029054906101000a900469ffffffffffffffffffff1669ffffffffffffffffffff1669ffffffffffffffffffff16815260200160008201600c9054906101000a900473ffffffffffffffffffffffffffffffffffffffff1673ffffffffffffffffffffffffffffffffffffffff1673ffffffffffffffffffffffffffffffffffffffff16815250509350610d03612cf1565b73ffffffffffffffffffffffffffffffffffffffff16846040015173ffffffffffffffffffffffffffffffffffffffff1614610d74576040517f08c379a0000000000000000000000000000000000000000000000000000000008152600401610d6b90613f83565b60405180910390fd5b600160009054906101000a900473ffffffffffffffffffffffffffffffffffffffff1673ffffffffffffffffffffffffffffffffffffffff1663b88d4fde30610dbb612cf1565b886040518463ffffffff1660e01b8152600401610dda93929190613e03565b600060405180830381600087803b158015610df457600080fd5b505af1158015610e08573d6000803e3d6000fd5b5050505060036000868152602001908152602001600020600080820160006101000a81549061ffff02191690556000820160026101000a81549069ffffffffffffffffffff021916905560008201600c6101000a81549073ffffffffffffffffffffffffffffffffffffffff021916905550506001600a6000828254610e8e919061423c565b925050819055507fe9d8194f830c159f3fa36a3722d86930569b5a9ce5265dda89fd43f4880761658560006001604051610eca939291906140b0565b60405180910390a16114ac565b610ee085612e3d565b60ff16915060046000838152602001908152602001600020600560008781526020019081526020016000205481548110610f43577f4e487b7100000000000000000000000000000000000000000000000000000000600052603260045260246000fd5b906000526020600020016040518060600160405290816000820160009054906101000a900461ffff1661ffff1661ffff1681526020016000820160029054906101000a900469ffffffffffffffffffff1669ffffffffffffffffffff1669ffffffffffffffffffff16815260200160008201600c9054906101000a900473ffffffffffffffffffffffffffffffffffffffff1673ffffffffffffffffffffffffffffffffffffffff1673ffffffffffffffffffffffffffffffffffffffff16815250509350611010612cf1565b73ffffffffffffffffffffffffffffffffffffffff16846040015173ffffffffffffffffffffffffffffffffffffffff1614611081576040517f08c379a000000000000000000000000000000000000000000000000000000000815260040161107890613f83565b60405180910390fd5b8160066000828254611093919061423c565b92505081905550600160009054906101000a900473ffffffffffffffffffffffffffffffffffffffff1673ffffffffffffffffffffffffffffffffffffffff1663b88d4fde306110e1612cf1565b886040518463ffffffff1660e01b815260040161110093929190613e03565b600060405180830381600087803b15801561111a57600080fd5b505af115801561112e573d6000803e3d6000fd5b505050506004600083815260200190815260200160002060016004600085815260200190815260200160002080549050611168919061423c565b8154811061119f577f4e487b7100000000000000000000000000000000000000000000000000000000600052603260045260246000fd5b906000526020600020016040518060600160405290816000820160009054906101000a900461ffff1661ffff1661ffff1681526020016000820160029054906101000a900469ffffffffffffffffffff1669ffffffffffffffffffff1669ffffffffffffffffffff16815260200160008201600c9054906101000a900473ffffffffffffffffffffffffffffffffffffffff1673ffffffffffffffffffffffffffffffffffffffff1673ffffffffffffffffffffffffffffffffffffffff1681525050925082600460008481526020019081526020016000206005600088815260200190815260200160002054815481106112c3577f4e487b7100000000000000000000000000000000000000000000000000000000600052603260045260246000fd5b9060005260206000200160008201518160000160006101000a81548161ffff021916908361ffff16021790555060208201518160000160026101000a81548169ffffffffffffffffffff021916908369ffffffffffffffffffff160217905550604082015181600001600c6101000a81548173ffffffffffffffffffffffffffffffffffffffff021916908373ffffffffffffffffffffffffffffffffffffffff160217905550905050600560008681526020019081526020016000205460056000856000015161ffff16815260200190815260200160002081905550600460008381526020019081526020016000208054806113e9577f4e487b7100000000000000000000000000000000000000000000000000000000600052603160045260246000fd5b60019003818190600052602060002001600080820160006101000a81549061ffff02191690556000820160026101000a81549069ffffffffffffffffffff021916905560008201600c6101000a81549073ffffffffffffffffffffffffffffffffffffffff02191690555050905560056000868152602001908152602001600020600090557ff65d435564b020fcb9d6f56608c9333a6cf42914eeddfbac41a764da73667de185600060016040516114a3939291906140b0565b60405180910390a15b80806114b790614377565b915050610bd2565b50505050505050565b60056020528060005260406000206000915090505481565b60065481565b6114ee612cf1565b73ffffffffffffffffffffffffffffffffffffffff1661150c611c8a565b73ffffffffffffffffffffffffffffffffffffffff1614611562576040517f08c379a000000000000000000000000000000000000000000000000000000000815260040161155990613fe3565b60405180910390fd5b61156c6000612f0c565b565b611576612cf1565b73ffffffffffffffffffffffffffffffffffffffff16611594611c8a565b73ffffffffffffffffffffffffffffffffffffffff16146115ea576040517f08c379a00000000000000000000000000000000000000000000000000000000081526004016115e190613fe3565b60405180910390fd5b80600c60006101000a81548160ff02191690831515021790555050565b600a5481565b60008061161983612e3d565b60ff16905060006004600083815260200190815260200160002060056000868152602001908152602001600020548154811061167e577f4e487b7100000000000000000000000000000000000000000000000000000000600052603260045260246000fd5b906000526020600020016040518060600160405290816000820160009054906101000a900461ffff1661ffff1661ffff1681526020016000820160029054906101000a900469ffffffffffffffffffff1669ffffffffffffffffffff1669ffffffffffffffffffff16815260200160008201600c9054906101000a900473ffffffffffffffffffffffffffffffffffffffff1673ffffffffffffffffffffffffffffffffffffffff1673ffffffffffffffffffffffffffffffffffffffff16815250509050806040015192505050919050565b611759612cf1565b73ffffffffffffffffffffffffffffffffffffffff168373ffffffffffffffffffffffffffffffffffffffff1614806117e65750600160009054906101000a900473ffffffffffffffffffffffffffffffffffffffff1673ffffffffffffffffffffffffffffffffffffffff166117ce612cf1565b73ffffffffffffffffffffffffffffffffffffffff16145b611825576040517f08c379a000000000000000000000000000000000000000000000000000000000815260040161181c90614003565b60405180910390fd5b60005b82829050811015611c7457600160009054906101000a900473ffffffffffffffffffffffffffffffffffffffff1673ffffffffffffffffffffffffffffffffffffffff16611874612cf1565b73ffffffffffffffffffffffffffffffffffffffff1614611ae557611897612cf1565b73ffffffffffffffffffffffffffffffffffffffff16600160009054906101000a900473ffffffffffffffffffffffffffffffffffffffff1673ffffffffffffffffffffffffffffffffffffffff16636352211e858585818110611924577f4e487b7100000000000000000000000000000000000000000000000000000000600052603260045260246000fd5b905060200201602081019061193991906138bd565b6040518263ffffffff1660e01b81526004016119559190614043565b60206040518083038186803b15801561196d57600080fd5b505afa158015611981573d6000803e3d6000fd5b505050506040513d601f19601f820116820180604052508101906119a5919061361b565b73ffffffffffffffffffffffffffffffffffffffff16146119fb576040517f08c379a00000000000000000000000000000000000000000000000000000000081526004016119f290614023565b60405180910390fd5b600160009054906101000a900473ffffffffffffffffffffffffffffffffffffffff1673ffffffffffffffffffffffffffffffffffffffff166323b872dd611a41612cf1565b30868686818110611a7b577f4e487b7100000000000000000000000000000000000000000000000000000000600052603260045260246000fd5b9050602002016020810190611a9091906138bd565b6040518463ffffffff1660e01b8152600401611aae93929190613dcc565b600060405180830381600087803b158015611ac857600080fd5b505af1158015611adc573d6000803e3d6000fd5b50505050611b45565b6000838383818110611b20577f4e487b7100000000000000000000000000000000000000000000000000000000600052603260045260246000fd5b9050602002016020810190611b3591906138bd565b61ffff161415611b4457611c61565b5b611b9f838383818110611b81577f4e487b7100000000000000000000000000000000000000000000000000000000600052603260045260246000fd5b9050602002016020810190611b9691906138bd565b61ffff16611d46565b15611c0457611bff84848484818110611be1577f4e487b7100000000000000000000000000000000000000000000000000000000600052603260045260246000fd5b9050602002016020810190611bf691906138bd565b61ffff16612fd0565b611c60565b611c5f84848484818110611c41577f4e487b7100000000000000000000000000000000000000000000000000000000600052603260045260246000fd5b9050602002016020810190611c5691906138bd565b61ffff166131d9565b5b5b8080611c6c90614377565b915050611828565b50505050565b6b07c13bc4b2c133c56000000081565b60008060009054906101000a900473ffffffffffffffffffffffffffffffffffffffff16905090565b60075481565b60085481565b60046020528160005260406000208181548110611cdb57600080fd5b90600052602060002001600091509150508060000160009054906101000a900461ffff16908060000160029054906101000a900469ffffffffffffffffffff169080600001600c9054906101000a900473ffffffffffffffffffffffffffffffffffffffff16905083565b6000600160009054906101000a900473ffffffffffffffffffffffffffffffffffffffff1673ffffffffffffffffffffffffffffffffffffffff1663e05c57bf836040518263ffffffff1660e01b8152600401611da39190614095565b6101406040518083038186803b158015611dbc57600080fd5b505afa158015611dd0573d6000803e3d6000fd5b505050506040513d601f19601f82011682018060405250810190611df491906137e2565b90919293949596975090919293949596509091929394955090919293945090919293509091925090915090505080915050919050565b611e32612cf1565b73ffffffffffffffffffffffffffffffffffffffff16611e50611c8a565b73ffffffffffffffffffffffffffffffffffffffff1614611ea6576040517f08c379a0000000000000000000000000000000000000000000000000000000008152600401611e9d90613fe3565b60405180910390fd5b600073ffffffffffffffffffffffffffffffffffffffff168173ffffffffffffffffffffffffffffffffffffffff161415611f16576040517f08c379a0000000000000000000000000000000000000000000000000000000008152600401611f0d90613f23565b60405180910390fd5b611f1f81612f0c565b50565b600080600360008581526020019081526020016000206040518060600160405290816000820160009054906101000a900461ffff1661ffff1661ffff1681526020016000820160029054906101000a900469ffffffffffffffffffff1669ffffffffffffffffffff1669ffffffffffffffffffff16815260200160008201600c9054906101000a900473ffffffffffffffffffffffffffffffffffffffff1673ffffffffffffffffffffffffffffffffffffffff1673ffffffffffffffffffffffffffffffffffffffff16815250509050611ffb612cf1565b73ffffffffffffffffffffffffffffffffffffffff16816040015173ffffffffffffffffffffffffffffffffffffffff161461206c576040517f08c379a000000000000000000000000000000000000000000000000000000000815260040161206390613f83565b60405180910390fd5b82801561209657506202a300816020015169ffffffffffffffffffff1642612094919061423c565b105b156120d6576040517f08c379a00000000000000000000000000000000000000000000000000000000081526004016120cd90613fc3565b60405180910390fd5b6b07c13bc4b2c133c5600000006009541015612132576201518069021e19e0c9bab2400000826020015169ffffffffffffffffffff1642612117919061423c565b61212191906141e2565b61212b91906141b1565b915061219a565b600b54816020015169ffffffffffffffffffff1611156121555760009150612199565b6201518069021e19e0c9bab2400000826020015169ffffffffffffffffffff16600b54612182919061423c565b61218c91906141e2565b61219691906141b1565b91505b5b82156122e7576001806121ac8661338c565b1614156121c1576121bc826133d2565b600091505b60036000858152602001908152602001600020600080820160006101000a81549061ffff02191690556000820160026101000a81549069ffffffffffffffffffff021916905560008201600c6101000a81549073ffffffffffffffffffffffffffffffffffffffff02191690555050600160009054906101000a900473ffffffffffffffffffffffffffffffffffffffff1673ffffffffffffffffffffffffffffffffffffffff1663b88d4fde30612277612cf1565b876040518463ffffffff1660e01b815260040161229693929190613e03565b600060405180830381600087803b1580156122b057600080fd5b505af11580156122c4573d6000803e3d6000fd5b505050506001600a60008282546122db919061423c565b9250508190555061242b565b61230860646014846122f991906141e2565b61230391906141b1565b6133d2565b606460146064612318919061423c565b8361232391906141e2565b61232d91906141b1565b915060405180606001604052808561ffff1681526020014269ffffffffffffffffffff16815260200161235e612cf1565b73ffffffffffffffffffffffffffffffffffffffff168152506003600086815260200190815260200160002060008201518160000160006101000a81548161ffff021916908361ffff16021790555060208201518160000160026101000a81548169ffffffffffffffffffff021916908369ffffffffffffffffffff160217905550604082015181600001600c6101000a81548173ffffffffffffffffffffffffffffffffffffffff021916908373ffffffffffffffffffffffffffffffffffffffff1602179055509050505b7fe9d8194f830c159f3fa36a3722d86930569b5a9ce5265dda89fd43f48807616584838560405161245e939291906140e7565b60405180910390a15092915050565b60003073ffffffffffffffffffffffffffffffffffffffff16600160009054906101000a900473ffffffffffffffffffffffffffffffffffffffff1673ffffffffffffffffffffffffffffffffffffffff16636352211e856040518263ffffffff1660e01b81526004016124e19190614095565b60206040518083038186803b1580156124f957600080fd5b505afa15801561250d573d6000803e3d6000fd5b505050506040513d601f19601f82011682018060405250810190612531919061361b565b73ffffffffffffffffffffffffffffffffffffffff1614612587576040517f08c379a000000000000000000000000000000000000000000000000000000000815260040161257e90613f03565b60405180910390fd5b600061259284612e3d565b60ff1690506000600460008381526020019081526020016000206005600087815260200190815260200160002054815481106125f7577f4e487b7100000000000000000000000000000000000000000000000000000000600052603260045260246000fd5b906000526020600020016040518060600160405290816000820160009054906101000a900461ffff1661ffff1661ffff1681526020016000820160029054906101000a900469ffffffffffffffffffff1669ffffffffffffffffffff1669ffffffffffffffffffff16815260200160008201600c9054906101000a900473ffffffffffffffffffffffffffffffffffffffff1673ffffffffffffffffffffffffffffffffffffffff1673ffffffffffffffffffffffffffffffffffffffff168152505090506126c4612cf1565b73ffffffffffffffffffffffffffffffffffffffff16816040015173ffffffffffffffffffffffffffffffffffffffff1614612735576040517f08c379a000000000000000000000000000000000000000000000000000000000815260040161272c90613f83565b60405180910390fd5b806020015169ffffffffffffffffffff16600854612753919061423c565b8261275e91906141e2565b92508315612b5b578160066000828254612778919061423c565b92505081905550600160009054906101000a900473ffffffffffffffffffffffffffffffffffffffff1673ffffffffffffffffffffffffffffffffffffffff1663b88d4fde306127c6612cf1565b886040518463ffffffff1660e01b81526004016127e593929190613e03565b600060405180830381600087803b1580156127ff57600080fd5b505af1158015612813573d6000803e3d6000fd5b505050506000600460008481526020019081526020016000206001600460008681526020019081526020016000208054905061284f919061423c565b81548110612886577f4e487b7100000000000000000000000000000000000000000000000000000000600052603260045260246000fd5b906000526020600020016040518060600160405290816000820160009054906101000a900461ffff1661ffff1661ffff1681526020016000820160029054906101000a900469ffffffffffffffffffff1669ffffffffffffffffffff1669ffffffffffffffffffff16815260200160008201600c9054906101000a900473ffffffffffffffffffffffffffffffffffffffff1673ffffffffffffffffffffffffffffffffffffffff1673ffffffffffffffffffffffffffffffffffffffff1681525050905080600460008581526020019081526020016000206005600089815260200190815260200160002054815481106129aa577f4e487b7100000000000000000000000000000000000000000000000000000000600052603260045260246000fd5b9060005260206000200160008201518160000160006101000a81548161ffff021916908361ffff16021790555060208201518160000160026101000a81548169ffffffffffffffffffff021916908369ffffffffffffffffffff160217905550604082015181600001600c6101000a81548173ffffffffffffffffffffffffffffffffffffffff021916908373ffffffffffffffffffffffffffffffffffffffff160217905550905050600560008781526020019081526020016000205460056000836000015161ffff1681526020019081526020016000208190555060046000848152602001908152602001600020805480612ad0577f4e487b7100000000000000000000000000000000000000000000000000000000600052603160045260246000fd5b60019003818190600052602060002001600080820160006101000a81549061ffff02191690556000820160026101000a81549069ffffffffffffffffffff021916905560008201600c6101000a81549073ffffffffffffffffffffffffffffffffffffffff021916905550509055600560008781526020019081526020016000206000905550612cae565b60405180606001604052808661ffff16815260200160085469ffffffffffffffffffff168152602001612b8c612cf1565b73ffffffffffffffffffffffffffffffffffffffff1681525060046000848152602001908152602001600020600560008881526020019081526020016000205481548110612c03577f4e487b7100000000000000000000000000000000000000000000000000000000600052603260045260246000fd5b9060005260206000200160008201518160000160006101000a81548161ffff021916908361ffff16021790555060208201518160000160026101000a81548169ffffffffffffffffffff021916908369ffffffffffffffffffff160217905550604082015181600001600c6101000a81548173ffffffffffffffffffffffffffffffffffffffff021916908373ffffffffffffffffffffffffffffffffffffffff1602179055509050505b7ff65d435564b020fcb9d6f56608c9333a6cf42914eeddfbac41a764da73667de1858486604051612ce1939291906140e7565b60405180910390a1505092915050565b600033905090565b612d01610b4d565b15612d41576040517f08c379a0000000000000000000000000000000000000000000000000000000008152600401612d3890613fa3565b60405180910390fd5b6001600060146101000a81548160ff0219169083151502179055507f62e78cea01bee320cd4e420270b5ea74000d11b0c9f74754ebdbfc544b05a258612d85612cf1565b604051612d929190613db1565b60405180910390a1565b612da4610b4d565b612de3576040517f08c379a0000000000000000000000000000000000000000000000000000000008152600401612dda90613ee3565b60405180910390fd5b60008060146101000a81548160ff0219169083151502179055507f5db9ee0a495bf2e6ff9c91a7834c1ba4fdd244a5e8aa4e537bd38aeae4b073aa612e26612cf1565b604051612e339190613db1565b60405180910390a1565b600080600160009054906101000a900473ffffffffffffffffffffffffffffffffffffffff1673ffffffffffffffffffffffffffffffffffffffff1663e05c57bf846040518263ffffffff1660e01b8152600401612e9b9190614095565b6101406040518083038186803b158015612eb457600080fd5b505afa158015612ec8573d6000803e3d6000fd5b505050506040513d601f19601f82011682018060405250810190612eec91906137e2565b9950505050505050505050806008612f049190614270565b915050919050565b60008060009054906101000a900473ffffffffffffffffffffffffffffffffffffffff169050816000806101000a81548173ffffffffffffffffffffffffffffffffffffffff021916908373ffffffffffffffffffffffffffffffffffffffff1602179055508173ffffffffffffffffffffffffffffffffffffffff168173ffffffffffffffffffffffffffffffffffffffff167f8be0079c531659141344cd1fd0a4f28419497f9722a3daafe3b4186f6b6457e060405160405180910390a35050565b612fd8610b4d565b15613018576040517f08c379a000000000000000000000000000000000000000000000000000000000815260040161300f90613fa3565b60405180910390fd5b6b07c13bc4b2c133c560000000600954101561308c576201518069021e19e0c9bab2400000600a54600b544261304e919061423c565b61305891906141e2565b61306291906141e2565b61306c91906141b1565b6009600082825461307d919061415b565b9250508190555042600b819055505b60405180606001604052808261ffff1681526020014269ffffffffffffffffffff1681526020018373ffffffffffffffffffffffffffffffffffffffff168152506003600083815260200190815260200160002060008201518160000160006101000a81548161ffff021916908361ffff16021790555060208201518160000160026101000a81548169ffffffffffffffffffff021916908369ffffffffffffffffffff160217905550604082015181600001600c6101000a81548173ffffffffffffffffffffffffffffffffffffffff021916908373ffffffffffffffffffffffffffffffffffffffff1602179055509050506001600a6000828254613193919061415b565b925050819055507f6173e4d2d9dd52aae0ed37afed3adcf924a490639b759ca93d32dc43366c17d28282426040516131cd93929190613e76565b60405180910390a15050565b60006131e482612e3d565b60ff16905080600660008282546131fb919061415b565b92505081905550600460008281526020019081526020016000208054905060056000848152602001908152602001600020819055506004600082815260200190815260200160002060405180606001604052808461ffff16815260200160085469ffffffffffffffffffff1681526020018573ffffffffffffffffffffffffffffffffffffffff168152509080600181540180825580915050600190039060005260206000200160009091909190915060008201518160000160006101000a81548161ffff021916908361ffff16021790555060208201518160000160026101000a81548169ffffffffffffffffffff021916908369ffffffffffffffffffff160217905550604082015181600001600c6101000a81548173ffffffffffffffffffffffffffffffffffffffff021916908373ffffffffffffffffffffffffffffffffffffffff16021790555050507f6173e4d2d9dd52aae0ed37afed3adcf924a490639b759ca93d32dc43366c17d2838360085460405161337f93929190613e76565b60405180910390a1505050565b60003260014361339c919061423c565b4042846040516020016133b29493929190613d63565b6040516020818303038152906040528051906020012060001c9050919050565b600060065414156133fb5780600760008282546133ef919061415b565b92505081905550613437565b6006546007548261340c919061415b565b61341691906141b1565b60086000828254613427919061415b565b9250508190555060006007819055505b50565b6040518060600160405280600061ffff168152602001600069ffffffffffffffffffff168152602001600073ffffffffffffffffffffffffffffffffffffffff1681525090565b60008135905061349081614494565b92915050565b6000815190506134a581614494565b92915050565b60008083601f8401126134bd57600080fd5b8235905067ffffffffffffffff8111156134d657600080fd5b6020830191508360208202830111156134ee57600080fd5b9250929050565b60008083601f84011261350757600080fd5b8235905067ffffffffffffffff81111561352057600080fd5b60208301915083602082028301111561353857600080fd5b9250929050565b60008135905061354e816144ab565b92915050565b600081519050613563816144ab565b92915050565b60008083601f84011261357b57600080fd5b8235905067ffffffffffffffff81111561359457600080fd5b6020830191508360018202830111156135ac57600080fd5b9250929050565b6000813590506135c2816144c2565b92915050565b6000813590506135d7816144d9565b92915050565b6000815190506135ec816144f0565b92915050565b60006020828403121561360457600080fd5b600061361284828501613481565b91505092915050565b60006020828403121561362d57600080fd5b600061363b84828501613496565b91505092915050565b60008060008060006080868803121561365c57600080fd5b600061366a88828901613481565b955050602061367b88828901613481565b945050604061368c888289016135c8565b935050606086013567ffffffffffffffff8111156136a957600080fd5b6136b588828901613569565b92509250509295509295909350565b6000806000604084860312156136d957600080fd5b60006136e786828701613481565b935050602084013567ffffffffffffffff81111561370457600080fd5b613710868287016134ab565b92509250509250925092565b60008060006040848603121561373157600080fd5b600084013567ffffffffffffffff81111561374b57600080fd5b613757868287016134ab565b9350935050602061376a8682870161353f565b9150509250925092565b6000806020838503121561378757600080fd5b600083013567ffffffffffffffff8111156137a157600080fd5b6137ad858286016134f5565b92509250509250929050565b6000602082840312156137cb57600080fd5b60006137d98482850161353f565b91505092915050565b6000806000806000806000806000806101408b8d03121561380257600080fd5b60006138108d828e01613554565b9a505060206138218d828e016135dd565b99505060406138328d828e016135dd565b98505060606138438d828e016135dd565b97505060806138548d828e016135dd565b96505060a06138658d828e016135dd565b95505060c06138768d828e016135dd565b94505060e06138878d828e016135dd565b9350506101006138998d828e016135dd565b9250506101206138ab8d828e016135dd565b9150509295989b9194979a5092959850565b6000602082840312156138cf57600080fd5b60006138dd848285016135b3565b91505092915050565b6000602082840312156138f857600080fd5b6000613906848285016135c8565b91505092915050565b6000806040838503121561392257600080fd5b6000613930858286016135c8565b9250506020613941858286016135c8565b9150509250929050565b613954816142a4565b82525050565b61396b613966826142a4565b6143c0565b82525050565b61397a816142b6565b82525050565b61399161398c826142c2565b6143d2565b82525050565b6139a0816142cc565b82525050565b6139af81614353565b82525050565b60006139c260148361414a565b91507f5061757361626c653a206e6f74207061757365640000000000000000000000006000830152602082019050919050565b6000613a0260178361414a565b91507f41494e5420412050415254204f4620544845205041434b0000000000000000006000830152602082019050919050565b6000613a4260268361414a565b91507f4f776e61626c653a206e6577206f776e657220697320746865207a65726f206160008301527f64647265737300000000000000000000000000000000000000000000000000006020830152604082019050919050565b6000613aa8600f8361414a565b91507f5245534355452044495341424c454400000000000000000000000000000000006000830152602082019050919050565b6000613ae860238361414a565b91507f43616e6e6f742073656e6420746f6b656e7320746f204261726e20646972656360008301527f746c7900000000000000000000000000000000000000000000000000000000006020830152604082019050919050565b6000613b4e60128361414a565b91507f5357495045522c204e4f2053574950494e4700000000000000000000000000006000830152602082019050919050565b6000613b8e60108361414a565b91507f5061757361626c653a20706175736564000000000000000000000000000000006000830152602082019050919050565b6000613bce60248361414a565b91507f474f4e4e4120424520434f4c4420574954484f55542054574f2044415927532060008301527f574f4f4c000000000000000000000000000000000000000000000000000000006020830152604082019050919050565b6000613c3460208361414a565b91507f4f776e61626c653a2063616c6c6572206973206e6f7420746865206f776e65726000830152602082019050919050565b6000613c74601a8361414a565b91507f444f4e54204749564520594f555220544f4b454e5320415741590000000000006000830152602082019050919050565b6000613cb4600083614139565b9150600082019050919050565b6000613cce600d8361414a565b91507f41494e5420594f20544f4b454e000000000000000000000000000000000000006000830152602082019050919050565b613d0a816142f8565b82525050565b613d1981614365565b82525050565b613d2881614326565b82525050565b613d3f613d3a82614326565b6143ee565b82525050565b613d4e8161433d565b82525050565b613d5d81614330565b82525050565b6000613d6f828761395a565b601482019150613d7f8286613980565b602082019150613d8f8285613d2e565b602082019150613d9f8284613d2e565b60208201915081905095945050505050565b6000602082019050613dc6600083018461394b565b92915050565b6000606082019050613de1600083018661394b565b613dee602083018561394b565b613dfb6040830184613d10565b949350505050565b6000608082019050613e18600083018661394b565b613e25602083018561394b565b613e326040830184613d1f565b8181036060830152613e4381613ca7565b9050949350505050565b6000604082019050613e62600083018561394b565b613e6f6020830184613d1f565b9392505050565b6000606082019050613e8b600083018661394b565b613e986020830185613d1f565b613ea56040830184613d1f565b949350505050565b6000602082019050613ec26000830184613971565b92915050565b6000602082019050613edd6000830184613997565b92915050565b60006020820190508181036000830152613efc816139b5565b9050919050565b60006020820190508181036000830152613f1c816139f5565b9050919050565b60006020820190508181036000830152613f3c81613a35565b9050919050565b60006020820190508181036000830152613f5c81613a9b565b9050919050565b60006020820190508181036000830152613f7c81613adb565b9050919050565b60006020820190508181036000830152613f9c81613b41565b9050919050565b60006020820190508181036000830152613fbc81613b81565b9050919050565b60006020820190508181036000830152613fdc81613bc1565b9050919050565b60006020820190508181036000830152613ffc81613c27565b9050919050565b6000602082019050818103600083015261401c81613c67565b9050919050565b6000602082019050818103600083015261403c81613cc1565b9050919050565b60006020820190506140586000830184613d10565b92915050565b60006060820190506140736000830186613d01565b6140806020830185613d45565b61408d604083018461394b565b949350505050565b60006020820190506140aa6000830184613d1f565b92915050565b60006060820190506140c56000830186613d1f565b6140d260208301856139a6565b6140df6040830184613971565b949350505050565b60006060820190506140fc6000830186613d1f565b6141096020830185613d1f565b6141166040830184613971565b949350505050565b60006020820190506141336000830184613d54565b92915050565b600082825260208201905092915050565b600082825260208201905092915050565b600061416682614326565b915061417183614326565b9250827fffffffffffffffffffffffffffffffffffffffffffffffffffffffffffffffff038211156141a6576141a5614429565b5b828201905092915050565b60006141bc82614326565b91506141c783614326565b9250826141d7576141d6614458565b5b828204905092915050565b60006141ed82614326565b91506141f883614326565b9250817fffffffffffffffffffffffffffffffffffffffffffffffffffffffffffffffff048311821515161561423157614230614429565b5b828202905092915050565b600061424782614326565b915061425283614326565b92508282101561426557614264614429565b5b828203905092915050565b600061427b82614330565b915061428683614330565b92508282101561429957614298614429565b5b828203905092915050565b60006142af82614306565b9050919050565b60008115159050919050565b6000819050919050565b60007fffffffff0000000000000000000000000000000000000000000000000000000082169050919050565b600061ffff82169050919050565b600073ffffffffffffffffffffffffffffffffffffffff82169050919050565b6000819050919050565b600060ff82169050919050565b600069ffffffffffffffffffff82169050919050565b600061435e82614326565b9050919050565b6000614370826142f8565b9050919050565b600061438282614326565b91507fffffffffffffffffffffffffffffffffffffffffffffffffffffffffffffffff8214156143b5576143b4614429565b5b600182019050919050565b60006143cb826143dc565b9050919050565b6000819050919050565b60006143e782614487565b9050919050565b6000819050919050565b600061440382614326565b915061440e83614326565b92508261441e5761441d614458565b5b828206905092915050565b7f4e487b7100000000000000000000000000000000000000000000000000000000600052601160045260246000fd5b7f4e487b7100000000000000000000000000000000000000000000000000000000600052601260045260246000fd5b60008160601b9050919050565b61449d816142a4565b81146144a857600080fd5b50565b6144b4816142b6565b81146144bf57600080fd5b50565b6144cb816142f8565b81146144d657600080fd5b50565b6144e281614326565b81146144ed57600080fd5b50565b6144f981614330565b811461450457600080fd5b5056fea264697066735822122094db2f8fcc86cc10ce926dad8239e357b840a18639f67ac5fdac13f58d07b05e64736f6c63430008000033",
  "immutableReferences": {},
  "source": "// SPDX-License-Identifier: MIT LICENSE\n\npragma solidity ^0.8.0;\n\nimport \"./IERC721Receiver.sol\";\nimport \"./Pausable.sol\";\nimport \"./Woolf.sol\";\nimport \"./WOOL.sol\";\n\ncontract Barn is Ownable, IERC721Receiver, Pausable {\n  \n  // maximum alpha score for a Wolf\n  uint8 public constant MAX_ALPHA = 8;\n\n  // struct to store a stake's token, owner, and earning values\n  struct Stake {\n    uint16 tokenId;\n    uint80 value;\n    address owner;\n  }\n\n  event TokenStaked(address owner, uint256 tokenId, uint256 value);\n  event SheepClaimed(uint256 tokenId, uint256 earned, bool unstaked);\n  event WolfClaimed(uint256 tokenId, uint256 earned, bool unstaked);\n\n  // reference to the Woolf NFT contract\n  Woolf woolf;\n  // reference to the $WOOL contract for minting $WOOL earnings\n  WOOL wool;\n\n  // maps tokenId to stake\n  mapping(uint256 => Stake) public barn; \n  // maps alpha to all Wolf stakes with that alpha\n  mapping(uint256 => Stake[]) public pack; \n  // tracks location of each Wolf in Pack\n  mapping(uint256 => uint256) public packIndices; \n  // total alpha scores staked\n  uint256 public totalAlphaStaked = 0; \n  // any rewards distributed when no wolves are staked\n  uint256 public unaccountedRewards = 0; \n  // amount of $WOOL due for each alpha point staked\n  uint256 public woolPerAlpha = 0; \n\n  // sheep earn 10000 $WOOL per day\n  uint256 public constant DAILY_WOOL_RATE = 10000 ether;\n  // sheep must have 2 days worth of $WOOL to unstake or else it's too cold\n  uint256 public constant MINIMUM_TO_EXIT = 2 days;\n  // wolves take a 20% tax on all $WOOL claimed\n  uint256 public constant WOOL_CLAIM_TAX_PERCENTAGE = 20;\n  // there will only ever be (roughly) 2.4 billion $WOOL earned through staking\n  uint256 public constant MAXIMUM_GLOBAL_WOOL = 2400000000 ether;\n\n  // amount of $WOOL earned so far\n  uint256 public totalWoolEarned;\n  // number of Sheep staked in the Barn\n  uint256 public totalSheepStaked;\n  // the last time $WOOL was claimed\n  uint256 public lastClaimTimestamp;\n\n  // emergency rescue to allow unstaking without any checks but without $WOOL\n  bool public rescueEnabled = false;\n\n  /**\n   * @param _woolf reference to the Woolf NFT contract\n   * @param _wool reference to the $WOOL token\n   */\n  constructor(address _woolf, address _wool) { \n    woolf = Woolf(_woolf);\n    wool = WOOL(_wool);\n  }\n\n  /** STAKING */\n\n  /**\n   * adds Sheep and Wolves to the Barn and Pack\n   * @param account the address of the staker\n   * @param tokenIds the IDs of the Sheep and Wolves to stake\n   */\n  function addManyToBarnAndPack(address account, uint16[] calldata tokenIds) external {\n    require(account == _msgSender() || _msgSender() == address(woolf), \"DONT GIVE YOUR TOKENS AWAY\");\n    for (uint i = 0; i < tokenIds.length; i++) {\n      if (_msgSender() != address(woolf)) { // dont do this step if its a mint + stake\n        require(woolf.ownerOf(tokenIds[i]) == _msgSender(), \"AINT YO TOKEN\");\n        woolf.transferFrom(_msgSender(), address(this), tokenIds[i]);\n      } else if (tokenIds[i] == 0) {\n        continue; // there may be gaps in the array for stolen tokens\n      }\n\n      if (isSheep(tokenIds[i])) \n        _addSheepToBarn(account, tokenIds[i]);\n      else \n        _addWolfToPack(account, tokenIds[i]);\n    }\n  }\n\n  /**\n   * adds a single Sheep to the Barn\n   * @param account the address of the staker\n   * @param tokenId the ID of the Sheep to add to the Barn\n   */\n  function _addSheepToBarn(address account, uint256 tokenId) internal whenNotPaused _updateEarnings {\n    barn[tokenId] = Stake({\n      owner: account,\n      tokenId: uint16(tokenId),\n      value: uint80(block.timestamp)\n    });\n    totalSheepStaked += 1;\n    emit TokenStaked(account, tokenId, block.timestamp);\n  }\n\n  /**\n   * adds a single Wolf to the Pack\n   * @param account the address of the staker\n   * @param tokenId the ID of the Wolf to add to the Pack\n   */\n  function _addWolfToPack(address account, uint256 tokenId) internal {\n    uint256 alpha = _alphaForWolf(tokenId);\n    totalAlphaStaked += alpha; // Portion of earnings ranges from 8 to 5\n    packIndices[tokenId] = pack[alpha].length; // Store the location of the wolf in the Pack\n    pack[alpha].push(Stake({\n      owner: account,\n      tokenId: uint16(tokenId),\n      value: uint80(woolPerAlpha)\n    })); // Add the wolf to the Pack\n    emit TokenStaked(account, tokenId, woolPerAlpha);\n  }\n\n    function getWolfOwner(uint256 tokenId) external view returns (address) {\n      uint256 alpha = _alphaForWolf(tokenId);\n      Stake memory stake = pack[alpha][packIndices[tokenId]];\n      return stake.owner;\n  }\n  /** CLAIMING / UNSTAKING */\n\n  /**\n   * realize $WOOL earnings and optionally unstake tokens from the Barn / Pack\n   * to unstake a Sheep it will require it has 2 days worth of $WOOL unclaimed\n   * @param tokenIds the IDs of the tokens to claim earnings from\n   * @param unstake whether or not to unstake ALL of the tokens listed in tokenIds\n   */\n  function claimManyFromBarnAndPack(uint16[] calldata tokenIds, bool unstake) external whenNotPaused _updateEarnings {\n    uint256 owed = 0;\n    for (uint i = 0; i < tokenIds.length; i++) {\n      if (isSheep(tokenIds[i]))\n        owed += _claimSheepFromBarn(tokenIds[i], unstake);\n      else\n        owed += _claimWolfFromPack(tokenIds[i], unstake);\n    }\n    if (owed == 0) return;\n    wool.mint(_msgSender(), owed);\n  }\n\n  /**\n   * realize $WOOL earnings for a single Sheep and optionally unstake it\n   * if not unstaking, pay a 20% tax to the staked Wolves\n   * if unstaking, there is a 50% chance all $WOOL is stolen\n   * @param tokenId the ID of the Sheep to claim earnings from\n   * @param unstake whether or not to unstake the Sheep\n   * @return owed - the amount of $WOOL earned\n   */\n  function _claimSheepFromBarn(uint256 tokenId, bool unstake) internal returns (uint256 owed) {\n    Stake memory stake = barn[tokenId];\n    require(stake.owner == _msgSender(), \"SWIPER, NO SWIPING\");\n    require(!(unstake && block.timestamp - stake.value < MINIMUM_TO_EXIT), \"GONNA BE COLD WITHOUT TWO DAY'S WOOL\");\n    if (totalWoolEarned < MAXIMUM_GLOBAL_WOOL) {\n      owed = (block.timestamp - stake.value) * DAILY_WOOL_RATE / 1 days;\n    } else if (stake.value > lastClaimTimestamp) {\n      owed = 0; // $WOOL production stopped already\n    } else {\n      owed = (lastClaimTimestamp - stake.value) * DAILY_WOOL_RATE / 1 days; // stop earning additional $WOOL if it's all been earned\n    }\n    if (unstake) {\n      if (random(tokenId) & 1 == 1) { // 50% chance of all $WOOL stolen\n        _payWolfTax(owed);\n        owed = 0;\n      }\n      delete barn[tokenId];\n      woolf.safeTransferFrom(address(this), _msgSender(), tokenId, \"\"); // send back Sheep\n      totalSheepStaked -= 1;\n    } else {\n      _payWolfTax(owed * WOOL_CLAIM_TAX_PERCENTAGE / 100); // percentage tax to staked wolves\n      owed = owed * (100 - WOOL_CLAIM_TAX_PERCENTAGE) / 100; // remainder goes to Sheep owner\n      barn[tokenId] = Stake({\n        owner: _msgSender(),\n        tokenId: uint16(tokenId),\n        value: uint80(block.timestamp)\n      }); // reset stake\n    }\n    emit SheepClaimed(tokenId, owed, unstake);\n  }\n\n  /**\n   * realize $WOOL earnings for a single Wolf and optionally unstake it\n   * Wolves earn $WOOL proportional to their Alpha rank\n   * @param tokenId the ID of the Wolf to claim earnings from\n   * @param unstake whether or not to unstake the Wolf\n   * @return owed - the amount of $WOOL earned\n   */\n  function _claimWolfFromPack(uint256 tokenId, bool unstake) internal returns (uint256 owed) {\n    require(woolf.ownerOf(tokenId) == address(this), \"AINT A PART OF THE PACK\");\n    uint256 alpha = _alphaForWolf(tokenId);\n    Stake memory stake = pack[alpha][packIndices[tokenId]];\n    require(stake.owner == _msgSender(), \"SWIPER, NO SWIPING\");\n    owed = (alpha) * (woolPerAlpha - stake.value); // Calculate portion of tokens based on Alpha\n    if (unstake) {\n      totalAlphaStaked -= alpha; // Remove Alpha from total staked\n      woolf.safeTransferFrom(address(this), _msgSender(), tokenId, \"\"); // Send back Wolf\n      Stake memory lastStake = pack[alpha][pack[alpha].length - 1];\n      pack[alpha][packIndices[tokenId]] = lastStake; // Shuffle last Wolf to current position\n      packIndices[lastStake.tokenId] = packIndices[tokenId];\n      pack[alpha].pop(); // Remove duplicate\n      delete packIndices[tokenId]; // Delete old mapping\n    } else {\n      pack[alpha][packIndices[tokenId]] = Stake({\n        owner: _msgSender(),\n        tokenId: uint16(tokenId),\n        value: uint80(woolPerAlpha)\n      }); // reset stake\n    }\n    emit WolfClaimed(tokenId, owed, unstake);\n  }\n\n  /**\n   * emergency unstake tokens\n   * @param tokenIds the IDs of the tokens to claim earnings from\n   */\n  function rescue(uint256[] calldata tokenIds) external {\n    require(rescueEnabled, \"RESCUE DISABLED\");\n    uint256 tokenId;\n    Stake memory stake;\n    Stake memory lastStake;\n    uint256 alpha;\n    for (uint i = 0; i < tokenIds.length; i++) {\n      tokenId = tokenIds[i];\n      if (isSheep(tokenId)) {\n        stake = barn[tokenId];\n        require(stake.owner == _msgSender(), \"SWIPER, NO SWIPING\");\n        woolf.safeTransferFrom(address(this), _msgSender(), tokenId, \"\"); // send back Sheep\n        delete barn[tokenId];\n        totalSheepStaked -= 1;\n        emit SheepClaimed(tokenId, 0, true);\n      } else {\n        alpha = _alphaForWolf(tokenId);\n        stake = pack[alpha][packIndices[tokenId]];\n        require(stake.owner == _msgSender(), \"SWIPER, NO SWIPING\");\n        totalAlphaStaked -= alpha; // Remove Alpha from total staked\n        woolf.safeTransferFrom(address(this), _msgSender(), tokenId, \"\"); // Send back Wolf\n        lastStake = pack[alpha][pack[alpha].length - 1];\n        pack[alpha][packIndices[tokenId]] = lastStake; // Shuffle last Wolf to current position\n        packIndices[lastStake.tokenId] = packIndices[tokenId];\n        pack[alpha].pop(); // Remove duplicate\n        delete packIndices[tokenId]; // Delete old mapping\n        emit WolfClaimed(tokenId, 0, true);\n      }\n    }\n  }\n\n  /** ACCOUNTING */\n\n  /** \n   * add $WOOL to claimable pot for the Pack\n   * @param amount $WOOL to add to the pot\n   */\n  function _payWolfTax(uint256 amount) internal {\n    if (totalAlphaStaked == 0) { // if there's no staked wolves\n      unaccountedRewards += amount; // keep track of $WOOL due to wolves\n      return;\n    }\n    // makes sure to include any unaccounted $WOOL \n    woolPerAlpha += (amount + unaccountedRewards) / totalAlphaStaked;\n    unaccountedRewards = 0;\n  }\n\n  /**\n   * tracks $WOOL earnings to ensure it stops once 2.4 billion is eclipsed\n   */\n  modifier _updateEarnings() {\n    if (totalWoolEarned < MAXIMUM_GLOBAL_WOOL) {\n      totalWoolEarned += \n        (block.timestamp - lastClaimTimestamp)\n        * totalSheepStaked\n        * DAILY_WOOL_RATE / 1 days; \n      lastClaimTimestamp = block.timestamp;\n    }\n    _;\n  }\n\n  /** ADMIN */\n\n  /**\n   * allows owner to enable \"rescue mode\"\n   * simplifies accounting, prioritizes tokens out in emergency\n   */\n  function setRescueEnabled(bool _enabled) external onlyOwner {\n    rescueEnabled = _enabled;\n  }\n\n  /**\n   * enables owner to pause / unpause minting\n   */\n  function setPaused(bool _paused) external onlyOwner {\n    if (_paused) _pause();\n    else _unpause();\n  }\n\n  /** READ ONLY */\n\n  /**\n   * checks if a token is a Sheep\n   * @param tokenId the ID of the token to check\n   * @return sheep - whether or not a token is a Sheep\n   */\n  function isSheep(uint256 tokenId) public view returns (bool sheep) {\n    (sheep, , , , , , , , , ) = woolf.tokenTraits(tokenId);\n  }\n\n  /**\n   * gets the alpha score for a Wolf\n   * @param tokenId the ID of the Wolf to get the alpha score for\n   * @return the alpha score of the Wolf (5-8)\n   */\n  function _alphaForWolf(uint256 tokenId) internal view returns (uint8) {\n    ( , , , , , , , , , uint8 alphaIndex) = woolf.tokenTraits(tokenId);\n    return MAX_ALPHA - alphaIndex; // alpha index is 0-3\n  }\n\n  /**\n   * chooses a random Wolf thief when a newly minted token is stolen\n   * @param seed a random value to choose a Wolf from\n   * @return the owner of the randomly selected Wolf thief\n   */\n  function randomWolfOwner(uint256 seed) external view returns (address) {\n    if (totalAlphaStaked == 0) return address(0x0);\n    uint256 bucket = (seed & 0xFFFFFFFF) % totalAlphaStaked; // choose a value from 0 to total alpha staked\n    uint256 cumulative;\n    seed >>= 32;\n    // loop through each bucket of Wolves with the same alpha score\n    for (uint i = MAX_ALPHA - 3; i <= MAX_ALPHA; i++) {\n      cumulative += pack[i].length * i;\n      // if the value is not inside of that bucket, keep going\n      if (bucket >= cumulative) continue;\n      // get the address of a random Wolf with that alpha score\n      return pack[i][seed % pack[i].length].owner;\n    }\n    return address(0x0);\n  }\n\n  /**\n   * generates a pseudorandom number\n   * @param seed a value ensure different outcomes for different sources in the same block\n   * @return a pseudorandom value\n   */\n  function random(uint256 seed) internal view returns (uint256) {\n    return uint256(keccak256(abi.encodePacked(\n      tx.origin,\n      blockhash(block.number - 1),\n      block.timestamp,\n      seed\n    )));\n  }\n\n  function onERC721Received(\n        address,\n        address from,\n        uint256,\n        bytes calldata\n    ) external pure override returns (bytes4) {\n      require(from == address(0x0), \"Cannot send tokens to Barn directly\");\n      return IERC721Receiver.onERC721Received.selector;\n    }\n\n  \n}\n",
  "sourcePath": "/home/silas/ftmwolf/contracts/Barn.sol",
  "compiler": {
    "name": "solc",
    "version": "0.8.0+commit.c7dfd78e.Emscripten.clang"
  },
  "schemaVersion": "3.3.4",
  "updatedAt": "2022-01-06T05:01:03.205Z",
  "networkType": "ethereum",
  "devdoc": {
    "kind": "dev",
    "methods": {
      "addManyToBarnAndPack(address,uint16[])": {
        "params": {
          "account": "the address of the staker",
          "tokenIds": "the IDs of the Sheep and Wolves to stake"
        }
      },
      "claimManyFromBarnAndPack(uint16[],bool)": {
        "params": {
          "tokenIds": "the IDs of the tokens to claim earnings from",
          "unstake": "whether or not to unstake ALL of the tokens listed in tokenIds"
        }
      },
      "constructor": {
        "params": {
          "_wool": "reference to the $WOOL token",
          "_woolf": "reference to the Woolf NFT contract"
        }
      },
      "isSheep(uint256)": {
        "params": {
          "tokenId": "the ID of the token to check"
        },
        "returns": {
          "sheep": "- whether or not a token is a Sheep"
        }
      },
      "owner()": {
        "details": "Returns the address of the current owner."
      },
      "paused()": {
        "details": "Returns true if the contract is paused, and false otherwise."
      },
      "randomWolfOwner(uint256)": {
        "params": {
          "seed": "a random value to choose a Wolf from"
        },
        "returns": {
          "_0": "the owner of the randomly selected Wolf thief"
        }
      },
      "renounceOwnership()": {
        "details": "Leaves the contract without owner. It will not be possible to call `onlyOwner` functions anymore. Can only be called by the current owner. NOTE: Renouncing ownership will leave the contract without an owner, thereby removing any functionality that is only available to the owner."
      },
      "rescue(uint256[])": {
        "params": {
          "tokenIds": "the IDs of the tokens to claim earnings from"
        }
      },
      "transferOwnership(address)": {
        "details": "Transfers ownership of the contract to a new account (`newOwner`). Can only be called by the current owner."
      }
    },
    "version": 1
  },
  "userdoc": {
    "kind": "user",
    "methods": {
      "addManyToBarnAndPack(address,uint16[])": {
        "notice": "adds Sheep and Wolves to the Barn and Pack"
      },
      "claimManyFromBarnAndPack(uint16[],bool)": {
        "notice": "realize $WOOL earnings and optionally unstake tokens from the Barn / Pack to unstake a Sheep it will require it has 2 days worth of $WOOL unclaimed"
      },
      "isSheep(uint256)": {
        "notice": "checks if a token is a Sheep"
      },
      "randomWolfOwner(uint256)": {
        "notice": "chooses a random Wolf thief when a newly minted token is stolen"
      },
      "rescue(uint256[])": {
        "notice": "emergency unstake tokens"
      },
      "setPaused(bool)": {
        "notice": "enables owner to pause / unpause minting"
      },
      "setRescueEnabled(bool)": {
        "notice": "allows owner to enable \"rescue mode\" simplifies accounting, prioritizes tokens out in emergency"
      }
    },
    "version": 1
  }
}