{
  "contractName": "Traits",
  "abi": [
    {
      "inputs": [],
      "stateMutability": "nonpayable",
      "type": "constructor"
    },
    {
      "anonymous": false,
      "inputs": [
        {
          "indexed": true,
          "internalType": "address",
          "name": "previousOwner",
          "type": "address"
        },
        {
          "indexed": true,
          "internalType": "address",
          "name": "newOwner",
          "type": "address"
        }
      ],
      "name": "OwnershipTransferred",
      "type": "event"
    },
    {
      "inputs": [],
      "name": "owner",
      "outputs": [
        {
          "internalType": "address",
          "name": "",
          "type": "address"
        }
      ],
      "stateMutability": "view",
      "type": "function",
      "constant": true
    },
    {
      "inputs": [],
      "name": "renounceOwnership",
      "outputs": [],
      "stateMutability": "nonpayable",
      "type": "function"
    },
    {
      "inputs": [
        {
          "internalType": "uint8",
          "name": "",
          "type": "uint8"
        },
        {
          "internalType": "uint8",
          "name": "",
          "type": "uint8"
        }
      ],
      "name": "traitData",
      "outputs": [
        {
          "internalType": "string",
          "name": "name",
          "type": "string"
        },
        {
          "internalType": "string",
          "name": "png",
          "type": "string"
        }
      ],
      "stateMutability": "view",
      "type": "function",
      "constant": true
    },
    {
      "inputs": [
        {
          "internalType": "address",
          "name": "newOwner",
          "type": "address"
        }
      ],
      "name": "transferOwnership",
      "outputs": [],
      "stateMutability": "nonpayable",
      "type": "function"
    },
    {
      "inputs": [],
      "name": "woolf",
      "outputs": [
        {
          "internalType": "contract IWoolf",
          "name": "",
          "type": "address"
        }
      ],
      "stateMutability": "view",
      "type": "function",
      "constant": true
    },
    {
      "inputs": [
        {
          "internalType": "address",
          "name": "_woolf",
          "type": "address"
        }
      ],
      "name": "setWoolf",
      "outputs": [],
      "stateMutability": "nonpayable",
      "type": "function"
    },
    {
      "inputs": [
        {
          "internalType": "uint8",
          "name": "traitType",
          "type": "uint8"
        },
        {
          "internalType": "uint8[]",
          "name": "traitIds",
          "type": "uint8[]"
        },
        {
          "components": [
            {
              "internalType": "string",
              "name": "name",
              "type": "string"
            },
            {
              "internalType": "string",
              "name": "png",
              "type": "string"
            }
          ],
          "internalType": "struct Traits.Trait[]",
          "name": "traits",
          "type": "tuple[]"
        }
      ],
      "name": "uploadTraits",
      "outputs": [],
      "stateMutability": "nonpayable",
      "type": "function"
    },
    {
      "inputs": [
        {
          "internalType": "uint256",
          "name": "tokenId",
          "type": "uint256"
        }
      ],
      "name": "drawSVG",
      "outputs": [
        {
          "internalType": "string",
          "name": "",
          "type": "string"
        }
      ],
      "stateMutability": "view",
      "type": "function",
      "constant": true
    },
    {
      "inputs": [
        {
          "internalType": "uint256",
          "name": "tokenId",
          "type": "uint256"
        }
      ],
      "name": "compileAttributes",
      "outputs": [
        {
          "internalType": "string",
          "name": "",
          "type": "string"
        }
      ],
      "stateMutability": "view",
      "type": "function",
      "constant": true
    },
    {
      "inputs": [
        {
          "internalType": "uint256",
          "name": "tokenId",
          "type": "uint256"
        }
      ],
      "name": "tokenURI",
      "outputs": [
        {
          "internalType": "string",
          "name": "",
          "type": "string"
        }
      ],
      "stateMutability": "view",
      "type": "function",
      "constant": true
    }
  ],
  "bytecode": "0x60806040526040518061012001604052806040518060400160405280600381526020017f467572000000000000000000000000000000000000000000000000000000000081525081526020016040518060400160405280600481526020017f486561640000000000000000000000000000000000000000000000000000000081525081526020016040518060400160405280600481526020017f456172730000000000000000000000000000000000000000000000000000000081525081526020016040518060400160405280600481526020017f457965730000000000000000000000000000000000000000000000000000000081525081526020016040518060400160405280600481526020017f4e6f73650000000000000000000000000000000000000000000000000000000081525081526020016040518060400160405280600581526020017f4d6f75746800000000000000000000000000000000000000000000000000000081525081526020016040518060400160405280600481526020017f4e65636b0000000000000000000000000000000000000000000000000000000081525081526020016040518060400160405280600481526020017f466565740000000000000000000000000000000000000000000000000000000081525081526020016040518060400160405280600581526020017f416c7068610000000000000000000000000000000000000000000000000000008152508152506001906009620002339291906200043c565b5060405180608001604052806040518060400160405280600181526020017f380000000000000000000000000000000000000000000000000000000000000081525081526020016040518060400160405280600181526020017f370000000000000000000000000000000000000000000000000000000000000081525081526020016040518060400160405280600181526020017f360000000000000000000000000000000000000000000000000000000000000081525081526020016040518060400160405280600181526020017f3500000000000000000000000000000000000000000000000000000000000000815250815250600b9060046200033b92919062000496565b503480156200034957600080fd5b506200036a6200035e6200037060201b60201c565b6200037860201b60201c565b62000673565b600033905090565b60008060009054906101000a900473ffffffffffffffffffffffffffffffffffffffff169050816000806101000a81548173ffffffffffffffffffffffffffffffffffffffff021916908373ffffffffffffffffffffffffffffffffffffffff1602179055508173ffffffffffffffffffffffffffffffffffffffff168173ffffffffffffffffffffffffffffffffffffffff167f8be0079c531659141344cd1fd0a4f28419497f9722a3daafe3b4186f6b6457e060405160405180910390a35050565b826009810192821562000483579160200282015b828111156200048257825182908051906020019062000471929190620004f0565b509160200191906001019062000450565b5b50905062000492919062000581565b5090565b8260048101928215620004dd579160200282015b82811115620004dc578251829080519060200190620004cb929190620004f0565b5091602001919060010190620004aa565b5b509050620004ec919062000581565b5090565b828054620004fe906200060e565b90600052602060002090601f0160209004810192826200052257600085556200056e565b82601f106200053d57805160ff19168380011785556200056e565b828001600101855582156200056e579182015b828111156200056d57825182559160200191906001019062000550565b5b5090506200057d9190620005a9565b5090565b5b80821115620005a557600081816200059b9190620005c8565b5060010162000582565b5090565b5b80821115620005c4576000816000905550600101620005aa565b5090565b508054620005d6906200060e565b6000825580601f10620005ea57506200060b565b601f0160209004906000526020600020908101906200060a9190620005a9565b5b50565b600060028204905060018216806200062757607f821691505b602082108114156200063e576200063d62000644565b5b50919050565b7f4e487b7100000000000000000000000000000000000000000000000000000000600052602260045260246000fd5b614a2980620006836000396000f3fe608060405234801561001057600080fd5b506004361061009e5760003560e01c80638da5cb5b116100665780638da5cb5b146101475780639bf2ee3514610165578063c87b56dd14610196578063d93ae3d9146101c6578063f2fde38b146101e25761009e565b8063265c3cdc146100a357806368dba5e5146100c15780636d6015a8146100f1578063715018a61461010d5780637abecb8614610117575b600080fd5b6100ab6101fe565b6040516100b89190614424565b60405180910390f35b6100db60048036038101906100d69190613716565b610224565b6040516100e8919061443f565b60405180910390f35b61010b600480360381019061010691906136c3565b611881565b005b610115611941565b005b610131600480360381019061012c9190613716565b6119c9565b60405161013e919061443f565b60405180910390f35b61014f6128a2565b60405161015c9190614409565b60405180910390f35b61017f600480360381019061017a919061381a565b6128cb565b60405161018d929190614461565b60405180910390f35b6101b060048036038101906101ab9190613716565b612a0c565b6040516101bd919061443f565b60405180910390f35b6101e060048036038101906101db9190613791565b612bb3565b005b6101fc60048036038101906101f791906136c3565b612ea7565b005b600f60009054906101000a900473ffffffffffffffffffffffffffffffffffffffff1681565b60606000600f60009054906101000a900473ffffffffffffffffffffffffffffffffffffffff1673ffffffffffffffffffffffffffffffffffffffff166394e56847846040518263ffffffff1660e01b815260040161028391906144f8565b6101406040518083038186803b15801561029c57600080fd5b505afa1580156102b0573d6000803e3d6000fd5b505050506040513d601f19601f820116820180604052508101906102d491906136ec565b90506060816000015115610dda5761046c6001600060098110610320577f4e487b7100000000000000000000000000000000000000000000000000000000600052603260045260246000fd5b01805461032c906147de565b80601f0160208091040260200160405190810160405280929190818152602001828054610358906147de565b80156103a55780601f1061037a576101008083540402835291602001916103a5565b820191906000526020600020905b81548152906001019060200180831161038857829003601f168201915b5050505050600a60008060ff1681526020019081526020016000206000856020015160ff1660ff16815260200190815260200160002060000180546103e9906147de565b80601f0160208091040260200160405190810160405280929190818152602001828054610415906147de565b80156104625780601f1061043757610100808354040283529160200191610462565b820191906000526020600020905b81548152906001019060200180831161044557829003601f168201915b5050505050612f9f565b6105f6600180600981106104a9577f4e487b7100000000000000000000000000000000000000000000000000000000600052603260045260246000fd5b0180546104b5906147de565b80601f01602080910402602001604051908101604052809291908181526020018280546104e1906147de565b801561052e5780601f106105035761010080835404028352916020019161052e565b820191906000526020600020905b81548152906001019060200180831161051157829003601f168201915b5050505050600a6000600160ff1681526020019081526020016000206000866040015160ff1660ff1681526020019081526020016000206000018054610573906147de565b80601f016020809104026020016040519081016040528092919081815260200182805461059f906147de565b80156105ec5780601f106105c1576101008083540402835291602001916105ec565b820191906000526020600020905b8154815290600101906020018083116105cf57829003601f168201915b5050505050612f9f565b6107816001600260098110610634577f4e487b7100000000000000000000000000000000000000000000000000000000600052603260045260246000fd5b018054610640906147de565b80601f016020809104026020016040519081016040528092919081815260200182805461066c906147de565b80156106b95780601f1061068e576101008083540402835291602001916106b9565b820191906000526020600020905b81548152906001019060200180831161069c57829003601f168201915b5050505050600a6000600260ff1681526020019081526020016000206000876060015160ff1660ff16815260200190815260200160002060000180546106fe906147de565b80601f016020809104026020016040519081016040528092919081815260200182805461072a906147de565b80156107775780601f1061074c57610100808354040283529160200191610777565b820191906000526020600020905b81548152906001019060200180831161075a57829003601f168201915b5050505050612f9f565b61090c60016003600981106107bf577f4e487b7100000000000000000000000000000000000000000000000000000000600052603260045260246000fd5b0180546107cb906147de565b80601f01602080910402602001604051908101604052809291908181526020018280546107f7906147de565b80156108445780601f1061081957610100808354040283529160200191610844565b820191906000526020600020905b81548152906001019060200180831161082757829003601f168201915b5050505050600a6000600360ff1681526020019081526020016000206000886080015160ff1660ff1681526020019081526020016000206000018054610889906147de565b80601f01602080910402602001604051908101604052809291908181526020018280546108b5906147de565b80156109025780601f106108d757610100808354040283529160200191610902565b820191906000526020600020905b8154815290600101906020018083116108e557829003601f168201915b5050505050612f9f565b610a97600160046009811061094a577f4e487b7100000000000000000000000000000000000000000000000000000000600052603260045260246000fd5b018054610956906147de565b80601f0160208091040260200160405190810160405280929190818152602001828054610982906147de565b80156109cf5780601f106109a4576101008083540402835291602001916109cf565b820191906000526020600020905b8154815290600101906020018083116109b257829003601f168201915b5050505050600a6000600460ff16815260200190815260200160002060008960a0015160ff1660ff1681526020019081526020016000206000018054610a14906147de565b80601f0160208091040260200160405190810160405280929190818152602001828054610a40906147de565b8015610a8d5780601f10610a6257610100808354040283529160200191610a8d565b820191906000526020600020905b815481529060010190602001808311610a7057829003601f168201915b5050505050612f9f565b610c226001600560098110610ad5577f4e487b7100000000000000000000000000000000000000000000000000000000600052603260045260246000fd5b018054610ae1906147de565b80601f0160208091040260200160405190810160405280929190818152602001828054610b0d906147de565b8015610b5a5780601f10610b2f57610100808354040283529160200191610b5a565b820191906000526020600020905b815481529060010190602001808311610b3d57829003601f168201915b5050505050600a6000600560ff16815260200190815260200160002060008a60c0015160ff1660ff1681526020019081526020016000206000018054610b9f906147de565b80601f0160208091040260200160405190810160405280929190818152602001828054610bcb906147de565b8015610c185780601f10610bed57610100808354040283529160200191610c18565b820191906000526020600020905b815481529060010190602001808311610bfb57829003601f168201915b5050505050612f9f565b610dae6001600760098110610c60577f4e487b7100000000000000000000000000000000000000000000000000000000600052603260045260246000fd5b018054610c6c906147de565b80601f0160208091040260200160405190810160405280929190818152602001828054610c98906147de565b8015610ce55780601f10610cba57610100808354040283529160200191610ce5565b820191906000526020600020905b815481529060010190602001808311610cc857829003601f168201915b5050505050600a6000600760ff16815260200190815260200160002060008b610100015160ff1660ff1681526020019081526020016000206000018054610d2b906147de565b80601f0160208091040260200160405190810160405280929190818152602001828054610d57906147de565b8015610da45780601f10610d7957610100808354040283529160200191610da4565b820191906000526020600020905b815481529060010190602001808311610d8757829003601f168201915b5050505050612f9f565b604051602001610dc497969594939291906141cf565b60405160208183030381529060405290506116c2565b610f656001600060098110610e18577f4e487b7100000000000000000000000000000000000000000000000000000000600052603260045260246000fd5b018054610e24906147de565b80601f0160208091040260200160405190810160405280929190818152602001828054610e50906147de565b8015610e9d5780601f10610e7257610100808354040283529160200191610e9d565b820191906000526020600020905b815481529060010190602001808311610e8057829003601f168201915b5050505050600a6000600960ff1681526020019081526020016000206000856020015160ff1660ff1681526020019081526020016000206000018054610ee2906147de565b80601f0160208091040260200160405190810160405280929190818152602001828054610f0e906147de565b8015610f5b5780601f10610f3057610100808354040283529160200191610f5b565b820191906000526020600020905b815481529060010190602001808311610f3e57829003601f168201915b5050505050612f9f565b6110f060018060098110610fa2577f4e487b7100000000000000000000000000000000000000000000000000000000600052603260045260246000fd5b018054610fae906147de565b80601f0160208091040260200160405190810160405280929190818152602001828054610fda906147de565b80156110275780601f10610ffc57610100808354040283529160200191611027565b820191906000526020600020905b81548152906001019060200180831161100a57829003601f168201915b5050505050600a6000600a60ff168152602001908152602001600020600086610120015160ff1660ff168152602001908152602001600020600001805461106d906147de565b80601f0160208091040260200160405190810160405280929190818152602001828054611099906147de565b80156110e65780601f106110bb576101008083540402835291602001916110e6565b820191906000526020600020905b8154815290600101906020018083116110c957829003601f168201915b5050505050612f9f565b61127b600160036009811061112e577f4e487b7100000000000000000000000000000000000000000000000000000000600052603260045260246000fd5b01805461113a906147de565b80601f0160208091040260200160405190810160405280929190818152602001828054611166906147de565b80156111b35780601f10611188576101008083540402835291602001916111b3565b820191906000526020600020905b81548152906001019060200180831161119657829003601f168201915b5050505050600a6000600c60ff1681526020019081526020016000206000876080015160ff1660ff16815260200190815260200160002060000180546111f8906147de565b80601f0160208091040260200160405190810160405280929190818152602001828054611224906147de565b80156112715780601f1061124657610100808354040283529160200191611271565b820191906000526020600020905b81548152906001019060200180831161125457829003601f168201915b5050505050612f9f565b61140660016005600981106112b9577f4e487b7100000000000000000000000000000000000000000000000000000000600052603260045260246000fd5b0180546112c5906147de565b80601f01602080910402602001604051908101604052809291908181526020018280546112f1906147de565b801561133e5780601f106113135761010080835404028352916020019161133e565b820191906000526020600020905b81548152906001019060200180831161132157829003601f168201915b5050505050600a6000600e60ff16815260200190815260200160002060008860c0015160ff1660ff1681526020019081526020016000206000018054611383906147de565b80601f01602080910402602001604051908101604052809291908181526020018280546113af906147de565b80156113fc5780601f106113d1576101008083540402835291602001916113fc565b820191906000526020600020905b8154815290600101906020018083116113df57829003601f168201915b5050505050612f9f565b6115916001600660098110611444577f4e487b7100000000000000000000000000000000000000000000000000000000600052603260045260246000fd5b018054611450906147de565b80601f016020809104026020016040519081016040528092919081815260200182805461147c906147de565b80156114c95780601f1061149e576101008083540402835291602001916114c9565b820191906000526020600020905b8154815290600101906020018083116114ac57829003601f168201915b5050505050600a6000600f60ff16815260200190815260200160002060008960e0015160ff1660ff168152602001908152602001600020600001805461150e906147de565b80601f016020809104026020016040519081016040528092919081815260200182805461153a906147de565b80156115875780601f1061155c57610100808354040283529160200191611587565b820191906000526020600020905b81548152906001019060200180831161156a57829003601f168201915b5050505050612f9f565b61169b6040518060400160405280600b81526020017f416c7068612053636f7265000000000000000000000000000000000000000000815250600b89610120015160ff166004811061160c577f4e487b7100000000000000000000000000000000000000000000000000000000600052603260045260246000fd5b018054611618906147de565b80601f0160208091040260200160405190810160405280929190818152602001828054611644906147de565b80156116915780601f1061166657610100808354040283529160200191611691565b820191906000526020600020905b81548152906001019060200180831161167457829003601f168201915b5050505050612f9f565b6040516020016116b096959493929190614135565b60405160208183030381529060405290505b80600f60009054906101000a900473ffffffffffffffffffffffffffffffffffffffff1673ffffffffffffffffffffffffffffffffffffffff16634018b1f86040518163ffffffff1660e01b815260040160206040518083038186803b15801561172b57600080fd5b505afa15801561173f573d6000803e3d6000fd5b505050506040513d601f19601f82011682018060405250810190611763919061373f565b8511156117a5576040518060400160405280600781526020017f2247656e203122000000000000000000000000000000000000000000000000008152506117dc565b6040518060400160405280600781526020017f2247656e203022000000000000000000000000000000000000000000000000008152505b8360000151611820576040518060400160405280600681526020017f22576f6c66220000000000000000000000000000000000000000000000000000815250611857565b6040518060400160405280600781526020017f22536865657022000000000000000000000000000000000000000000000000008152505b60405160200161186993929190614320565b60405160208183030381529060405292505050919050565b611889612fcb565b73ffffffffffffffffffffffffffffffffffffffff166118a76128a2565b73ffffffffffffffffffffffffffffffffffffffff16146118fd576040517f08c379a00000000000000000000000000000000000000000000000000000000081526004016118f4906144d8565b60405180910390fd5b80600f60006101000a81548173ffffffffffffffffffffffffffffffffffffffff021916908373ffffffffffffffffffffffffffffffffffffffff16021790555050565b611949612fcb565b73ffffffffffffffffffffffffffffffffffffffff166119676128a2565b73ffffffffffffffffffffffffffffffffffffffff16146119bd576040517f08c379a00000000000000000000000000000000000000000000000000000000081526004016119b4906144d8565b60405180910390fd5b6119c76000612fd3565b565b60606000600f60009054906101000a900473ffffffffffffffffffffffffffffffffffffffff1673ffffffffffffffffffffffffffffffffffffffff166394e56847846040518263ffffffff1660e01b8152600401611a2891906144f8565b6101406040518083038186803b158015611a4157600080fd5b505afa158015611a55573d6000803e3d6000fd5b505050506040513d601f19601f82011682018060405250810190611a7991906136ec565b905060008160000151611a8d576009611a90565b60005b90506000611c0b600a6000846000611aa8919061463c565b60ff1660ff1681526020019081526020016000206000856020015160ff1660ff168152602001908152602001600020604051806040016040529081600082018054611af2906147de565b80601f0160208091040260200160405190810160405280929190818152602001828054611b1e906147de565b8015611b6b5780601f10611b4057610100808354040283529160200191611b6b565b820191906000526020600020905b815481529060010190602001808311611b4e57829003601f168201915b50505050508152602001600182018054611b84906147de565b80601f0160208091040260200160405190810160405280929190818152602001828054611bb0906147de565b8015611bfd5780601f10611bd257610100808354040283529160200191611bfd565b820191906000526020600020905b815481529060010190602001808311611be057829003601f168201915b505050505081525050613097565b8360000151611d9157611d8c600a6000856001611c28919061463c565b60ff1660ff168152602001908152602001600020600086610120015160ff1660ff168152602001908152602001600020604051806040016040529081600082018054611c73906147de565b80601f0160208091040260200160405190810160405280929190818152602001828054611c9f906147de565b8015611cec5780601f10611cc157610100808354040283529160200191611cec565b820191906000526020600020905b815481529060010190602001808311611ccf57829003601f168201915b50505050508152602001600182018054611d05906147de565b80601f0160208091040260200160405190810160405280929190818152602001828054611d31906147de565b8015611d7e5780601f10611d5357610100808354040283529160200191611d7e565b820191906000526020600020905b815481529060010190602001808311611d6157829003601f168201915b505050505081525050613097565b611f09565b611f08600a6000856001611da5919061463c565b60ff1660ff1681526020019081526020016000206000866040015160ff1660ff168152602001908152602001600020604051806040016040529081600082018054611def906147de565b80601f0160208091040260200160405190810160405280929190818152602001828054611e1b906147de565b8015611e685780601f10611e3d57610100808354040283529160200191611e68565b820191906000526020600020905b815481529060010190602001808311611e4b57829003601f168201915b50505050508152602001600182018054611e81906147de565b80601f0160208091040260200160405190810160405280929190818152602001828054611ead906147de565b8015611efa5780601f10611ecf57610100808354040283529160200191611efa565b820191906000526020600020905b815481529060010190602001808311611edd57829003601f168201915b505050505081525050613097565b5b8460000151611f27576040518060200160405280600081525061209f565b61209e600a6000866002611f3b919061463c565b60ff1660ff1681526020019081526020016000206000876060015160ff1660ff168152602001908152602001600020604051806040016040529081600082018054611f85906147de565b80601f0160208091040260200160405190810160405280929190818152602001828054611fb1906147de565b8015611ffe5780601f10611fd357610100808354040283529160200191611ffe565b820191906000526020600020905b815481529060010190602001808311611fe157829003601f168201915b50505050508152602001600182018054612017906147de565b80601f0160208091040260200160405190810160405280929190818152602001828054612043906147de565b80156120905780601f1061206557610100808354040283529160200191612090565b820191906000526020600020905b81548152906001019060200180831161207357829003601f168201915b505050505081525050613097565b5b612216600a60008760036120b3919061463c565b60ff1660ff1681526020019081526020016000206000886080015160ff1660ff1681526020019081526020016000206040518060400160405290816000820180546120fd906147de565b80601f0160208091040260200160405190810160405280929190818152602001828054612129906147de565b80156121765780601f1061214b57610100808354040283529160200191612176565b820191906000526020600020905b81548152906001019060200180831161215957829003601f168201915b5050505050815260200160018201805461218f906147de565b80601f01602080910402602001604051908101604052809291908181526020018280546121bb906147de565b80156122085780601f106121dd57610100808354040283529160200191612208565b820191906000526020600020905b8154815290600101906020018083116121eb57829003601f168201915b505050505081525050613097565b866000015161223457604051806020016040528060008152506123ac565b6123ab600a6000886004612248919061463c565b60ff1660ff16815260200190815260200160002060008960a0015160ff1660ff168152602001908152602001600020604051806040016040529081600082018054612292906147de565b80601f01602080910402602001604051908101604052809291908181526020018280546122be906147de565b801561230b5780601f106122e05761010080835404028352916020019161230b565b820191906000526020600020905b8154815290600101906020018083116122ee57829003601f168201915b50505050508152602001600182018054612324906147de565b80601f0160208091040260200160405190810160405280929190818152602001828054612350906147de565b801561239d5780601f106123725761010080835404028352916020019161239d565b820191906000526020600020905b81548152906001019060200180831161238057829003601f168201915b505050505081525050613097565b5b612523600a60008960056123c0919061463c565b60ff1660ff16815260200190815260200160002060008a60c0015160ff1660ff16815260200190815260200160002060405180604001604052908160008201805461240a906147de565b80601f0160208091040260200160405190810160405280929190818152602001828054612436906147de565b80156124835780601f1061245857610100808354040283529160200191612483565b820191906000526020600020905b81548152906001019060200180831161246657829003601f168201915b5050505050815260200160018201805461249c906147de565b80601f01602080910402602001604051908101604052809291908181526020018280546124c8906147de565b80156125155780601f106124ea57610100808354040283529160200191612515565b820191906000526020600020905b8154815290600101906020018083116124f857829003601f168201915b505050505081525050613097565b88600001516126a8576126a3600a60008a6006612540919061463c565b60ff1660ff16815260200190815260200160002060008b60e0015160ff1660ff16815260200190815260200160002060405180604001604052908160008201805461258a906147de565b80601f01602080910402602001604051908101604052809291908181526020018280546125b6906147de565b80156126035780601f106125d857610100808354040283529160200191612603565b820191906000526020600020905b8154815290600101906020018083116125e657829003601f168201915b5050505050815260200160018201805461261c906147de565b80601f0160208091040260200160405190810160405280929190818152602001828054612648906147de565b80156126955780601f1061266a57610100808354040283529160200191612695565b820191906000526020600020905b81548152906001019060200180831161267857829003601f168201915b505050505081525050613097565b6126b9565b604051806020016040528060008152505b89600001516126d75760405180602001604052806000815250612850565b61284f600a60008b60076126eb919061463c565b60ff1660ff16815260200190815260200160002060008c610100015160ff1660ff168152602001908152602001600020604051806040016040529081600082018054612736906147de565b80601f0160208091040260200160405190810160405280929190818152602001828054612762906147de565b80156127af5780601f10612784576101008083540402835291602001916127af565b820191906000526020600020905b81548152906001019060200180831161279257829003601f168201915b505050505081526020016001820180546127c8906147de565b80601f01602080910402602001604051908101604052809291908181526020018280546127f4906147de565b80156128415780601f1061281657610100808354040283529160200191612841565b820191906000526020600020905b81548152906001019060200180831161282457829003601f168201915b505050505081525050613097565b5b6040516020016128679897969594939291906140c3565b6040516020818303038152906040529050806040516020016128899190614281565b6040516020818303038152906040529350505050919050565b60008060009054906101000a900473ffffffffffffffffffffffffffffffffffffffff16905090565b600a602052816000526040600020602052806000526040600020600091509150508060000180546128fb906147de565b80601f0160208091040260200160405190810160405280929190818152602001828054612927906147de565b80156129745780601f1061294957610100808354040283529160200191612974565b820191906000526020600020905b81548152906001019060200180831161295757829003601f168201915b505050505090806001018054612989906147de565b80601f01602080910402602001604051908101604052809291908181526020018280546129b5906147de565b8015612a025780601f106129d757610100808354040283529160200191612a02565b820191906000526020600020905b8154815290600101906020018083116129e557829003601f168201915b5050505050905082565b60606000600f60009054906101000a900473ffffffffffffffffffffffffffffffffffffffff1673ffffffffffffffffffffffffffffffffffffffff166394e56847846040518263ffffffff1660e01b8152600401612a6b91906144f8565b6101406040518083038186803b158015612a8457600080fd5b505afa158015612a98573d6000803e3d6000fd5b505050506040513d601f19601f82011682018060405250810190612abc91906136ec565b905060008160000151612b04576040518060400160405280600681526020017f576f6c6620230000000000000000000000000000000000000000000000000000815250612b3b565b6040518060400160405280600781526020017f53686565702023000000000000000000000000000000000000000000000000008152505b612b44856130c4565b612b55612b50876119c9565b613271565b612b5e87610224565b604051602001612b71949392919061437d565b6040516020818303038152906040529050612b8b81613271565b604051602001612b9b91906143e7565b60405160208183030381529060405292505050919050565b612bbb612fcb565b73ffffffffffffffffffffffffffffffffffffffff16612bd96128a2565b73ffffffffffffffffffffffffffffffffffffffff1614612c2f576040517f08c379a0000000000000000000000000000000000000000000000000000000008152600401612c26906144d8565b60405180910390fd5b818190508484905014612c77576040517f08c379a0000000000000000000000000000000000000000000000000000000008152600401612c6e906144b8565b60405180910390fd5b60005b82829050811015612e9f576040518060400160405280848484818110612cc9577f4e487b7100000000000000000000000000000000000000000000000000000000600052603260045260246000fd5b9050602002810190612cdb919061456a565b8060000190612cea9190614513565b8080601f016020809104026020016040519081016040528093929190818152602001838380828437600081840152601f19601f820116905080830192505050505050508152602001848484818110612d6b577f4e487b7100000000000000000000000000000000000000000000000000000000600052603260045260246000fd5b9050602002810190612d7d919061456a565b8060200190612d8c9190614513565b8080601f016020809104026020016040519081016040528093929190818152602001838380828437600081840152601f19601f82011690508083019250505050505050815250600a60008860ff1660ff1681526020019081526020016000206000878785818110612e26577f4e487b7100000000000000000000000000000000000000000000000000000000600052603260045260246000fd5b9050602002016020810190612e3b9190613768565b60ff1660ff1681526020019081526020016000206000820151816000019080519060200190612e6b92919061341c565b506020820151816001019080519060200190612e8892919061341c565b509050508080612e9790614810565b915050612c7a565b505050505050565b612eaf612fcb565b73ffffffffffffffffffffffffffffffffffffffff16612ecd6128a2565b73ffffffffffffffffffffffffffffffffffffffff1614612f23576040517f08c379a0000000000000000000000000000000000000000000000000000000008152600401612f1a906144d8565b60405180910390fd5b600073ffffffffffffffffffffffffffffffffffffffff168173ffffffffffffffffffffffffffffffffffffffff161415612f93576040517f08c379a0000000000000000000000000000000000000000000000000000000008152600401612f8a90614498565b60405180910390fd5b612f9c81612fd3565b50565b60608282604051602001612fb49291906142db565b604051602081830303815290604052905092915050565b600033905090565b60008060009054906101000a900473ffffffffffffffffffffffffffffffffffffffff169050816000806101000a81548173ffffffffffffffffffffffffffffffffffffffff021916908373ffffffffffffffffffffffffffffffffffffffff1602179055508173ffffffffffffffffffffffffffffffffffffffff168173ffffffffffffffffffffffffffffffffffffffff167f8be0079c531659141344cd1fd0a4f28419497f9722a3daafe3b4186f6b6457e060405160405180910390a35050565b606081602001516040516020016130ae91906142ae565b6040516020818303038152906040529050919050565b6060600082141561310c576040518060400160405280600181526020017f3000000000000000000000000000000000000000000000000000000000000000815250905061326c565b600082905060005b6000821461313e57808061312790614810565b915050600a826131379190614673565b9150613114565b60008167ffffffffffffffff811115613180577f4e487b7100000000000000000000000000000000000000000000000000000000600052604160045260246000fd5b6040519080825280601f01601f1916602001820160405280156131b25781602001600182028036833780820191505090505b5090505b60008514613265576001826131cb91906146fe565b9150600a856131da9190614859565b60306131e691906145e6565b60f81b818381518110613222577f4e487b7100000000000000000000000000000000000000000000000000000000600052603260045260246000fd5b60200101907effffffffffffffffffffffffffffffffffffffffffffffffffffffffffffff1916908160001a905350600a8561325e9190614673565b94506131b6565b8093505050505b919050565b606060008251141561329457604051806020016040528060008152509050613417565b60006040518060600160405280604081526020016149b460409139905060006003600285516132c391906145e6565b6132cd9190614673565b60046132d991906146a4565b905060006020826132ea91906145e6565b67ffffffffffffffff811115613329577f4e487b7100000000000000000000000000000000000000000000000000000000600052604160045260246000fd5b6040519080825280601f01601f19166020018201604052801561335b5781602001600182028036833780820191505090505b509050818152600183018586518101602084015b818310156133d6576003830192508251603f8160121c1685015160f81b8252600182019150603f81600c1c1685015160f81b8252600182019150603f8160061c1685015160f81b8252600182019150603f811685015160f81b82526001820191505061336f565b6003895106600181146133f057600281146134005761340b565b613d3d60f01b600283035261340b565b603d60f81b60018303525b50505050508093505050505b919050565b828054613428906147de565b90600052602060002090601f01602090048101928261344a5760008555613491565b82601f1061346357805160ff1916838001178555613491565b82800160010185558215613491579182015b82811115613490578251825591602001919060010190613475565b5b50905061349e91906134a2565b5090565b5b808211156134bb5760008160009055506001016134a3565b5090565b6000813590506134ce81614957565b92915050565b60008083601f8401126134e657600080fd5b8235905067ffffffffffffffff8111156134ff57600080fd5b60208301915083602082028301111561351757600080fd5b9250929050565b60008083601f84011261353057600080fd5b8235905067ffffffffffffffff81111561354957600080fd5b60208301915083602082028301111561356157600080fd5b9250929050565b6000815190506135778161496e565b92915050565b6000610140828403121561359057600080fd5b61359b61014061458e565b905060006135ab84828501613568565b60008301525060206135bf848285016136ae565b60208301525060406135d3848285016136ae565b60408301525060606135e7848285016136ae565b60608301525060806135fb848285016136ae565b60808301525060a061360f848285016136ae565b60a08301525060c0613623848285016136ae565b60c08301525060e0613637848285016136ae565b60e08301525061010061364c848285016136ae565b61010083015250610120613662848285016136ae565b6101208301525092915050565b60008135905061367e81614985565b92915050565b60008151905061369381614985565b92915050565b6000813590506136a88161499c565b92915050565b6000815190506136bd8161499c565b92915050565b6000602082840312156136d557600080fd5b60006136e3848285016134bf565b91505092915050565b600061014082840312156136ff57600080fd5b600061370d8482850161357d565b91505092915050565b60006020828403121561372857600080fd5b60006137368482850161366f565b91505092915050565b60006020828403121561375157600080fd5b600061375f84828501613684565b91505092915050565b60006020828403121561377a57600080fd5b600061378884828501613699565b91505092915050565b6000806000806000606086880312156137a957600080fd5b60006137b788828901613699565b955050602086013567ffffffffffffffff8111156137d457600080fd5b6137e08882890161351e565b9450945050604086013567ffffffffffffffff8111156137ff57600080fd5b61380b888289016134d4565b92509250509295509295909350565b6000806040838503121561382d57600080fd5b600061383b85828601613699565b925050602061384c85828601613699565b9150509250929050565b61385f81614732565b82525050565b61386e81614787565b82525050565b600061387f826145bf565b61388981856145ca565b93506138998185602086016147ab565b6138a281614946565b840191505092915050565b60006138b8826145bf565b6138c281856145db565b93506138d28185602086016147ab565b80840191505092915050565b60006138eb609b836145db565b91507f3c7376672069643d22776f6f6c66222077696474683d2231303025222068656960008301527f6768743d2231303025222076657273696f6e3d22312e31222076696577426f7860208301527f3d223020302034302034302220786d6c6e733d22687474703a2f2f7777772e7760408301527f332e6f72672f323030302f7376672220786d6c6e733a786c696e6b3d2268747460608301527f703a2f2f7777772e77332e6f72672f313939392f786c696e6b223e00000000006080830152609b82019050919050565b60006139c36087836145db565b91507f3c696d61676520783d22342220793d2234222077696474683d2233322220686560008301527f696768743d2233322220696d6167652d72656e646572696e673d22706978656c60208301527f6174656422207072657365727665417370656374526174696f3d22784d69645960408301527f4d69642220786c696e6b3a687265663d22646174613a696d6167652f706e673b60608301527f6261736536342c000000000000000000000000000000000000000000000000006080830152608782019050919050565b6000613a9b6026836145ca565b91507f4f776e61626c653a206e6577206f776e657220697320746865207a65726f206160008301527f64647265737300000000000000000000000000000000000000000000000000006020830152604082019050919050565b6000613b016001836145db565b91507f2c000000000000000000000000000000000000000000000000000000000000006000830152600182019050919050565b6000613b41600f836145db565b91507f7b2274726169745f74797065223a2200000000000000000000000000000000006000830152600f82019050919050565b6000613b816002836145db565b91507f7d5d0000000000000000000000000000000000000000000000000000000000006000830152600282019050919050565b6000613bc2610129836145db565b91507f222c20226465736372697074696f6e223a202254686f7573616e6473206f662060008301527f536865657020616e6420576f6c76657320636f6d70657465206f6e206120666160208301527f726d20696e20746865206d65746176657273652e20412074656d7074696e672060408301527f7072697a65206f662024574f4f4c206177616974732c2077697468206465616460608301527f6c792068696768207374616b65732e20416c6c20746865206d6574616461746160808301527f20616e6420696d61676573206172652067656e65726174656420616e6420737460a08301527f6f7265642031303025206f6e2d636861696e2e204e6f20495046532e204e4f2060c08301527f4150492e204a7573742074686520457468657265756d20626c6f636b6368616960e08301527f6e2e222c2022696d616765223a2022646174613a696d6167652f7376672b786d6101008301527f6c3b6261736536342c000000000000000000000000000000000000000000000061012083015261012982019050919050565b6000613d5b6011836145ca565b91507f4d69736d61746368656420696e707574730000000000000000000000000000006000830152602082019050919050565b6000613d9b6002836145db565b91507f227d0000000000000000000000000000000000000000000000000000000000006000830152600282019050919050565b6000613ddb6010836145db565b91507f222c202261747472696275746573223a000000000000000000000000000000006000830152601082019050919050565b6000613e1b6001836145db565b91507f7d000000000000000000000000000000000000000000000000000000000000006000830152600182019050919050565b6000613e5b601f836145db565b91507f7d2c7b2274726169745f74797065223a2254797065222c2276616c7565223a006000830152601f82019050919050565b6000613e9b6020836145ca565b91507f4f776e61626c653a2063616c6c6572206973206e6f7420746865206f776e65726000830152602082019050919050565b6000613edb6001836145db565b91507f5b000000000000000000000000000000000000000000000000000000000000006000830152600182019050919050565b6000613f1b600a836145db565b91507f7b226e616d65223a2022000000000000000000000000000000000000000000006000830152600a82019050919050565b6000613f5b600b836145db565b91507f222c2276616c7565223a220000000000000000000000000000000000000000006000830152600b82019050919050565b6000613f9b6003836145db565b91507f222f3e00000000000000000000000000000000000000000000000000000000006000830152600382019050919050565b6000613fdb601d836145db565b91507f646174613a6170706c69636174696f6e2f6a736f6e3b6261736536342c0000006000830152601d82019050919050565b600061401b6023836145db565b91507f7b2274726169745f74797065223a2247656e65726174696f6e222c2276616c7560008301527f65223a00000000000000000000000000000000000000000000000000000000006020830152602382019050919050565b60006140816006836145db565b91507f3c2f7376673e00000000000000000000000000000000000000000000000000006000830152600682019050919050565b6140bd81614770565b82525050565b60006140cf828b6138ad565b91506140db828a6138ad565b91506140e782896138ad565b91506140f382886138ad565b91506140ff82876138ad565b915061410b82866138ad565b915061411782856138ad565b915061412382846138ad565b91508190509998505050505050505050565b600061414182896138ad565b915061414c82613af4565b915061415882886138ad565b915061416382613af4565b915061416f82876138ad565b915061417a82613af4565b915061418682866138ad565b915061419182613af4565b915061419d82856138ad565b91506141a882613af4565b91506141b482846138ad565b91506141bf82613af4565b9150819050979650505050505050565b60006141db828a6138ad565b91506141e682613af4565b91506141f282896138ad565b91506141fd82613af4565b915061420982886138ad565b915061421482613af4565b915061422082876138ad565b915061422b82613af4565b915061423782866138ad565b915061424282613af4565b915061424e82856138ad565b915061425982613af4565b915061426582846138ad565b915061427082613af4565b915081905098975050505050505050565b600061428c826138de565b915061429882846138ad565b91506142a382614074565b915081905092915050565b60006142b9826139b6565b91506142c582846138ad565b91506142d082613f8e565b915081905092915050565b60006142e682613b34565b91506142f282856138ad565b91506142fd82613f4e565b915061430982846138ad565b915061431482613d8e565b91508190509392505050565b600061432b82613ece565b915061433782866138ad565b91506143428261400e565b915061434e82856138ad565b915061435982613e4e565b915061436582846138ad565b915061437082613b74565b9150819050949350505050565b600061438882613f0e565b915061439482876138ad565b91506143a082866138ad565b91506143ab82613bb4565b91506143b782856138ad565b91506143c282613dce565b91506143ce82846138ad565b91506143d982613e0e565b915081905095945050505050565b60006143f282613fce565b91506143fe82846138ad565b915081905092915050565b600060208201905061441e6000830184613856565b92915050565b60006020820190506144396000830184613865565b92915050565b600060208201905081810360008301526144598184613874565b905092915050565b6000604082019050818103600083015261447b8185613874565b9050818103602083015261448f8184613874565b90509392505050565b600060208201905081810360008301526144b181613a8e565b9050919050565b600060208201905081810360008301526144d181613d4e565b9050919050565b600060208201905081810360008301526144f181613e8e565b9050919050565b600060208201905061450d60008301846140b4565b92915050565b6000808335600160200384360303811261452c57600080fd5b80840192508235915067ffffffffffffffff82111561454a57600080fd5b60208301925060018202360383131561456257600080fd5b509250929050565b60008235600160400383360303811261458257600080fd5b80830191505092915050565b6000604051905081810181811067ffffffffffffffff821117156145b5576145b4614917565b5b8060405250919050565b600081519050919050565b600082825260208201905092915050565b600081905092915050565b60006145f182614770565b91506145fc83614770565b9250827fffffffffffffffffffffffffffffffffffffffffffffffffffffffffffffffff038211156146315761463061488a565b5b828201905092915050565b60006146478261477a565b91506146528361477a565b92508260ff038211156146685761466761488a565b5b828201905092915050565b600061467e82614770565b915061468983614770565b925082614699576146986148b9565b5b828204905092915050565b60006146af82614770565b91506146ba83614770565b9250817fffffffffffffffffffffffffffffffffffffffffffffffffffffffffffffffff04831182151516156146f3576146f261488a565b5b828202905092915050565b600061470982614770565b915061471483614770565b9250828210156147275761472661488a565b5b828203905092915050565b600061473d82614750565b9050919050565b60008115159050919050565b600073ffffffffffffffffffffffffffffffffffffffff82169050919050565b6000819050919050565b600060ff82169050919050565b600061479282614799565b9050919050565b60006147a482614750565b9050919050565b60005b838110156147c95780820151818401526020810190506147ae565b838111156147d8576000848401525b50505050565b600060028204905060018216806147f657607f821691505b6020821081141561480a576148096148e8565b5b50919050565b600061481b82614770565b91507fffffffffffffffffffffffffffffffffffffffffffffffffffffffffffffffff82141561484e5761484d61488a565b5b600182019050919050565b600061486482614770565b915061486f83614770565b92508261487f5761487e6148b9565b5b828206905092915050565b7f4e487b7100000000000000000000000000000000000000000000000000000000600052601160045260246000fd5b7f4e487b7100000000000000000000000000000000000000000000000000000000600052601260045260246000fd5b7f4e487b7100000000000000000000000000000000000000000000000000000000600052602260045260246000fd5b7f4e487b7100000000000000000000000000000000000000000000000000000000600052604160045260246000fd5b6000601f19601f8301169050919050565b61496081614732565b811461496b57600080fd5b50565b61497781614744565b811461498257600080fd5b50565b61498e81614770565b811461499957600080fd5b50565b6149a58161477a565b81146149b057600080fd5b5056fe4142434445464748494a4b4c4d4e4f505152535455565758595a6162636465666768696a6b6c6d6e6f707172737475767778797a303132333435363738392b2fa2646970667358221220897242a450bab3b71688aa149763824c475cb71d8012fedab7b1f2ffcffb978264736f6c63430008000033",
  "immutableReferences": {},
  "source": "// SPDX-License-Identifier: MIT LICENSE\n\npragma solidity ^0.8.0;\nimport \"./Ownable.sol\";\nimport \"./Strings.sol\";\nimport \"./ITraits.sol\";\nimport \"./IWoolf.sol\";\n\ncontract Traits is Ownable, ITraits {\n\n  using Strings for uint256;\n\n  // struct to store each trait's data for metadata and rendering\n  struct Trait {\n    string name;\n    string png;\n  }\n\n  // mapping from trait type (index) to its name\n  string[9] _traitTypes = [\n    \"Fur\",\n    \"Head\",\n    \"Ears\",\n    \"Eyes\",\n    \"Nose\",\n    \"Mouth\",\n    \"Neck\",\n    \"Feet\",\n    \"Alpha\"\n  ];\n  // storage of each traits name and base64 PNG data\n  mapping(uint8 => mapping(uint8 => Trait)) public traitData;\n  // mapping from alphaIndex to its score\n  string[4] _alphas = [\n    \"8\",\n    \"7\",\n    \"6\",\n    \"5\"\n  ];\n\n  IWoolf public woolf;\n\n  constructor() {}\n\n  /** ADMIN */\n\n  function setWoolf(address _woolf) external onlyOwner {\n    woolf = IWoolf(_woolf);\n  }\n\n  /**\n   * administrative to upload the names and images associated with each trait\n   * @param traitType the trait type to upload the traits for (see traitTypes for a mapping)\n   * @param traits the names and base64 encoded PNGs for each trait\n   */\n  function uploadTraits(uint8 traitType, uint8[] calldata traitIds, Trait[] calldata traits) external onlyOwner {\n    require(traitIds.length == traits.length, \"Mismatched inputs\");\n    for (uint i = 0; i < traits.length; i++) {\n      traitData[traitType][traitIds[i]] = Trait(\n        traits[i].name,\n        traits[i].png\n      );\n    }\n  }\n\n  /** RENDER */\n\n  /**\n   * generates an <image> element using base64 encoded PNGs\n   * @param trait the trait storing the PNG data\n   * @return the <image> element\n   */\n  function drawTrait(Trait memory trait) internal pure returns (string memory) {\n    return string(abi.encodePacked(\n      '<image x=\"4\" y=\"4\" width=\"32\" height=\"32\" image-rendering=\"pixelated\" preserveAspectRatio=\"xMidYMid\" xlink:href=\"data:image/png;base64,',\n      trait.png,\n      '\"/>'\n    ));\n  }\n\n  /**\n   * generates an entire SVG by composing multiple <image> elements of PNGs\n   * @param tokenId the ID of the token to generate an SVG for\n   * @return a valid SVG of the Sheep / Wolf\n   */\n  function drawSVG(uint256 tokenId) public view returns (string memory) {\n    IWoolf.SheepWolf memory s = woolf.getTokenTraits(tokenId);\n    uint8 shift = s.isSheep ? 0 : 9;\n\n    string memory svgString = string(abi.encodePacked(\n      drawTrait(traitData[0 + shift][s.fur]),\n      s.isSheep ? drawTrait(traitData[1 + shift][s.head]) : drawTrait(traitData[1 + shift][s.alphaIndex]),\n      s.isSheep ? drawTrait(traitData[2 + shift][s.ears]) : '',\n      drawTrait(traitData[3 + shift][s.eyes]),\n      s.isSheep ? drawTrait(traitData[4 + shift][s.nose]) : '',\n      drawTrait(traitData[5 + shift][s.mouth]),\n      s.isSheep ? '' : drawTrait(traitData[6 + shift][s.neck]),\n      s.isSheep ? drawTrait(traitData[7 + shift][s.feet]) : ''\n    ));\n\n    return string(abi.encodePacked(\n      '<svg id=\"woolf\" width=\"100%\" height=\"100%\" version=\"1.1\" viewBox=\"0 0 40 40\" xmlns=\"http://www.w3.org/2000/svg\" xmlns:xlink=\"http://www.w3.org/1999/xlink\">',\n      svgString,\n      \"</svg>\"\n    ));\n  }\n\n  /**\n   * generates an attribute for the attributes array in the ERC721 metadata standard\n   * @param traitType the trait type to reference as the metadata key\n   * @param value the token's trait associated with the key\n   * @return a JSON dictionary for the single attribute\n   */\n  function attributeForTypeAndValue(string memory traitType, string memory value) internal pure returns (string memory) {\n    return string(abi.encodePacked(\n      '{\"trait_type\":\"',\n      traitType,\n      '\",\"value\":\"',\n      value,\n      '\"}'\n    ));\n  }\n\n  /**\n   * generates an array composed of all the individual traits and values\n   * @param tokenId the ID of the token to compose the metadata for\n   * @return a JSON array of all of the attributes for given token ID\n   */\n  function compileAttributes(uint256 tokenId) public view returns (string memory) {\n    IWoolf.SheepWolf memory s = woolf.getTokenTraits(tokenId);\n    string memory traits;\n    if (s.isSheep) {\n      traits = string(abi.encodePacked(\n        attributeForTypeAndValue(_traitTypes[0], traitData[0][s.fur].name),',',\n        attributeForTypeAndValue(_traitTypes[1], traitData[1][s.head].name),',',\n        attributeForTypeAndValue(_traitTypes[2], traitData[2][s.ears].name),',',\n        attributeForTypeAndValue(_traitTypes[3], traitData[3][s.eyes].name),',',\n        attributeForTypeAndValue(_traitTypes[4], traitData[4][s.nose].name),',',\n        attributeForTypeAndValue(_traitTypes[5], traitData[5][s.mouth].name),',',\n        attributeForTypeAndValue(_traitTypes[7], traitData[7][s.feet].name),','\n      ));\n    } else {\n      traits = string(abi.encodePacked(\n        attributeForTypeAndValue(_traitTypes[0], traitData[9][s.fur].name),',',\n        attributeForTypeAndValue(_traitTypes[1], traitData[10][s.alphaIndex].name),',',\n        attributeForTypeAndValue(_traitTypes[3], traitData[12][s.eyes].name),',',\n        attributeForTypeAndValue(_traitTypes[5], traitData[14][s.mouth].name),',',\n        attributeForTypeAndValue(_traitTypes[6], traitData[15][s.neck].name),',',\n        attributeForTypeAndValue(\"Alpha Score\", _alphas[s.alphaIndex]),','\n      ));\n    }\n    return string(abi.encodePacked(\n      '[',\n      traits,\n      '{\"trait_type\":\"Generation\",\"value\":',\n      tokenId <= woolf.getPaidTokens() ? '\"Gen 0\"' : '\"Gen 1\"',\n      '},{\"trait_type\":\"Type\",\"value\":',\n      s.isSheep ? '\"Sheep\"' : '\"Wolf\"',\n      '}]'\n    ));\n  }\n\n  /**\n   * generates a base64 encoded metadata response without referencing off-chain content\n   * @param tokenId the ID of the token to generate the metadata for\n   * @return a base64 encoded JSON dictionary of the token's metadata and SVG\n   */\n  function tokenURI(uint256 tokenId) public view override returns (string memory) {\n    IWoolf.SheepWolf memory s = woolf.getTokenTraits(tokenId);\n\n    string memory metadata = string(abi.encodePacked(\n      '{\"name\": \"',\n      s.isSheep ? 'Sheep #' : 'Wolf #',\n      tokenId.toString(),\n      '\", \"description\": \"Thousands of Sheep and Wolves compete on a farm in the metaverse. A tempting prize of $WOOL awaits, with deadly high stakes. All the metadata and images are generated and stored 100% on-chain. No IPFS. NO API. Just the Ethereum blockchain.\", \"image\": \"data:image/svg+xml;base64,',\n      base64(bytes(drawSVG(tokenId))),\n      '\", \"attributes\":',\n      compileAttributes(tokenId),\n      \"}\"\n    ));\n\n    return string(abi.encodePacked(\n      \"data:application/json;base64,\",\n      base64(bytes(metadata))\n    ));\n  }\n\n  \n  string internal constant TABLE = 'ABCDEFGHIJKLMNOPQRSTUVWXYZabcdefghijklmnopqrstuvwxyz0123456789+/';\n\n  function base64(bytes memory data) internal pure returns (string memory) {\n    if (data.length == 0) return '';\n    \n    // load the table into memory\n    string memory table = TABLE;\n\n    // multiply by 4/3 rounded up\n    uint256 encodedLen = 4 * ((data.length + 2) / 3);\n\n    // add some extra buffer at the end required for the writing\n    string memory result = new string(encodedLen + 32);\n\n    assembly {\n      // set the actual output length\n      mstore(result, encodedLen)\n      \n      // prepare the lookup table\n      let tablePtr := add(table, 1)\n      \n      // input ptr\n      let dataPtr := data\n      let endPtr := add(dataPtr, mload(data))\n      \n      // result ptr, jump over length\n      let resultPtr := add(result, 32)\n      \n      // run over the input, 3 bytes at a time\n      for {} lt(dataPtr, endPtr) {}\n      {\n          dataPtr := add(dataPtr, 3)\n          \n          // read 3 bytes\n          let input := mload(dataPtr)\n          \n          // write 4 characters\n          mstore(resultPtr, shl(248, mload(add(tablePtr, and(shr(18, input), 0x3F)))))\n          resultPtr := add(resultPtr, 1)\n          mstore(resultPtr, shl(248, mload(add(tablePtr, and(shr(12, input), 0x3F)))))\n          resultPtr := add(resultPtr, 1)\n          mstore(resultPtr, shl(248, mload(add(tablePtr, and(shr( 6, input), 0x3F)))))\n          resultPtr := add(resultPtr, 1)\n          mstore(resultPtr, shl(248, mload(add(tablePtr, and(        input,  0x3F)))))\n          resultPtr := add(resultPtr, 1)\n      }\n      \n      // padding with '='\n      switch mod(mload(data), 3)\n      case 1 { mstore(sub(resultPtr, 2), shl(240, 0x3d3d)) }\n      case 2 { mstore(sub(resultPtr, 1), shl(248, 0x3d)) }\n    }\n    \n    return result;\n  }\n}\n",
  "sourcePath": "/home/silas/ftmwolf/contracts/Traits.sol",
  "compiler": {
    "name": "solc",
    "version": "0.8.0+commit.c7dfd78e.Emscripten.clang"
  },
  "schemaVersion": "3.3.4",
  "updatedAt": "2022-01-06T02:56:57.713Z",
  "networkType": "ethereum",
  "devdoc": {
    "kind": "dev",
    "methods": {
      "compileAttributes(uint256)": {
        "params": {
          "tokenId": "the ID of the token to compose the metadata for"
        },
        "returns": {
          "_0": "a JSON array of all of the attributes for given token ID"
        }
      },
      "drawSVG(uint256)": {
        "params": {
          "tokenId": "the ID of the token to generate an SVG for"
        },
        "returns": {
          "_0": "a valid SVG of the Sheep / Wolf"
        }
      },
      "owner()": {
        "details": "Returns the address of the current owner."
      },
      "renounceOwnership()": {
        "details": "Leaves the contract without owner. It will not be possible to call `onlyOwner` functions anymore. Can only be called by the current owner. NOTE: Renouncing ownership will leave the contract without an owner, thereby removing any functionality that is only available to the owner."
      },
      "tokenURI(uint256)": {
        "params": {
          "tokenId": "the ID of the token to generate the metadata for"
        },
        "returns": {
          "_0": "a base64 encoded JSON dictionary of the token's metadata and SVG"
        }
      },
      "transferOwnership(address)": {
        "details": "Transfers ownership of the contract to a new account (`newOwner`). Can only be called by the current owner."
      },
      "uploadTraits(uint8,uint8[],(string,string)[])": {
        "params": {
          "traitType": "the trait type to upload the traits for (see traitTypes for a mapping)",
          "traits": "the names and base64 encoded PNGs for each trait"
        }
      }
    },
    "version": 1
  },
  "userdoc": {
    "kind": "user",
    "methods": {
      "compileAttributes(uint256)": {
        "notice": "generates an array composed of all the individual traits and values"
      },
      "drawSVG(uint256)": {
        "notice": "generates an entire SVG by composing multiple <image> elements of PNGs"
      },
      "setWoolf(address)": {
        "notice": "ADMIN "
      },
      "tokenURI(uint256)": {
        "notice": "generates a base64 encoded metadata response without referencing off-chain content"
      },
      "uploadTraits(uint8,uint8[],(string,string)[])": {
        "notice": "administrative to upload the names and images associated with each trait"
      }
    },
    "version": 1
  }
}