{
  "contractName": "Woolf",
  "abi": [
    {
      "inputs": [
        {
          "internalType": "address",
          "name": "_wool",
          "type": "address"
        },
        {
          "internalType": "address",
          "name": "_traits",
          "type": "address"
        },
        {
          "internalType": "uint256",
          "name": "_maxTokens",
          "type": "uint256"
        }
      ],
      "stateMutability": "nonpayable",
      "type": "constructor"
    },
    {
      "anonymous": false,
      "inputs": [
        {
          "indexed": true,
          "internalType": "address",
          "name": "owner",
          "type": "address"
        },
        {
          "indexed": true,
          "internalType": "address",
          "name": "approved",
          "type": "address"
        },
        {
          "indexed": true,
          "internalType": "uint256",
          "name": "tokenId",
          "type": "uint256"
        }
      ],
      "name": "Approval",
      "type": "event"
    },
    {
      "anonymous": false,
      "inputs": [
        {
          "indexed": true,
          "internalType": "address",
          "name": "owner",
          "type": "address"
        },
        {
          "indexed": true,
          "internalType": "address",
          "name": "operator",
          "type": "address"
        },
        {
          "indexed": false,
          "internalType": "bool",
          "name": "approved",
          "type": "bool"
        }
      ],
      "name": "ApprovalForAll",
      "type": "event"
    },
    {
      "anonymous": false,
      "inputs": [
        {
          "indexed": true,
          "internalType": "address",
          "name": "previousOwner",
          "type": "address"
        },
        {
          "indexed": true,
          "internalType": "address",
          "name": "newOwner",
          "type": "address"
        }
      ],
      "name": "OwnershipTransferred",
      "type": "event"
    },
    {
      "anonymous": false,
      "inputs": [
        {
          "indexed": false,
          "internalType": "address",
          "name": "account",
          "type": "address"
        }
      ],
      "name": "Paused",
      "type": "event"
    },
    {
      "anonymous": false,
      "inputs": [
        {
          "indexed": true,
          "internalType": "address",
          "name": "from",
          "type": "address"
        },
        {
          "indexed": true,
          "internalType": "address",
          "name": "to",
          "type": "address"
        },
        {
          "indexed": true,
          "internalType": "uint256",
          "name": "tokenId",
          "type": "uint256"
        }
      ],
      "name": "Transfer",
      "type": "event"
    },
    {
      "anonymous": false,
      "inputs": [
        {
          "indexed": false,
          "internalType": "address",
          "name": "account",
          "type": "address"
        }
      ],
      "name": "Unpaused",
      "type": "event"
    },
    {
      "inputs": [],
      "name": "MAX_TOKENS",
      "outputs": [
        {
          "internalType": "uint256",
          "name": "",
          "type": "uint256"
        }
      ],
      "stateMutability": "view",
      "type": "function",
      "constant": true
    },
    {
      "inputs": [],
      "name": "MINT_PRICE",
      "outputs": [
        {
          "internalType": "uint256",
          "name": "",
          "type": "uint256"
        }
      ],
      "stateMutability": "view",
      "type": "function",
      "constant": true
    },
    {
      "inputs": [],
      "name": "PAID_TOKENS",
      "outputs": [
        {
          "internalType": "uint256",
          "name": "",
          "type": "uint256"
        }
      ],
      "stateMutability": "view",
      "type": "function",
      "constant": true
    },
    {
      "inputs": [
        {
          "internalType": "uint256",
          "name": "",
          "type": "uint256"
        },
        {
          "internalType": "uint256",
          "name": "",
          "type": "uint256"
        }
      ],
      "name": "aliases",
      "outputs": [
        {
          "internalType": "uint8",
          "name": "",
          "type": "uint8"
        }
      ],
      "stateMutability": "view",
      "type": "function",
      "constant": true
    },
    {
      "inputs": [
        {
          "internalType": "address",
          "name": "to",
          "type": "address"
        },
        {
          "internalType": "uint256",
          "name": "tokenId",
          "type": "uint256"
        }
      ],
      "name": "approve",
      "outputs": [],
      "stateMutability": "nonpayable",
      "type": "function"
    },
    {
      "inputs": [
        {
          "internalType": "address",
          "name": "owner",
          "type": "address"
        }
      ],
      "name": "balanceOf",
      "outputs": [
        {
          "internalType": "uint256",
          "name": "",
          "type": "uint256"
        }
      ],
      "stateMutability": "view",
      "type": "function",
      "constant": true
    },
    {
      "inputs": [],
      "name": "barn",
      "outputs": [
        {
          "internalType": "contract IBarn",
          "name": "",
          "type": "address"
        }
      ],
      "stateMutability": "view",
      "type": "function",
      "constant": true
    },
    {
      "inputs": [
        {
          "internalType": "uint256",
          "name": "",
          "type": "uint256"
        }
      ],
      "name": "existingCombinations",
      "outputs": [
        {
          "internalType": "uint256",
          "name": "",
          "type": "uint256"
        }
      ],
      "stateMutability": "view",
      "type": "function",
      "constant": true
    },
    {
      "inputs": [],
      "name": "feeWallet",
      "outputs": [
        {
          "internalType": "address",
          "name": "",
          "type": "address"
        }
      ],
      "stateMutability": "view",
      "type": "function",
      "constant": true
    },
    {
      "inputs": [
        {
          "internalType": "uint256",
          "name": "tokenId",
          "type": "uint256"
        }
      ],
      "name": "getApproved",
      "outputs": [
        {
          "internalType": "address",
          "name": "",
          "type": "address"
        }
      ],
      "stateMutability": "view",
      "type": "function",
      "constant": true
    },
    {
      "inputs": [
        {
          "internalType": "address",
          "name": "owner",
          "type": "address"
        },
        {
          "internalType": "address",
          "name": "operator",
          "type": "address"
        }
      ],
      "name": "isApprovedForAll",
      "outputs": [
        {
          "internalType": "bool",
          "name": "",
          "type": "bool"
        }
      ],
      "stateMutability": "view",
      "type": "function",
      "constant": true
    },
    {
      "inputs": [],
      "name": "minted",
      "outputs": [
        {
          "internalType": "uint16",
          "name": "",
          "type": "uint16"
        }
      ],
      "stateMutability": "view",
      "type": "function",
      "constant": true
    },
    {
      "inputs": [],
      "name": "name",
      "outputs": [
        {
          "internalType": "string",
          "name": "",
          "type": "string"
        }
      ],
      "stateMutability": "view",
      "type": "function",
      "constant": true
    },
    {
      "inputs": [],
      "name": "owner",
      "outputs": [
        {
          "internalType": "address",
          "name": "",
          "type": "address"
        }
      ],
      "stateMutability": "view",
      "type": "function",
      "constant": true
    },
    {
      "inputs": [
        {
          "internalType": "uint256",
          "name": "tokenId",
          "type": "uint256"
        }
      ],
      "name": "ownerOf",
      "outputs": [
        {
          "internalType": "address",
          "name": "",
          "type": "address"
        }
      ],
      "stateMutability": "view",
      "type": "function",
      "constant": true
    },
    {
      "inputs": [],
      "name": "paused",
      "outputs": [
        {
          "internalType": "bool",
          "name": "",
          "type": "bool"
        }
      ],
      "stateMutability": "view",
      "type": "function",
      "constant": true
    },
    {
      "inputs": [
        {
          "internalType": "uint256",
          "name": "",
          "type": "uint256"
        },
        {
          "internalType": "uint256",
          "name": "",
          "type": "uint256"
        }
      ],
      "name": "rarities",
      "outputs": [
        {
          "internalType": "uint8",
          "name": "",
          "type": "uint8"
        }
      ],
      "stateMutability": "view",
      "type": "function",
      "constant": true
    },
    {
      "inputs": [],
      "name": "renounceOwnership",
      "outputs": [],
      "stateMutability": "nonpayable",
      "type": "function"
    },
    {
      "inputs": [
        {
          "internalType": "address",
          "name": "from",
          "type": "address"
        },
        {
          "internalType": "address",
          "name": "to",
          "type": "address"
        },
        {
          "internalType": "uint256",
          "name": "tokenId",
          "type": "uint256"
        }
      ],
      "name": "safeTransferFrom",
      "outputs": [],
      "stateMutability": "nonpayable",
      "type": "function"
    },
    {
      "inputs": [
        {
          "internalType": "address",
          "name": "from",
          "type": "address"
        },
        {
          "internalType": "address",
          "name": "to",
          "type": "address"
        },
        {
          "internalType": "uint256",
          "name": "tokenId",
          "type": "uint256"
        },
        {
          "internalType": "bytes",
          "name": "_data",
          "type": "bytes"
        }
      ],
      "name": "safeTransferFrom",
      "outputs": [],
      "stateMutability": "nonpayable",
      "type": "function"
    },
    {
      "inputs": [
        {
          "internalType": "address",
          "name": "operator",
          "type": "address"
        },
        {
          "internalType": "bool",
          "name": "approved",
          "type": "bool"
        }
      ],
      "name": "setApprovalForAll",
      "outputs": [],
      "stateMutability": "nonpayable",
      "type": "function"
    },
    {
      "inputs": [
        {
          "internalType": "bytes4",
          "name": "interfaceId",
          "type": "bytes4"
        }
      ],
      "name": "supportsInterface",
      "outputs": [
        {
          "internalType": "bool",
          "name": "",
          "type": "bool"
        }
      ],
      "stateMutability": "view",
      "type": "function",
      "constant": true
    },
    {
      "inputs": [],
      "name": "symbol",
      "outputs": [
        {
          "internalType": "string",
          "name": "",
          "type": "string"
        }
      ],
      "stateMutability": "view",
      "type": "function",
      "constant": true
    },
    {
      "inputs": [
        {
          "internalType": "uint256",
          "name": "index",
          "type": "uint256"
        }
      ],
      "name": "tokenByIndex",
      "outputs": [
        {
          "internalType": "uint256",
          "name": "",
          "type": "uint256"
        }
      ],
      "stateMutability": "view",
      "type": "function",
      "constant": true
    },
    {
      "inputs": [
        {
          "internalType": "address",
          "name": "owner",
          "type": "address"
        },
        {
          "internalType": "uint256",
          "name": "index",
          "type": "uint256"
        }
      ],
      "name": "tokenOfOwnerByIndex",
      "outputs": [
        {
          "internalType": "uint256",
          "name": "",
          "type": "uint256"
        }
      ],
      "stateMutability": "view",
      "type": "function",
      "constant": true
    },
    {
      "inputs": [
        {
          "internalType": "uint256",
          "name": "",
          "type": "uint256"
        }
      ],
      "name": "tokenTraits",
      "outputs": [
        {
          "internalType": "bool",
          "name": "isSheep",
          "type": "bool"
        },
        {
          "internalType": "uint8",
          "name": "fur",
          "type": "uint8"
        },
        {
          "internalType": "uint8",
          "name": "head",
          "type": "uint8"
        },
        {
          "internalType": "uint8",
          "name": "ears",
          "type": "uint8"
        },
        {
          "internalType": "uint8",
          "name": "eyes",
          "type": "uint8"
        },
        {
          "internalType": "uint8",
          "name": "nose",
          "type": "uint8"
        },
        {
          "internalType": "uint8",
          "name": "mouth",
          "type": "uint8"
        },
        {
          "internalType": "uint8",
          "name": "neck",
          "type": "uint8"
        },
        {
          "internalType": "uint8",
          "name": "feet",
          "type": "uint8"
        },
        {
          "internalType": "uint8",
          "name": "alphaIndex",
          "type": "uint8"
        }
      ],
      "stateMutability": "view",
      "type": "function",
      "constant": true
    },
    {
      "inputs": [],
      "name": "totalSupply",
      "outputs": [
        {
          "internalType": "uint256",
          "name": "",
          "type": "uint256"
        }
      ],
      "stateMutability": "view",
      "type": "function",
      "constant": true
    },
    {
      "inputs": [],
      "name": "traits",
      "outputs": [
        {
          "internalType": "contract ITraits",
          "name": "",
          "type": "address"
        }
      ],
      "stateMutability": "view",
      "type": "function",
      "constant": true
    },
    {
      "inputs": [
        {
          "internalType": "address",
          "name": "newOwner",
          "type": "address"
        }
      ],
      "name": "transferOwnership",
      "outputs": [],
      "stateMutability": "nonpayable",
      "type": "function"
    },
    {
      "inputs": [],
      "name": "wool",
      "outputs": [
        {
          "internalType": "contract WOOL",
          "name": "",
          "type": "address"
        }
      ],
      "stateMutability": "view",
      "type": "function",
      "constant": true
    },
    {
      "inputs": [
        {
          "internalType": "uint256",
          "name": "amount",
          "type": "uint256"
        },
        {
          "internalType": "bool",
          "name": "stake",
          "type": "bool"
        }
      ],
      "name": "mint",
      "outputs": [],
      "stateMutability": "payable",
      "type": "function",
      "payable": true
    },
    {
      "inputs": [
        {
          "internalType": "uint256",
          "name": "tokenId",
          "type": "uint256"
        }
      ],
      "name": "mintCost",
      "outputs": [
        {
          "internalType": "uint256",
          "name": "",
          "type": "uint256"
        }
      ],
      "stateMutability": "view",
      "type": "function",
      "constant": true
    },
    {
      "inputs": [
        {
          "internalType": "address",
          "name": "from",
          "type": "address"
        },
        {
          "internalType": "address",
          "name": "to",
          "type": "address"
        },
        {
          "internalType": "uint256",
          "name": "tokenId",
          "type": "uint256"
        }
      ],
      "name": "transferFrom",
      "outputs": [],
      "stateMutability": "nonpayable",
      "type": "function"
    },
    {
      "inputs": [
        {
          "internalType": "uint256",
          "name": "tokenId",
          "type": "uint256"
        }
      ],
      "name": "getTokenTraits",
      "outputs": [
        {
          "components": [
            {
              "internalType": "bool",
              "name": "isSheep",
              "type": "bool"
            },
            {
              "internalType": "uint8",
              "name": "fur",
              "type": "uint8"
            },
            {
              "internalType": "uint8",
              "name": "head",
              "type": "uint8"
            },
            {
              "internalType": "uint8",
              "name": "ears",
              "type": "uint8"
            },
            {
              "internalType": "uint8",
              "name": "eyes",
              "type": "uint8"
            },
            {
              "internalType": "uint8",
              "name": "nose",
              "type": "uint8"
            },
            {
              "internalType": "uint8",
              "name": "mouth",
              "type": "uint8"
            },
            {
              "internalType": "uint8",
              "name": "neck",
              "type": "uint8"
            },
            {
              "internalType": "uint8",
              "name": "feet",
              "type": "uint8"
            },
            {
              "internalType": "uint8",
              "name": "alphaIndex",
              "type": "uint8"
            }
          ],
          "internalType": "struct IWoolf.SheepWolf",
          "name": "",
          "type": "tuple"
        }
      ],
      "stateMutability": "view",
      "type": "function",
      "constant": true
    },
    {
      "inputs": [],
      "name": "getPaidTokens",
      "outputs": [
        {
          "internalType": "uint256",
          "name": "",
          "type": "uint256"
        }
      ],
      "stateMutability": "view",
      "type": "function",
      "constant": true
    },
    {
      "inputs": [
        {
          "internalType": "address",
          "name": "_barn",
          "type": "address"
        }
      ],
      "name": "setBarn",
      "outputs": [],
      "stateMutability": "nonpayable",
      "type": "function"
    },
    {
      "inputs": [],
      "name": "withdraw",
      "outputs": [],
      "stateMutability": "nonpayable",
      "type": "function"
    },
    {
      "inputs": [
        {
          "internalType": "address",
          "name": "_feeWallet",
          "type": "address"
        }
      ],
      "name": "setFeeWallet",
      "outputs": [],
      "stateMutability": "nonpayable",
      "type": "function"
    },
    {
      "inputs": [
        {
          "internalType": "uint256",
          "name": "_paidTokens",
          "type": "uint256"
        }
      ],
      "name": "setPaidTokens",
      "outputs": [],
      "stateMutability": "nonpayable",
      "type": "function"
    },
    {
      "inputs": [
        {
          "internalType": "bool",
          "name": "_paused",
          "type": "bool"
        }
      ],
      "name": "setPaused",
      "outputs": [],
      "stateMutability": "nonpayable",
      "type": "function"
    },
    {
      "inputs": [
        {
          "internalType": "uint256",
          "name": "_price",
          "type": "uint256"
        }
      ],
      "name": "setMintPrice",
      "outputs": [],
      "stateMutability": "nonpayable",
      "type": "function"
    },
    {
      "inputs": [
        {
          "internalType": "uint256",
          "name": "tokenId",
          "type": "uint256"
        }
      ],
      "name": "tokenURI",
      "outputs": [
        {
          "internalType": "string",
          "name": "",
          "type": "string"
        }
      ],
      "stateMutability": "view",
      "type": "function",
      "constant": true
    }
  ],
  "bytecode": "0x60a0604052655af3107a4000600b55733a536a80b441a54766c5a3b1fc2758c08f482120600d60026101000a81548173ffffffffffffffffffffffffffffffffffffffff021916908373ffffffffffffffffffffffffffffffffffffffff1602179055503480156200007057600080fd5b50604051620082c8380380620082c88339818101604052810190620000969190620026be565b6040518060400160405280600981526020017f576f6c662047616d6500000000000000000000000000000000000000000000008152506040518060400160405280600581526020017f5747414d4500000000000000000000000000000000000000000000000000000081525081600090805190602001906200011a92919062001d0a565b5080600190805190602001906200013392919062001d0a565b505050620001566200014a62001c3c60201b60201c565b62001c4460201b60201c565b6000600a60146101000a81548160ff02191690831515021790555082603560006101000a81548173ffffffffffffffffffffffffffffffffffffffff021916908373ffffffffffffffffffffffffffffffffffffffff16021790555081603660006101000a81548173ffffffffffffffffffffffffffffffffffffffff021916908373ffffffffffffffffffffffffffffffffffffffff16021790555080608081815250506005816200020a919062002714565b600c819055506040518060a00160405280600f60ff168152602001603260ff16815260200160c860ff16815260200160fa60ff16815260200160ff8016815250601060006012811062000286577f4e487b7100000000000000000000000000000000000000000000000000000000600052603260045260246000fd5b019060056200029792919062001d9b565b506040518060a00160405280600460ff168152602001600460ff168152602001600460ff168152602001600460ff168152602001600460ff1681525060226000601281106200030f577f4e487b7100000000000000000000000000000000000000000000000000000000600052603260045260246000fd5b019060056200032092919062001d9b565b5060405180610280016040528060be60ff16815260200160d760ff16815260200160f060ff168152602001606460ff168152602001606e60ff168152602001608760ff16815260200160a060ff16815260200160b960ff168152602001605060ff16815260200160d260ff16815260200160eb60ff16815260200160f060ff168152602001605060ff168152602001605060ff168152602001606460ff168152602001606460ff168152602001606460ff16815260200160f560ff16815260200160fa60ff16815260200160ff801681525060106001601281106200042e577f4e487b7100000000000000000000000000000000000000000000000000000000600052603260045260246000fd5b019060146200043f92919062001e49565b50604051806102800160405280600160ff168152602001600260ff168152602001600460ff168152602001600060ff168152602001600560ff168152602001600660ff168152602001600760ff168152602001600960ff168152602001600060ff168152602001600a60ff168152602001600b60ff168152602001601160ff168152602001600060ff168152602001600060ff168152602001600060ff168152602001600060ff168152602001600460ff168152602001601260ff168152602001601360ff168152602001601360ff1681525060226001601281106200054e577f4e487b7100000000000000000000000000000000000000000000000000000000600052603260045260246000fd5b019060146200055f92919062001e49565b506040518060c0016040528060ff80168152602001601e60ff168152602001603c60ff168152602001603c60ff168152602001609660ff168152602001609c60ff168152506010600260128110620005e0577f4e487b7100000000000000000000000000000000000000000000000000000000600052603260045260246000fd5b01906006620005f192919062001ef7565b506040518060c00160405280600060ff168152602001600060ff168152602001600060ff168152602001600060ff168152602001600060ff168152602001600060ff16815250602260026012811062000673577f4e487b7100000000000000000000000000000000000000000000000000000000600052603260045260246000fd5b019060066200068492919062001ef7565b5060405180610380016040528060dd60ff168152602001606460ff16815260200160b560ff168152602001608c60ff16815260200160e060ff168152602001609360ff168152602001605460ff16815260200160e460ff168152602001608c60ff16815260200160e060ff16815260200160fa60ff16815260200160a060ff16815260200160f160ff16815260200160cf60ff16815260200160ad60ff168152602001605460ff16815260200160fe60ff16815260200160dc60ff16815260200160c460ff168152602001608c60ff16815260200160a860ff16815260200160fc60ff168152602001608c60ff16815260200160b760ff16815260200160ec60ff16815260200160fc60ff16815260200160e060ff16815260200160ff80168152506010600360128110620007e2577f4e487b7100000000000000000000000000000000000000000000000000000000600052603260045260246000fd5b0190601c620007f392919062001fa5565b50604051806103800160405280600160ff168152602001600260ff168152602001600560ff168152602001600060ff168152602001600160ff168152602001600760ff168152602001600160ff168152602001600a60ff168152602001600560ff168152602001600a60ff168152602001600b60ff168152602001600c60ff168152602001600d60ff168152602001600e60ff168152602001601060ff168152602001600b60ff168152602001601160ff168152602001601760ff168152602001600d60ff168152602001600e60ff168152602001601160ff168152602001601760ff168152602001601760ff168152602001601860ff168152602001601b60ff168152602001601b60ff168152602001601b60ff168152602001601b60ff16815250602260036012811062000952577f4e487b7100000000000000000000000000000000000000000000000000000000600052603260045260246000fd5b0190601c6200096392919062001fa5565b5060405180610140016040528060af60ff168152602001606460ff168152602001602860ff16815260200160fa60ff168152602001607360ff168152602001606460ff16815260200160b960ff16815260200160af60ff16815260200160b460ff16815260200160ff8016815250601060046012811062000a0d577f4e487b7100000000000000000000000000000000000000000000000000000000600052603260045260246000fd5b0190600a62000a1e92919062002053565b50604051806101400160405280600360ff168152602001600060ff168152602001600460ff168152602001600660ff168152602001600660ff168152602001600760ff168152602001600860ff168152602001600860ff168152602001600960ff168152602001600960ff16815250602260046012811062000ac9577f4e487b7100000000000000000000000000000000000000000000000000000000600052603260045260246000fd5b0190600a62000ada92919062002053565b50604051806102000160405280605060ff16815260200160e160ff16815260200160e360ff16815260200160e460ff168152602001607060ff16815260200160f060ff168152602001604060ff16815260200160a060ff16815260200160a760ff16815260200160d960ff16815260200160ab60ff168152602001604060ff16815260200160f060ff168152602001607e60ff168152602001605060ff16815260200160ff8016815250601060056012811062000bc0577f4e487b7100000000000000000000000000000000000000000000000000000000600052603260045260246000fd5b0190601062000bd192919062002101565b50604051806102000160405280600160ff168152602001600260ff168152602001600360ff168152602001600860ff168152602001600260ff168152602001600860ff168152602001600860ff168152602001600960ff168152602001600960ff168152602001600a60ff168152602001600d60ff168152602001600a60ff168152602001600d60ff168152602001600f60ff168152602001600d60ff168152602001600f60ff16815250602260056012811062000cb8577f4e487b7100000000000000000000000000000000000000000000000000000000600052603260045260246000fd5b0190601062000cc992919062002101565b50604051806020016040528060ff8016815250601060066012811062000d18577f4e487b7100000000000000000000000000000000000000000000000000000000600052603260045260246000fd5b0190600162000d29929190620021af565b506040518060200160405280600060ff16815250602260066012811062000d79577f4e487b7100000000000000000000000000000000000000000000000000000000600052603260045260246000fd5b0190600162000d8a929190620021af565b5060405180610260016040528060f360ff16815260200160bd60ff168152602001608560ff168152602001608560ff168152602001603960ff168152602001605f60ff168152602001609860ff168152602001608760ff168152602001608560ff168152602001603960ff16815260200160de60ff16815260200160a860ff168152602001603960ff168152602001603960ff168152602001602660ff168152602001607260ff168152602001607260ff168152602001607260ff16815260200160ff8016815250601060076012811062000e8e577f4e487b7100000000000000000000000000000000000000000000000000000000600052603260045260246000fd5b0190601362000e9f9291906200225d565b50604051806102600160405280600160ff168152602001600760ff168152602001600060ff168152602001600060ff168152602001600060ff168152602001600060ff168152602001600060ff168152602001600a60ff168152602001600060ff168152602001600060ff168152602001600b60ff168152602001601260ff168152602001600060ff168152602001600060ff168152602001600060ff168152602001600160ff168152602001600760ff168152602001600b60ff168152602001601260ff16815250602260076012811062000fa4577f4e487b7100000000000000000000000000000000000000000000000000000000600052603260045260246000fd5b0190601362000fb59291906200225d565b50604051806020016040528060ff8016815250601060086012811062001004577f4e487b7100000000000000000000000000000000000000000000000000000000600052603260045260246000fd5b0190600162001015929190620021af565b506040518060200160405280600060ff16815250602260086012811062001065577f4e487b7100000000000000000000000000000000000000000000000000000000600052603260045260246000fd5b0190600162001076929190620021af565b5060405180610120016040528060d260ff168152602001605a60ff168152602001600960ff168152602001600960ff168152602001600960ff168152602001609660ff168152602001600960ff16815260200160ff80168152602001600960ff16815250601060096012811062001116577f4e487b7100000000000000000000000000000000000000000000000000000000600052603260045260246000fd5b01906009620011279291906200230b565b50604051806101200160405280600560ff168152602001600060ff168152602001600060ff168152602001600560ff168152602001600560ff168152602001600760ff168152602001600560ff168152602001600760ff168152602001600560ff168152506022600960128110620011c8577f4e487b7100000000000000000000000000000000000000000000000000000000600052603260045260246000fd5b01906009620011d99291906200230b565b50604051806020016040528060ff80168152506010600a6012811062001228577f4e487b7100000000000000000000000000000000000000000000000000000000600052603260045260246000fd5b0190600162001239929190620021af565b506040518060200160405280600060ff168152506022600a6012811062001289577f4e487b7100000000000000000000000000000000000000000000000000000000600052603260045260246000fd5b019060016200129a929190620021af565b50604051806020016040528060ff80168152506010600b60128110620012e9577f4e487b7100000000000000000000000000000000000000000000000000000000600052603260045260246000fd5b01906001620012fa929190620021af565b506040518060200160405280600060ff168152506022600b601281106200134a577f4e487b7100000000000000000000000000000000000000000000000000000000600052603260045260246000fd5b019060016200135b929190620021af565b50604051806103600160405280608760ff16815260200160b160ff16815260200160db60ff168152602001608d60ff16815260200160b760ff16815260200160e160ff168152602001609360ff16815260200160bd60ff16815260200160e760ff168152602001608760ff168152602001608760ff168152602001608760ff168152602001608760ff16815260200160f660ff168152602001609660ff168152602001609660ff168152602001609c60ff16815260200160a560ff16815260200160ab60ff16815260200160b460ff16815260200160ba60ff16815260200160c360ff16815260200160c960ff16815260200160d260ff16815260200160f360ff16815260200160fc60ff16815260200160ff80168152506010600c60128110620014af577f4e487b7100000000000000000000000000000000000000000000000000000000600052603260045260246000fd5b0190601b620014c0929190620023b9565b50604051806103600160405280600160ff168152602001600260ff168152602001600360ff168152602001600460ff168152602001600560ff168152602001600660ff168152602001600760ff168152602001600860ff168152602001600d60ff168152602001600360ff168152602001600660ff168152602001600e60ff168152602001600f60ff168152602001601060ff168152602001601060ff168152602001601160ff168152602001601260ff168152602001601360ff168152602001601460ff168152602001601560ff168152602001601660ff168152602001601760ff168152602001601860ff168152602001601960ff168152602001601a60ff168152602001601a60ff168152602001601a60ff168152506022600c6012811062001615577f4e487b7100000000000000000000000000000000000000000000000000000000600052603260045260246000fd5b0190601b62001626929190620023b9565b50604051806020016040528060ff80168152506010600d6012811062001675577f4e487b7100000000000000000000000000000000000000000000000000000000600052603260045260246000fd5b0190600162001686929190620021af565b506040518060200160405280600060ff168152506022600d60128110620016d6577f4e487b7100000000000000000000000000000000000000000000000000000000600052603260045260246000fd5b01906001620016e7929190620021af565b50604051806101a0016040528060ef60ff16815260200160f460ff16815260200160f960ff16815260200160ea60ff16815260200160ea60ff16815260200160ea60ff16815260200160ea60ff16815260200160ea60ff16815260200160ea60ff16815260200160ea60ff168152602001608260ff16815260200160ff8016815260200160f760ff168152506010600e60128110620017af577f4e487b7100000000000000000000000000000000000000000000000000000000600052603260045260246000fd5b0190600d620017c092919062002467565b50604051806101a00160405280600160ff168152602001600260ff168152602001600b60ff168152602001600060ff168152602001600b60ff168152602001600b60ff168152602001600b60ff168152602001600b60ff168152602001600b60ff168152602001600b60ff168152602001600b60ff168152602001600b60ff168152602001600b60ff168152506022600e6012811062001889577f4e487b7100000000000000000000000000000000000000000000000000000000600052603260045260246000fd5b0190600d6200189a92919062002467565b50604051806101e00160405280604b60ff16815260200160b460ff16815260200160a560ff168152602001607860ff168152602001603c60ff168152602001609660ff168152602001606960ff16815260200160c360ff168152602001602d60ff16815260200160e160ff168152602001604b60ff168152602001602d60ff16815260200160c360ff168152602001607860ff16815260200160ff80168152506010600f6012811062001976577f4e487b7100000000000000000000000000000000000000000000000000000000600052603260045260246000fd5b0190600f6200198792919062002515565b50604051806101e00160405280600160ff168152602001600960ff168152602001600060ff168152602001600060ff168152602001600060ff168152602001600060ff168152602001600060ff168152602001600060ff168152602001600060ff168152602001600c60ff168152602001600060ff168152602001600060ff168152602001600e60ff168152602001600c60ff168152602001600e60ff168152506022600f6012811062001a64577f4e487b7100000000000000000000000000000000000000000000000000000000600052603260045260246000fd5b0190600f62001a7592919062002515565b50604051806020016040528060ff80168152506010806012811062001ac3577f4e487b7100000000000000000000000000000000000000000000000000000000600052603260045260246000fd5b0190600162001ad4929190620021af565b506040518060200160405280600060ff16815250602260106012811062001b24577f4e487b7100000000000000000000000000000000000000000000000000000000600052603260045260246000fd5b0190600162001b35929190620021af565b506040518060800160405280600860ff16815260200160a060ff168152602001604960ff16815260200160ff8016815250601060116012811062001ba2577f4e487b7100000000000000000000000000000000000000000000000000000000600052603260045260246000fd5b0190600462001bb3929190620025c3565b506040518060800160405280600260ff168152602001600360ff168152602001600360ff168152602001600360ff16815250602260116012811062001c21577f4e487b7100000000000000000000000000000000000000000000000000000000600052603260045260246000fd5b0190600462001c32929190620025c3565b5050505062002852565b600033905090565b6000600a60009054906101000a900473ffffffffffffffffffffffffffffffffffffffff16905081600a60006101000a81548173ffffffffffffffffffffffffffffffffffffffff021916908373ffffffffffffffffffffffffffffffffffffffff1602179055508173ffffffffffffffffffffffffffffffffffffffff168173ffffffffffffffffffffffffffffffffffffffff167f8be0079c531659141344cd1fd0a4f28419497f9722a3daafe3b4186f6b6457e060405160405180910390a35050565b82805462001d18906200278a565b90600052602060002090601f01602090048101928262001d3c576000855562001d88565b82601f1062001d5757805160ff191683800117855562001d88565b8280016001018555821562001d88579182015b8281111562001d8757825182559160200191906001019062001d6a565b5b50905062001d97919062002671565b5090565b82805482825590600052602060002090601f0160209004810192821562001e365791602002820160005b8382111562001e0557835183826101000a81548160ff021916908360ff160217905550926020019260010160208160000104928301926001030262001dc5565b801562001e345782816101000a81549060ff021916905560010160208160000104928301926001030262001e05565b505b50905062001e45919062002671565b5090565b82805482825590600052602060002090601f0160209004810192821562001ee45791602002820160005b8382111562001eb357835183826101000a81548160ff021916908360ff160217905550926020019260010160208160000104928301926001030262001e73565b801562001ee25782816101000a81549060ff021916905560010160208160000104928301926001030262001eb3565b505b50905062001ef3919062002671565b5090565b82805482825590600052602060002090601f0160209004810192821562001f925791602002820160005b8382111562001f6157835183826101000a81548160ff021916908360ff160217905550926020019260010160208160000104928301926001030262001f21565b801562001f905782816101000a81549060ff021916905560010160208160000104928301926001030262001f61565b505b50905062001fa1919062002671565b5090565b82805482825590600052602060002090601f01602090048101928215620020405791602002820160005b838211156200200f57835183826101000a81548160ff021916908360ff160217905550926020019260010160208160000104928301926001030262001fcf565b80156200203e5782816101000a81549060ff02191690556001016020816000010492830192600103026200200f565b505b5090506200204f919062002671565b5090565b82805482825590600052602060002090601f01602090048101928215620020ee5791602002820160005b83821115620020bd57835183826101000a81548160ff021916908360ff16021790555092602001926001016020816000010492830192600103026200207d565b8015620020ec5782816101000a81549060ff0219169055600101602081600001049283019260010302620020bd565b505b509050620020fd919062002671565b5090565b82805482825590600052602060002090601f016020900481019282156200219c5791602002820160005b838211156200216b57835183826101000a81548160ff021916908360ff16021790555092602001926001016020816000010492830192600103026200212b565b80156200219a5782816101000a81549060ff02191690556001016020816000010492830192600103026200216b565b505b509050620021ab919062002671565b5090565b82805482825590600052602060002090601f016020900481019282156200224a5791602002820160005b838211156200221957835183826101000a81548160ff021916908360ff1602179055509260200192600101602081600001049283019260010302620021d9565b8015620022485782816101000a81549060ff021916905560010160208160000104928301926001030262002219565b505b50905062002259919062002671565b5090565b82805482825590600052602060002090601f01602090048101928215620022f85791602002820160005b83821115620022c757835183826101000a81548160ff021916908360ff160217905550926020019260010160208160000104928301926001030262002287565b8015620022f65782816101000a81549060ff0219169055600101602081600001049283019260010302620022c7565b505b50905062002307919062002671565b5090565b82805482825590600052602060002090601f01602090048101928215620023a65791602002820160005b838211156200237557835183826101000a81548160ff021916908360ff160217905550926020019260010160208160000104928301926001030262002335565b8015620023a45782816101000a81549060ff021916905560010160208160000104928301926001030262002375565b505b509050620023b5919062002671565b5090565b82805482825590600052602060002090601f01602090048101928215620024545791602002820160005b838211156200242357835183826101000a81548160ff021916908360ff1602179055509260200192600101602081600001049283019260010302620023e3565b8015620024525782816101000a81549060ff021916905560010160208160000104928301926001030262002423565b505b50905062002463919062002671565b5090565b82805482825590600052602060002090601f01602090048101928215620025025791602002820160005b83821115620024d157835183826101000a81548160ff021916908360ff160217905550926020019260010160208160000104928301926001030262002491565b8015620025005782816101000a81549060ff0219169055600101602081600001049283019260010302620024d1565b505b50905062002511919062002671565b5090565b82805482825590600052602060002090601f01602090048101928215620025b05791602002820160005b838211156200257f57835183826101000a81548160ff021916908360ff16021790555092602001926001016020816000010492830192600103026200253f565b8015620025ae5782816101000a81549060ff02191690556001016020816000010492830192600103026200257f565b505b509050620025bf919062002671565b5090565b82805482825590600052602060002090601f016020900481019282156200265e5791602002820160005b838211156200262d57835183826101000a81548160ff021916908360ff1602179055509260200192600101602081600001049283019260010302620025ed565b80156200265c5782816101000a81549060ff02191690556001016020816000010492830192600103026200262d565b505b5090506200266d919062002671565b5090565b5b808211156200268c57600081600090555060010162002672565b5090565b600081519050620026a1816200281e565b92915050565b600081519050620026b88162002838565b92915050565b600080600060608486031215620026d457600080fd5b6000620026e48682870162002690565b9350506020620026f78682870162002690565b92505060406200270a86828701620026a7565b9150509250925092565b6000620027218262002780565b91506200272e8362002780565b925082620027415762002740620027c0565b5b828204905092915050565b6000620027598262002760565b9050919050565b600073ffffffffffffffffffffffffffffffffffffffff82169050919050565b6000819050919050565b60006002820490506001821680620027a357607f821691505b60208210811415620027ba57620027b9620027ef565b5b50919050565b7f4e487b7100000000000000000000000000000000000000000000000000000000600052601260045260246000fd5b7f4e487b7100000000000000000000000000000000000000000000000000000000600052602260045260246000fd5b62002829816200274c565b81146200283557600080fd5b50565b620028438162002780565b81146200284f57600080fd5b50565b608051615a456200288360003960008181610e6a01528181610ebb015281816114d4015261248c0152615a456000f3fe6080604052600436106102515760003560e01c806367f68fac11610139578063b88d4fde116100b6578063e1fc334f1161007a578063e1fc334f1461090c578063e985e9c514610937578063f25f4b5614610974578063f2fde38b1461099f578063f47c84c5146109c8578063f4a0a528146109f357610251565b8063b88d4fde1461080a578063c002d23d14610833578063c084f5401461085e578063c87b56dd14610889578063e05c57bf146108c657610251565b806390d49b9d116100fd57806390d49b9d1461071357806394e568471461073c57806395d89b4114610779578063a1b8f374146107a4578063a22cb465146107e157610251565b806367f68fac1461064d57806370a0823114610669578063715018a6146106a65780638da5cb5b146106bd5780638fbb5fa7146106e857610251565b806333df4b2c116101d25780634018b1f8116101965780634018b1f81461052957806342842e0e146105545780634f02c4201461057d5780634f6ccce7146105a85780635c975abb146105e55780636352211e1461061057610251565b806333df4b2c146104465780633431a7531461048357806336838391146104ac5780633b342a85146104e95780633ccfd60b1461051257610251565b806318160ddd1161021957806318160ddd1461034d578063194f480e1461037857806323b872dd146103a357806327de8f27146103cc5780632f745c591461040957610251565b806301ffc9a71461025657806306fdde0314610293578063081812fc146102be578063095ea7b3146102fb57806316c38b3c14610324575b600080fd5b34801561026257600080fd5b5061027d60048036038101906102789190614117565b610a1c565b60405161028a9190614f1c565b60405180910390f35b34801561029f57600080fd5b506102a8610a96565b6040516102b59190615024565b60405180910390f35b3480156102ca57600080fd5b506102e560048036038101906102e091906141aa565b610b28565b6040516102f29190614e5c565b60405180910390f35b34801561030757600080fd5b50610322600480360381019061031d91906140b2565b610bad565b005b34801561033057600080fd5b5061034b600480360381019061034691906140ee565b610cc5565b005b34801561035957600080fd5b50610362610d60565b60405161036f919061539d565b60405180910390f35b34801561038457600080fd5b5061038d610d6d565b60405161039a9190614fd3565b60405180910390f35b3480156103af57600080fd5b506103ca60048036038101906103c59190613fac565b610d93565b005b3480156103d857600080fd5b506103f360048036038101906103ee91906141aa565b610e50565b604051610400919061539d565b60405180910390f35b34801561041557600080fd5b50610430600480360381019061042b91906140b2565b610f19565b60405161043d919061539d565b60405180910390f35b34801561045257600080fd5b5061046d6004803603810190610468919061420f565b610fbe565b60405161047a91906153b8565b60405180910390f35b34801561048f57600080fd5b506104aa60048036038101906104a591906141aa565b611004565b005b3480156104b857600080fd5b506104d360048036038101906104ce919061420f565b61108a565b6040516104e091906153b8565b60405180910390f35b3480156104f557600080fd5b50610510600480360381019061050b9190613f1e565b6110d0565b005b34801561051e57600080fd5b50610527611190565b005b34801561053557600080fd5b5061053e611277565b60405161054b919061539d565b60405180910390f35b34801561056057600080fd5b5061057b60048036038101906105769190613fac565b611281565b005b34801561058957600080fd5b506105926112a1565b60405161059f9190615382565b60405180910390f35b3480156105b457600080fd5b506105cf60048036038101906105ca91906141aa565b6112b5565b6040516105dc919061539d565b60405180910390f35b3480156105f157600080fd5b506105fa61134c565b6040516106079190614f1c565b60405180910390f35b34801561061c57600080fd5b50610637600480360381019061063291906141aa565b611363565b6040516106449190614e5c565b60405180910390f35b610667600480360381019061066291906141d3565b611415565b005b34801561067557600080fd5b50610690600480360381019061068b9190613f1e565b611aa4565b60405161069d919061539d565b60405180910390f35b3480156106b257600080fd5b506106bb611b5c565b005b3480156106c957600080fd5b506106d2611be4565b6040516106df9190614e5c565b60405180910390f35b3480156106f457600080fd5b506106fd611c0e565b60405161070a9190615009565b60405180910390f35b34801561071f57600080fd5b5061073a60048036038101906107359190613f1e565b611c34565b005b34801561074857600080fd5b50610763600480360381019061075e91906141aa565b611cf4565b6040516107709190615366565b60405180910390f35b34801561078557600080fd5b5061078e611e42565b60405161079b9190615024565b60405180910390f35b3480156107b057600080fd5b506107cb60048036038101906107c691906141aa565b611ed4565b6040516107d8919061539d565b60405180910390f35b3480156107ed57600080fd5b5061080860048036038101906108039190614076565b611eec565b005b34801561081657600080fd5b50610831600480360381019061082c9190613ffb565b61206d565b005b34801561083f57600080fd5b506108486120cf565b604051610855919061539d565b60405180910390f35b34801561086a57600080fd5b506108736120d5565b604051610880919061539d565b60405180910390f35b34801561089557600080fd5b506108b060048036038101906108ab91906141aa565b6120db565b6040516108bd9190615024565b60405180910390f35b3480156108d257600080fd5b506108ed60048036038101906108e891906141aa565b6121dc565b6040516109039a99989796959493929190614f37565b60405180910390f35b34801561091857600080fd5b506109216122b2565b60405161092e9190614fee565b60405180910390f35b34801561094357600080fd5b5061095e60048036038101906109599190613f70565b6122d8565b60405161096b9190614f1c565b60405180910390f35b34801561098057600080fd5b5061098961236c565b6040516109969190614e5c565b60405180910390f35b3480156109ab57600080fd5b506109c660048036038101906109c19190613f1e565b612392565b005b3480156109d457600080fd5b506109dd61248a565b6040516109ea919061539d565b60405180910390f35b3480156109ff57600080fd5b50610a1a6004803603810190610a1591906141aa565b6124ae565b005b60007f780e9d63000000000000000000000000000000000000000000000000000000007bffffffffffffffffffffffffffffffffffffffffffffffffffffffff1916827bffffffffffffffffffffffffffffffffffffffffffffffffffffffff19161480610a8f5750610a8e82612534565b5b9050919050565b606060008054610aa590615768565b80601f0160208091040260200160405190810160405280929190818152602001828054610ad190615768565b8015610b1e5780601f10610af357610100808354040283529160200191610b1e565b820191906000526020600020905b815481529060010190602001808311610b0157829003601f168201915b5050505050905090565b6000610b3382612616565b610b72576040517f08c379a0000000000000000000000000000000000000000000000000000000008152600401610b6990615266565b60405180910390fd5b6004600083815260200190815260200160002060009054906101000a900473ffffffffffffffffffffffffffffffffffffffff169050919050565b6000610bb882611363565b90508073ffffffffffffffffffffffffffffffffffffffff168373ffffffffffffffffffffffffffffffffffffffff161415610c29576040517f08c379a0000000000000000000000000000000000000000000000000000000008152600401610c20906152e6565b60405180910390fd5b8073ffffffffffffffffffffffffffffffffffffffff16610c48612682565b73ffffffffffffffffffffffffffffffffffffffff161480610c775750610c7681610c71612682565b6122d8565b5b610cb6576040517f08c379a0000000000000000000000000000000000000000000000000000000008152600401610cad906151e6565b60405180910390fd5b610cc0838361268a565b505050565b610ccd612682565b73ffffffffffffffffffffffffffffffffffffffff16610ceb611be4565b73ffffffffffffffffffffffffffffffffffffffff1614610d41576040517f08c379a0000000000000000000000000000000000000000000000000000000008152600401610d3890615286565b60405180910390fd5b8015610d5457610d4f612743565b610d5d565b610d5c6127e6565b5b50565b6000600880549050905090565b603460009054906101000a900473ffffffffffffffffffffffffffffffffffffffff1681565b603460009054906101000a900473ffffffffffffffffffffffffffffffffffffffff1673ffffffffffffffffffffffffffffffffffffffff16610dd4612682565b73ffffffffffffffffffffffffffffffffffffffff1614610e4057610e00610dfa612682565b82612888565b610e3f576040517f08c379a0000000000000000000000000000000000000000000000000000000008152600401610e3690615306565b60405180910390fd5b5b610e4b838383612966565b505050565b6000600c548211610e645760009050610f14565b600560027f0000000000000000000000000000000000000000000000000000000000000000610e939190615593565b610e9d9190615562565b8211610eb55769043c33c19375648000009050610f14565b600560047f0000000000000000000000000000000000000000000000000000000000000000610ee49190615593565b610eee9190615562565b8211610f0657690878678326eac90000009050610f14565b6910f0cf064dd59200000090505b919050565b6000610f2483611aa4565b8210610f65576040517f08c379a0000000000000000000000000000000000000000000000000000000008152600401610f5c90615066565b60405180910390fd5b600660008473ffffffffffffffffffffffffffffffffffffffff1673ffffffffffffffffffffffffffffffffffffffff168152602001908152602001600020600083815260200190815260200160002054905092915050565b60108260128110610fce57600080fd5b018181548110610fdd57600080fd5b9060005260206000209060209182820401919006915091509054906101000a900460ff1681565b61100c612682565b73ffffffffffffffffffffffffffffffffffffffff1661102a611be4565b73ffffffffffffffffffffffffffffffffffffffff1614611080576040517f08c379a000000000000000000000000000000000000000000000000000000000815260040161107790615286565b60405180910390fd5b80600c8190555050565b6022826012811061109a57600080fd5b0181815481106110a957600080fd5b9060005260206000209060209182820401919006915091509054906101000a900460ff1681565b6110d8612682565b73ffffffffffffffffffffffffffffffffffffffff166110f6611be4565b73ffffffffffffffffffffffffffffffffffffffff161461114c576040517f08c379a000000000000000000000000000000000000000000000000000000000815260040161114390615286565b60405180910390fd5b80603460006101000a81548173ffffffffffffffffffffffffffffffffffffffff021916908373ffffffffffffffffffffffffffffffffffffffff16021790555050565b611198612682565b73ffffffffffffffffffffffffffffffffffffffff166111b6611be4565b73ffffffffffffffffffffffffffffffffffffffff161461120c576040517f08c379a000000000000000000000000000000000000000000000000000000000815260040161120390615286565b60405180910390fd5b600d60029054906101000a900473ffffffffffffffffffffffffffffffffffffffff1673ffffffffffffffffffffffffffffffffffffffff166108fc479081150290604051600060405180830381858888f19350505050158015611274573d6000803e3d6000fd5b50565b6000600c54905090565b61129c8383836040518060200160405280600081525061206d565b505050565b600d60009054906101000a900461ffff1681565b60006112bf610d60565b8210611300576040517f08c379a00000000000000000000000000000000000000000000000000000000081526004016112f790615346565b60405180910390fd5b6008828154811061133a577f4e487b7100000000000000000000000000000000000000000000000000000000600052603260045260246000fd5b90600052602060002001549050919050565b6000600a60149054906101000a900460ff16905090565b6000806002600084815260200190815260200160002060009054906101000a900473ffffffffffffffffffffffffffffffffffffffff169050600073ffffffffffffffffffffffffffffffffffffffff168173ffffffffffffffffffffffffffffffffffffffff16141561140c576040517f08c379a000000000000000000000000000000000000000000000000000000000815260040161140390615226565b60405180910390fd5b80915050919050565b61141d61134c565b1561145d576040517f08c379a0000000000000000000000000000000000000000000000000000000008152600401611454906151c6565b60405180910390fd5b611465612682565b73ffffffffffffffffffffffffffffffffffffffff163273ffffffffffffffffffffffffffffffffffffffff16146114d2576040517f08c379a00000000000000000000000000000000000000000000000000000000081526004016114c990615126565b60405180910390fd5b7f000000000000000000000000000000000000000000000000000000000000000082600d60009054906101000a900461ffff1661ffff1661151391906154d5565b1115611554576040517f08c379a000000000000000000000000000000000000000000000000000000000815260040161154b906150c6565b60405180910390fd5b6000821180156115655750600a8211155b6115a4576040517f08c379a000000000000000000000000000000000000000000000000000000000815260040161159b90615326565b60405180910390fd5b600c54600d60009054906101000a900461ffff1661ffff16101561167a57600c5482600d60009054906101000a900461ffff1661ffff166115e591906154d5565b1115611626576040517f08c379a000000000000000000000000000000000000000000000000000000000815260040161161d906151a6565b60405180910390fd5b34600b54836116359190615593565b14611675576040517f08c379a000000000000000000000000000000000000000000000000000000000815260040161166c90615106565b60405180910390fd5b611688565b6000341461168757600080fd5b5b6000808261170557600067ffffffffffffffff8111156116d1577f4e487b7100000000000000000000000000000000000000000000000000000000600052604160045260246000fd5b6040519080825280602002602001820160405280156116ff5781602001602082028036833780820191505090505b50611775565b8367ffffffffffffffff811115611745577f4e487b7100000000000000000000000000000000000000000000000000000000600052604160045260246000fd5b6040519080825280602002602001820160405280156117735781602001602082028036833780820191505090505b505b9050600080600090505b8581101561195f57600d600081819054906101000a900461ffff16809291906117a79061579a565b91906101000a81548161ffff021916908361ffff160217905550506117ea42600d60009054906101000a900461ffff1661ffff166117e591906154d5565b612bc2565b915061180a600d60009054906101000a900461ffff1661ffff1683612c08565b50600061181683612de1565b90508515806118585750611828612682565b73ffffffffffffffffffffffffffffffffffffffff168173ffffffffffffffffffffffffffffffffffffffff1614155b156118805761187b81600d60009054906101000a900461ffff1661ffff16612f2f565b611921565b6118c0603460009054906101000a900473ffffffffffffffffffffffffffffffffffffffff16600d60009054906101000a900461ffff1661ffff16612f2f565b600d60009054906101000a900461ffff1684838151811061190a577f4e487b7100000000000000000000000000000000000000000000000000000000600052603260045260246000fd5b602002602001019061ffff16908161ffff16815250505b61193e600d60009054906101000a900461ffff1661ffff16610e50565b8561194991906154d5565b9450508080611957906157c5565b91505061177f565b506000831115611a0057603560009054906101000a900473ffffffffffffffffffffffffffffffffffffffff1673ffffffffffffffffffffffffffffffffffffffff16639dc29fac6119af612682565b856040518363ffffffff1660e01b81526004016119cd929190614ef3565b600060405180830381600087803b1580156119e757600080fd5b505af11580156119fb573d6000803e3d6000fd5b505050505b8315611a9d57603460009054906101000a900473ffffffffffffffffffffffffffffffffffffffff1673ffffffffffffffffffffffffffffffffffffffff166381d449c1611a4c612682565b846040518363ffffffff1660e01b8152600401611a6a929190614ec3565b600060405180830381600087803b158015611a8457600080fd5b505af1158015611a98573d6000803e3d6000fd5b505050505b5050505050565b60008073ffffffffffffffffffffffffffffffffffffffff168273ffffffffffffffffffffffffffffffffffffffff161415611b15576040517f08c379a0000000000000000000000000000000000000000000000000000000008152600401611b0c90615206565b60405180910390fd5b600360008373ffffffffffffffffffffffffffffffffffffffff1673ffffffffffffffffffffffffffffffffffffffff168152602001908152602001600020549050919050565b611b64612682565b73ffffffffffffffffffffffffffffffffffffffff16611b82611be4565b73ffffffffffffffffffffffffffffffffffffffff1614611bd8576040517f08c379a0000000000000000000000000000000000000000000000000000000008152600401611bcf90615286565b60405180910390fd5b611be26000612f4d565b565b6000600a60009054906101000a900473ffffffffffffffffffffffffffffffffffffffff16905090565b603560009054906101000a900473ffffffffffffffffffffffffffffffffffffffff1681565b611c3c612682565b73ffffffffffffffffffffffffffffffffffffffff16611c5a611be4565b73ffffffffffffffffffffffffffffffffffffffff1614611cb0576040517f08c379a0000000000000000000000000000000000000000000000000000000008152600401611ca790615286565b60405180910390fd5b80600d60026101000a81548173ffffffffffffffffffffffffffffffffffffffff021916908373ffffffffffffffffffffffffffffffffffffffff16021790555050565b611cfc613d60565b600e6000838152602001908152602001600020604051806101400160405290816000820160009054906101000a900460ff161515151581526020016000820160019054906101000a900460ff1660ff1660ff1681526020016000820160029054906101000a900460ff1660ff1660ff1681526020016000820160039054906101000a900460ff1660ff1660ff1681526020016000820160049054906101000a900460ff1660ff1660ff1681526020016000820160059054906101000a900460ff1660ff1660ff1681526020016000820160069054906101000a900460ff1660ff1660ff1681526020016000820160079054906101000a900460ff1660ff1660ff1681526020016000820160089054906101000a900460ff1660ff1660ff1681526020016000820160099054906101000a900460ff1660ff1660ff16815250509050919050565b606060018054611e5190615768565b80601f0160208091040260200160405190810160405280929190818152602001828054611e7d90615768565b8015611eca5780601f10611e9f57610100808354040283529160200191611eca565b820191906000526020600020905b815481529060010190602001808311611ead57829003601f168201915b5050505050905090565b600f6020528060005260406000206000915090505481565b611ef4612682565b73ffffffffffffffffffffffffffffffffffffffff168273ffffffffffffffffffffffffffffffffffffffff161415611f62576040517f08c379a0000000000000000000000000000000000000000000000000000000008152600401611f5990615166565b60405180910390fd5b8060056000611f6f612682565b73ffffffffffffffffffffffffffffffffffffffff1673ffffffffffffffffffffffffffffffffffffffff16815260200190815260200160002060008473ffffffffffffffffffffffffffffffffffffffff1673ffffffffffffffffffffffffffffffffffffffff16815260200190815260200160002060006101000a81548160ff0219169083151502179055508173ffffffffffffffffffffffffffffffffffffffff1661201c612682565b73ffffffffffffffffffffffffffffffffffffffff167f17307eab39ab6107e8899845ad3d59bd9653f200f220920489ca2b5937696c31836040516120619190614f1c565b60405180910390a35050565b61207e612078612682565b83612888565b6120bd576040517f08c379a00000000000000000000000000000000000000000000000000000000081526004016120b490615306565b60405180910390fd5b6120c984848484613013565b50505050565b600b5481565b600c5481565b60606120e682612616565b612125576040517f08c379a000000000000000000000000000000000000000000000000000000000815260040161211c906152c6565b60405180910390fd5b603660009054906101000a900473ffffffffffffffffffffffffffffffffffffffff1673ffffffffffffffffffffffffffffffffffffffff1663c87b56dd836040518263ffffffff1660e01b8152600401612180919061539d565b60006040518083038186803b15801561219857600080fd5b505afa1580156121ac573d6000803e3d6000fd5b505050506040513d6000823e3d601f19601f820116820180604052508101906121d59190614169565b9050919050565b600e6020528060005260406000206000915090508060000160009054906101000a900460ff16908060000160019054906101000a900460ff16908060000160029054906101000a900460ff16908060000160039054906101000a900460ff16908060000160049054906101000a900460ff16908060000160059054906101000a900460ff16908060000160069054906101000a900460ff16908060000160079054906101000a900460ff16908060000160089054906101000a900460ff16908060000160099054906101000a900460ff1690508a565b603660009054906101000a900473ffffffffffffffffffffffffffffffffffffffff1681565b6000600560008473ffffffffffffffffffffffffffffffffffffffff1673ffffffffffffffffffffffffffffffffffffffff16815260200190815260200160002060008373ffffffffffffffffffffffffffffffffffffffff1673ffffffffffffffffffffffffffffffffffffffff16815260200190815260200160002060009054906101000a900460ff16905092915050565b600d60029054906101000a900473ffffffffffffffffffffffffffffffffffffffff1681565b61239a612682565b73ffffffffffffffffffffffffffffffffffffffff166123b8611be4565b73ffffffffffffffffffffffffffffffffffffffff161461240e576040517f08c379a000000000000000000000000000000000000000000000000000000000815260040161240590615286565b60405180910390fd5b600073ffffffffffffffffffffffffffffffffffffffff168173ffffffffffffffffffffffffffffffffffffffff16141561247e576040517f08c379a0000000000000000000000000000000000000000000000000000000008152600401612475906150a6565b60405180910390fd5b61248781612f4d565b50565b7f000000000000000000000000000000000000000000000000000000000000000081565b6124b6612682565b73ffffffffffffffffffffffffffffffffffffffff166124d4611be4565b73ffffffffffffffffffffffffffffffffffffffff161461252a576040517f08c379a000000000000000000000000000000000000000000000000000000000815260040161252190615286565b60405180910390fd5b80600b8190555050565b60007f80ac58cd000000000000000000000000000000000000000000000000000000007bffffffffffffffffffffffffffffffffffffffffffffffffffffffff1916827bffffffffffffffffffffffffffffffffffffffffffffffffffffffff191614806125ff57507f5b5e139f000000000000000000000000000000000000000000000000000000007bffffffffffffffffffffffffffffffffffffffffffffffffffffffff1916827bffffffffffffffffffffffffffffffffffffffffffffffffffffffff1916145b8061260f575061260e8261306f565b5b9050919050565b60008073ffffffffffffffffffffffffffffffffffffffff166002600084815260200190815260200160002060009054906101000a900473ffffffffffffffffffffffffffffffffffffffff1673ffffffffffffffffffffffffffffffffffffffff1614159050919050565b600033905090565b816004600083815260200190815260200160002060006101000a81548173ffffffffffffffffffffffffffffffffffffffff021916908373ffffffffffffffffffffffffffffffffffffffff160217905550808273ffffffffffffffffffffffffffffffffffffffff166126fd83611363565b73ffffffffffffffffffffffffffffffffffffffff167f8c5be1e5ebec7d5bd14f71427d1e84f3dd0314c0f7b2291e5b200ac8c7c3b92560405160405180910390a45050565b61274b61134c565b1561278b576040517f08c379a0000000000000000000000000000000000000000000000000000000008152600401612782906151c6565b60405180910390fd5b6001600a60146101000a81548160ff0219169083151502179055507f62e78cea01bee320cd4e420270b5ea74000d11b0c9f74754ebdbfc544b05a2586127cf612682565b6040516127dc9190614e5c565b60405180910390a1565b6127ee61134c565b61282d576040517f08c379a000000000000000000000000000000000000000000000000000000000815260040161282490615046565b60405180910390fd5b6000600a60146101000a81548160ff0219169083151502179055507f5db9ee0a495bf2e6ff9c91a7834c1ba4fdd244a5e8aa4e537bd38aeae4b073aa612871612682565b60405161287e9190614e5c565b60405180910390a1565b600061289382612616565b6128d2576040517f08c379a00000000000000000000000000000000000000000000000000000000081526004016128c990615186565b60405180910390fd5b60006128dd83611363565b90508073ffffffffffffffffffffffffffffffffffffffff168473ffffffffffffffffffffffffffffffffffffffff16148061294c57508373ffffffffffffffffffffffffffffffffffffffff1661293484610b28565b73ffffffffffffffffffffffffffffffffffffffff16145b8061295d575061295c81856122d8565b5b91505092915050565b8273ffffffffffffffffffffffffffffffffffffffff1661298682611363565b73ffffffffffffffffffffffffffffffffffffffff16146129dc576040517f08c379a00000000000000000000000000000000000000000000000000000000081526004016129d3906152a6565b60405180910390fd5b600073ffffffffffffffffffffffffffffffffffffffff168273ffffffffffffffffffffffffffffffffffffffff161415612a4c576040517f08c379a0000000000000000000000000000000000000000000000000000000008152600401612a4390615146565b60405180910390fd5b612a578383836130d9565b612a6260008261268a565b6001600360008573ffffffffffffffffffffffffffffffffffffffff1673ffffffffffffffffffffffffffffffffffffffff1681526020019081526020016000206000828254612ab291906155ed565b925050819055506001600360008473ffffffffffffffffffffffffffffffffffffffff1673ffffffffffffffffffffffffffffffffffffffff1681526020019081526020016000206000828254612b0991906154d5565b92505081905550816002600083815260200190815260200160002060006101000a81548173ffffffffffffffffffffffffffffffffffffffff021916908373ffffffffffffffffffffffffffffffffffffffff160217905550808273ffffffffffffffffffffffffffffffffffffffff168473ffffffffffffffffffffffffffffffffffffffff167fddf252ad1be2c89b69c2b068fc378daa952ba7f163c4a11628f55a4df523b3ef60405160405180910390a4505050565b600032600143612bd291906155ed565b404284604051602001612be89493929190614d6b565b6040516020818303038152906040528051906020012060001c9050919050565b612c10613d60565b612c19826131ed565b90506000600f6000612c2a846133fa565b8152602001908152602001600020541415612dc65780600e600085815260200190815260200160002060008201518160000160006101000a81548160ff02191690831515021790555060208201518160000160016101000a81548160ff021916908360ff16021790555060408201518160000160026101000a81548160ff021916908360ff16021790555060608201518160000160036101000a81548160ff021916908360ff16021790555060808201518160000160046101000a81548160ff021916908360ff16021790555060a08201518160000160056101000a81548160ff021916908360ff16021790555060c08201518160000160066101000a81548160ff021916908360ff16021790555060e08201518160000160076101000a81548160ff021916908360ff1602179055506101008201518160000160086101000a81548160ff021916908360ff1602179055506101208201518160000160096101000a81548160ff021916908360ff16021790555090505082600f6000612daf846133fa565b815260200190815260200160002081905550612ddb565b612dd883612dd384612bc2565b612c08565b90505b92915050565b6000600c54600d60009054906101000a900461ffff1661ffff16111580612e1957506000600a60f584901c612e16919061586a565b14155b15612e2d57612e26612682565b9050612f2a565b6000603460009054906101000a900473ffffffffffffffffffffffffffffffffffffffff1673ffffffffffffffffffffffffffffffffffffffff16633c989e6a609085901c6040518263ffffffff1660e01b8152600401612e8e919061539d565b60206040518083038186803b158015612ea657600080fd5b505afa158015612eba573d6000803e3d6000fd5b505050506040513d601f19601f82011682018060405250810190612ede9190613f47565b9050600073ffffffffffffffffffffffffffffffffffffffff168173ffffffffffffffffffffffffffffffffffffffff161415612f2557612f1d612682565b915050612f2a565b809150505b919050565b612f49828260405180602001604052806000815250613463565b5050565b6000600a60009054906101000a900473ffffffffffffffffffffffffffffffffffffffff16905081600a60006101000a81548173ffffffffffffffffffffffffffffffffffffffff021916908373ffffffffffffffffffffffffffffffffffffffff1602179055508173ffffffffffffffffffffffffffffffffffffffff168173ffffffffffffffffffffffffffffffffffffffff167f8be0079c531659141344cd1fd0a4f28419497f9722a3daafe3b4186f6b6457e060405160405180910390a35050565b61301e848484612966565b61302a848484846134be565b613069576040517f08c379a000000000000000000000000000000000000000000000000000000000815260040161306090615086565b60405180910390fd5b50505050565b60007f01ffc9a7000000000000000000000000000000000000000000000000000000007bffffffffffffffffffffffffffffffffffffffffffffffffffffffff1916827bffffffffffffffffffffffffffffffffffffffffffffffffffffffff1916149050919050565b6130e4838383613655565b600073ffffffffffffffffffffffffffffffffffffffff168373ffffffffffffffffffffffffffffffffffffffff161415613127576131228161365a565b613166565b8173ffffffffffffffffffffffffffffffffffffffff168373ffffffffffffffffffffffffffffffffffffffff16146131655761316483826136a3565b5b5b600073ffffffffffffffffffffffffffffffffffffffff168273ffffffffffffffffffffffffffffffffffffffff1614156131a9576131a481613810565b6131e8565b8273ffffffffffffffffffffffffffffffffffffffff168273ffffffffffffffffffffffffffffffffffffffff16146131e7576131e68282613953565b5b5b505050565b6131f5613d60565b6000600a61ffff8416613208919061586a565b14158160000190151590811515815250506000816000015161322b57600961322e565b60005b9050601083901c925061325161ffff841682600061324c919061552b565b6139d2565b826020019060ff16908160ff1681525050601083901c925061328361ffff841682600161327e919061552b565b6139d2565b826040019060ff16908160ff1681525050601083901c92506132b561ffff84168260026132b0919061552b565b6139d2565b826060019060ff16908160ff1681525050601083901c92506132e761ffff84168260036132e2919061552b565b6139d2565b826080019060ff16908160ff1681525050601083901c925061331961ffff8416826004613314919061552b565b6139d2565b8260a0019060ff16908160ff1681525050601083901c925061334b61ffff8416826005613346919061552b565b6139d2565b8260c0019060ff16908160ff1681525050601083901c925061337d61ffff8416826006613378919061552b565b6139d2565b8260e0019060ff16908160ff1681525050601083901c92506133af61ffff84168260076133aa919061552b565b6139d2565b82610100019060ff16908160ff1681525050601083901c92506133e261ffff84168260086133dd919061552b565b6139d2565b82610120019060ff16908160ff168152505050919050565b600081600001518260200151836040015184608001518560c001518660e00151876060015188610100015189610120015160405160200161344399989796959493929190614db9565b6040516020818303038152906040528051906020012060001c9050919050565b61346d8383613b7f565b61347a60008484846134be565b6134b9576040517f08c379a00000000000000000000000000000000000000000000000000000000081526004016134b090615086565b60405180910390fd5b505050565b60006134df8473ffffffffffffffffffffffffffffffffffffffff16613d4d565b15613648578373ffffffffffffffffffffffffffffffffffffffff1663150b7a02613508612682565b8786866040518563ffffffff1660e01b815260040161352a9493929190614e77565b602060405180830381600087803b15801561354457600080fd5b505af192505050801561357557506040513d601f19601f820116820180604052508101906135729190614140565b60015b6135f8573d80600081146135a5576040519150601f19603f3d011682016040523d82523d6000602084013e6135aa565b606091505b506000815114156135f0576040517f08c379a00000000000000000000000000000000000000000000000000000000081526004016135e790615086565b60405180910390fd5b805181602001fd5b63150b7a0260e01b7bffffffffffffffffffffffffffffffffffffffffffffffffffffffff1916817bffffffffffffffffffffffffffffffffffffffffffffffffffffffff19161491505061364d565b600190505b949350505050565b505050565b6008805490506009600083815260200190815260200160002081905550600881908060018154018082558091505060019003906000526020600020016000909190919091505550565b600060016136b084611aa4565b6136ba91906155ed565b905060006007600084815260200190815260200160002054905081811461379f576000600660008673ffffffffffffffffffffffffffffffffffffffff1673ffffffffffffffffffffffffffffffffffffffff168152602001908152602001600020600084815260200190815260200160002054905080600660008773ffffffffffffffffffffffffffffffffffffffff1673ffffffffffffffffffffffffffffffffffffffff168152602001908152602001600020600084815260200190815260200160002081905550816007600083815260200190815260200160002081905550505b6007600084815260200190815260200160002060009055600660008573ffffffffffffffffffffffffffffffffffffffff1673ffffffffffffffffffffffffffffffffffffffff16815260200190815260200160002060008381526020019081526020016000206000905550505050565b6000600160088054905061382491906155ed565b905060006009600084815260200190815260200160002054905060006008838154811061387a577f4e487b7100000000000000000000000000000000000000000000000000000000600052603260045260246000fd5b9060005260206000200154905080600883815481106138c2577f4e487b7100000000000000000000000000000000000000000000000000000000600052603260045260246000fd5b906000526020600020018190555081600960008381526020019081526020016000208190555060096000858152602001908152602001600020600090556008805480613937577f4e487b7100000000000000000000000000000000000000000000000000000000600052603160045260246000fd5b6001900381819060005260206000200160009055905550505050565b600061395e83611aa4565b905081600660008573ffffffffffffffffffffffffffffffffffffffff1673ffffffffffffffffffffffffffffffffffffffff168152602001908152602001600020600083815260200190815260200160002081905550806007600084815260200190815260200160002081905550505050565b60008060108360ff1660128110613a12577f4e487b7100000000000000000000000000000000000000000000000000000000600052603260045260246000fd5b018054905084613a22919061589b565b905060108360ff1660128110613a61577f4e487b7100000000000000000000000000000000000000000000000000000000600052603260045260246000fd5b018160ff1681548110613a9d577f4e487b7100000000000000000000000000000000000000000000000000000000600052603260045260246000fd5b90600052602060002090602091828204019190069054906101000a900460ff1660ff1660088561ffff16901c61ffff161015613adc5780915050613b79565b60228360ff1660128110613b19577f4e487b7100000000000000000000000000000000000000000000000000000000600052603260045260246000fd5b018160ff1681548110613b55577f4e487b7100000000000000000000000000000000000000000000000000000000600052603260045260246000fd5b90600052602060002090602091828204019190069054906101000a900460ff169150505b92915050565b600073ffffffffffffffffffffffffffffffffffffffff168273ffffffffffffffffffffffffffffffffffffffff161415613bef576040517f08c379a0000000000000000000000000000000000000000000000000000000008152600401613be690615246565b60405180910390fd5b613bf881612616565b15613c38576040517f08c379a0000000000000000000000000000000000000000000000000000000008152600401613c2f906150e6565b60405180910390fd5b613c44600083836130d9565b6001600360008473ffffffffffffffffffffffffffffffffffffffff1673ffffffffffffffffffffffffffffffffffffffff1681526020019081526020016000206000828254613c9491906154d5565b92505081905550816002600083815260200190815260200160002060006101000a81548173ffffffffffffffffffffffffffffffffffffffff021916908373ffffffffffffffffffffffffffffffffffffffff160217905550808273ffffffffffffffffffffffffffffffffffffffff16600073ffffffffffffffffffffffffffffffffffffffff167fddf252ad1be2c89b69c2b068fc378daa952ba7f163c4a11628f55a4df523b3ef60405160405180910390a45050565b600080823b905060008111915050919050565b604051806101400160405280600015158152602001600060ff168152602001600060ff168152602001600060ff168152602001600060ff168152602001600060ff168152602001600060ff168152602001600060ff168152602001600060ff168152602001600060ff1681525090565b6000613de3613dde84615404565b6153d3565b905082815260208101848484011115613dfb57600080fd5b613e06848285615726565b509392505050565b6000613e21613e1c84615434565b6153d3565b905082815260208101848484011115613e3957600080fd5b613e44848285615735565b509392505050565b600081359050613e5b816159b3565b92915050565b600081519050613e70816159b3565b92915050565b600081359050613e85816159ca565b92915050565b600081359050613e9a816159e1565b92915050565b600081519050613eaf816159e1565b92915050565b600082601f830112613ec657600080fd5b8135613ed6848260208601613dd0565b91505092915050565b600082601f830112613ef057600080fd5b8151613f00848260208601613e0e565b91505092915050565b600081359050613f18816159f8565b92915050565b600060208284031215613f3057600080fd5b6000613f3e84828501613e4c565b91505092915050565b600060208284031215613f5957600080fd5b6000613f6784828501613e61565b91505092915050565b60008060408385031215613f8357600080fd5b6000613f9185828601613e4c565b9250506020613fa285828601613e4c565b9150509250929050565b600080600060608486031215613fc157600080fd5b6000613fcf86828701613e4c565b9350506020613fe086828701613e4c565b9250506040613ff186828701613f09565b9150509250925092565b6000806000806080858703121561401157600080fd5b600061401f87828801613e4c565b945050602061403087828801613e4c565b935050604061404187828801613f09565b925050606085013567ffffffffffffffff81111561405e57600080fd5b61406a87828801613eb5565b91505092959194509250565b6000806040838503121561408957600080fd5b600061409785828601613e4c565b92505060206140a885828601613e76565b9150509250929050565b600080604083850312156140c557600080fd5b60006140d385828601613e4c565b92505060206140e485828601613f09565b9150509250929050565b60006020828403121561410057600080fd5b600061410e84828501613e76565b91505092915050565b60006020828403121561412957600080fd5b600061413784828501613e8b565b91505092915050565b60006020828403121561415257600080fd5b600061416084828501613ea0565b91505092915050565b60006020828403121561417b57600080fd5b600082015167ffffffffffffffff81111561419557600080fd5b6141a184828501613edf565b91505092915050565b6000602082840312156141bc57600080fd5b60006141ca84828501613f09565b91505092915050565b600080604083850312156141e657600080fd5b60006141f485828601613f09565b925050602061420585828601613e76565b9150509250929050565b6000806040838503121561422257600080fd5b600061423085828601613f09565b925050602061424185828601613f09565b9150509250929050565b60006142578383614cf2565b60208301905092915050565b61426c81615621565b82525050565b61428361427e82615621565b61580e565b82525050565b600061429482615474565b61429e81856154a2565b93506142a983615464565b8060005b838110156142da5781516142c1888261424b565b97506142cc83615495565b9250506001810190506142ad565b5085935050505092915050565b6142f081615633565b82525050565b6142ff81615633565b82525050565b61431661431182615633565b615820565b82525050565b61432d6143288261563f565b615832565b82525050565b600061433e8261547f565b61434881856154b3565b9350614358818560208601615735565b61436181615988565b840191505092915050565b614375816156ba565b82525050565b614384816156de565b82525050565b61439381615702565b82525050565b60006143a48261548a565b6143ae81856154c4565b93506143be818560208601615735565b6143c781615988565b840191505092915050565b60006143df6014836154c4565b91507f5061757361626c653a206e6f74207061757365640000000000000000000000006000830152602082019050919050565b600061441f602b836154c4565b91507f455243373231456e756d657261626c653a206f776e657220696e646578206f7560008301527f74206f6620626f756e64730000000000000000000000000000000000000000006020830152604082019050919050565b60006144856032836154c4565b91507f4552433732313a207472616e7366657220746f206e6f6e20455243373231526560008301527f63656976657220696d706c656d656e74657200000000000000000000000000006020830152604082019050919050565b60006144eb6026836154c4565b91507f4f776e61626c653a206e6577206f776e657220697320746865207a65726f206160008301527f64647265737300000000000000000000000000000000000000000000000000006020830152604082019050919050565b60006145516011836154c4565b91507f416c6c20746f6b656e73206d696e7465640000000000000000000000000000006000830152602082019050919050565b6000614591601c836154c4565b91507f4552433732313a20746f6b656e20616c7265616479206d696e746564000000006000830152602082019050919050565b60006145d16016836154c4565b91507f496e76616c6964207061796d656e7420616d6f756e74000000000000000000006000830152602082019050919050565b60006146116008836154c4565b91507f4f6e6c7920454f410000000000000000000000000000000000000000000000006000830152602082019050919050565b60006146516024836154c4565b91507f4552433732313a207472616e7366657220746f20746865207a65726f2061646460008301527f72657373000000000000000000000000000000000000000000000000000000006020830152604082019050919050565b60006146b76019836154c4565b91507f4552433732313a20617070726f766520746f2063616c6c6572000000000000006000830152602082019050919050565b60006146f7602c836154c4565b91507f4552433732313a206f70657261746f7220717565727920666f72206e6f6e657860008301527f697374656e7420746f6b656e00000000000000000000000000000000000000006020830152604082019050919050565b600061475d601f836154c4565b91507f416c6c20746f6b656e73206f6e2d73616c6520616c726561647920736f6c64006000830152602082019050919050565b600061479d6010836154c4565b91507f5061757361626c653a20706175736564000000000000000000000000000000006000830152602082019050919050565b60006147dd6038836154c4565b91507f4552433732313a20617070726f76652063616c6c6572206973206e6f74206f7760008301527f6e6572206e6f7220617070726f76656420666f7220616c6c00000000000000006020830152604082019050919050565b6000614843602a836154c4565b91507f4552433732313a2062616c616e636520717565727920666f7220746865207a6560008301527f726f2061646472657373000000000000000000000000000000000000000000006020830152604082019050919050565b60006148a96029836154c4565b91507f4552433732313a206f776e657220717565727920666f72206e6f6e657869737460008301527f656e7420746f6b656e00000000000000000000000000000000000000000000006020830152604082019050919050565b600061490f6020836154c4565b91507f4552433732313a206d696e7420746f20746865207a65726f20616464726573736000830152602082019050919050565b600061494f602c836154c4565b91507f4552433732313a20617070726f76656420717565727920666f72206e6f6e657860008301527f697374656e7420746f6b656e00000000000000000000000000000000000000006020830152604082019050919050565b60006149b56020836154c4565b91507f4f776e61626c653a2063616c6c6572206973206e6f7420746865206f776e65726000830152602082019050919050565b60006149f56029836154c4565b91507f4552433732313a207472616e73666572206f6620746f6b656e2074686174206960008301527f73206e6f74206f776e00000000000000000000000000000000000000000000006020830152604082019050919050565b6000614a5b602f836154c4565b91507f4552433732314d657461646174613a2055524920717565727920666f72206e6f60008301527f6e6578697374656e7420746f6b656e00000000000000000000000000000000006020830152604082019050919050565b6000614ac16021836154c4565b91507f4552433732313a20617070726f76616c20746f2063757272656e74206f776e6560008301527f72000000000000000000000000000000000000000000000000000000000000006020830152604082019050919050565b6000614b276031836154c4565b91507f4552433732313a207472616e736665722063616c6c6572206973206e6f74206f60008301527f776e6572206e6f7220617070726f7665640000000000000000000000000000006020830152604082019050919050565b6000614b8d6013836154c4565b91507f496e76616c6964206d696e7420616d6f756e74000000000000000000000000006000830152602082019050919050565b6000614bcd602c836154c4565b91507f455243373231456e756d657261626c653a20676c6f62616c20696e646578206f60008301527f7574206f6620626f756e647300000000000000000000000000000000000000006020830152604082019050919050565b61014082016000820151614c3d60008501826142e7565b506020820151614c506020850182614d36565b506040820151614c636040850182614d36565b506060820151614c766060850182614d36565b506080820151614c896080850182614d36565b5060a0820151614c9c60a0850182614d36565b5060c0820151614caf60c0850182614d36565b5060e0820151614cc260e0850182614d36565b50610100820151614cd7610100850182614d36565b50610120820151614cec610120850182614d36565b50505050565b614cfb81615675565b82525050565b614d0a81615675565b82525050565b614d19816156a3565b82525050565b614d30614d2b826156a3565b61584e565b82525050565b614d3f816156ad565b82525050565b614d4e816156ad565b82525050565b614d65614d60826156ad565b615858565b82525050565b6000614d778287614272565b601482019150614d87828661431c565b602082019150614d978285614d1f565b602082019150614da78284614d1f565b60208201915081905095945050505050565b6000614dc5828c614305565b600182019150614dd5828b614d54565b600182019150614de5828a614d54565b600182019150614df58289614d54565b600182019150614e058288614d54565b600182019150614e158287614d54565b600182019150614e258286614d54565b600182019150614e358285614d54565b600182019150614e458284614d54565b6001820191508190509a9950505050505050505050565b6000602082019050614e716000830184614263565b92915050565b6000608082019050614e8c6000830187614263565b614e996020830186614263565b614ea66040830185614d10565b8181036060830152614eb88184614333565b905095945050505050565b6000604082019050614ed86000830185614263565b8181036020830152614eea8184614289565b90509392505050565b6000604082019050614f086000830185614263565b614f156020830184614d10565b9392505050565b6000602082019050614f3160008301846142f6565b92915050565b600061014082019050614f4d600083018d6142f6565b614f5a602083018c614d45565b614f67604083018b614d45565b614f74606083018a614d45565b614f816080830189614d45565b614f8e60a0830188614d45565b614f9b60c0830187614d45565b614fa860e0830186614d45565b614fb6610100830185614d45565b614fc4610120830184614d45565b9b9a5050505050505050505050565b6000602082019050614fe8600083018461436c565b92915050565b6000602082019050615003600083018461437b565b92915050565b600060208201905061501e600083018461438a565b92915050565b6000602082019050818103600083015261503e8184614399565b905092915050565b6000602082019050818103600083015261505f816143d2565b9050919050565b6000602082019050818103600083015261507f81614412565b9050919050565b6000602082019050818103600083015261509f81614478565b9050919050565b600060208201905081810360008301526150bf816144de565b9050919050565b600060208201905081810360008301526150df81614544565b9050919050565b600060208201905081810360008301526150ff81614584565b9050919050565b6000602082019050818103600083015261511f816145c4565b9050919050565b6000602082019050818103600083015261513f81614604565b9050919050565b6000602082019050818103600083015261515f81614644565b9050919050565b6000602082019050818103600083015261517f816146aa565b9050919050565b6000602082019050818103600083015261519f816146ea565b9050919050565b600060208201905081810360008301526151bf81614750565b9050919050565b600060208201905081810360008301526151df81614790565b9050919050565b600060208201905081810360008301526151ff816147d0565b9050919050565b6000602082019050818103600083015261521f81614836565b9050919050565b6000602082019050818103600083015261523f8161489c565b9050919050565b6000602082019050818103600083015261525f81614902565b9050919050565b6000602082019050818103600083015261527f81614942565b9050919050565b6000602082019050818103600083015261529f816149a8565b9050919050565b600060208201905081810360008301526152bf816149e8565b9050919050565b600060208201905081810360008301526152df81614a4e565b9050919050565b600060208201905081810360008301526152ff81614ab4565b9050919050565b6000602082019050818103600083015261531f81614b1a565b9050919050565b6000602082019050818103600083015261533f81614b80565b9050919050565b6000602082019050818103600083015261535f81614bc0565b9050919050565b60006101408201905061537c6000830184614c26565b92915050565b60006020820190506153976000830184614d01565b92915050565b60006020820190506153b26000830184614d10565b92915050565b60006020820190506153cd6000830184614d45565b92915050565b6000604051905081810181811067ffffffffffffffff821117156153fa576153f9615959565b5b8060405250919050565b600067ffffffffffffffff82111561541f5761541e615959565b5b601f19601f8301169050602081019050919050565b600067ffffffffffffffff82111561544f5761544e615959565b5b601f19601f8301169050602081019050919050565b6000819050602082019050919050565b600081519050919050565b600081519050919050565b600081519050919050565b6000602082019050919050565b600082825260208201905092915050565b600082825260208201905092915050565b600082825260208201905092915050565b60006154e0826156a3565b91506154eb836156a3565b9250827fffffffffffffffffffffffffffffffffffffffffffffffffffffffffffffffff038211156155205761551f6158cc565b5b828201905092915050565b6000615536826156ad565b9150615541836156ad565b92508260ff03821115615557576155566158cc565b5b828201905092915050565b600061556d826156a3565b9150615578836156a3565b925082615588576155876158fb565b5b828204905092915050565b600061559e826156a3565b91506155a9836156a3565b9250817fffffffffffffffffffffffffffffffffffffffffffffffffffffffffffffffff04831182151516156155e2576155e16158cc565b5b828202905092915050565b60006155f8826156a3565b9150615603836156a3565b925082821015615616576156156158cc565b5b828203905092915050565b600061562c82615683565b9050919050565b60008115159050919050565b6000819050919050565b60007fffffffff0000000000000000000000000000000000000000000000000000000082169050919050565b600061ffff82169050919050565b600073ffffffffffffffffffffffffffffffffffffffff82169050919050565b6000819050919050565b600060ff82169050919050565b60006156c5826156cc565b9050919050565b60006156d782615683565b9050919050565b60006156e9826156f0565b9050919050565b60006156fb82615683565b9050919050565b600061570d82615714565b9050919050565b600061571f82615683565b9050919050565b82818337600083830152505050565b60005b83811015615753578082015181840152602081019050615738565b83811115615762576000848401525b50505050565b6000600282049050600182168061578057607f821691505b602082108114156157945761579361592a565b5b50919050565b60006157a582615675565b915061ffff8214156157ba576157b96158cc565b5b600182019050919050565b60006157d0826156a3565b91507fffffffffffffffffffffffffffffffffffffffffffffffffffffffffffffffff821415615803576158026158cc565b5b600182019050919050565b60006158198261583c565b9050919050565b600061582b82615858565b9050919050565b6000819050919050565b6000615847826159a6565b9050919050565b6000819050919050565b600061586382615999565b9050919050565b6000615875826156a3565b9150615880836156a3565b9250826158905761588f6158fb565b5b828206905092915050565b60006158a6826156ad565b91506158b1836156ad565b9250826158c1576158c06158fb565b5b828206905092915050565b7f4e487b7100000000000000000000000000000000000000000000000000000000600052601160045260246000fd5b7f4e487b7100000000000000000000000000000000000000000000000000000000600052601260045260246000fd5b7f4e487b7100000000000000000000000000000000000000000000000000000000600052602260045260246000fd5b7f4e487b7100000000000000000000000000000000000000000000000000000000600052604160045260246000fd5b6000601f19601f8301169050919050565b60008160f81b9050919050565b60008160601b9050919050565b6159bc81615621565b81146159c757600080fd5b50565b6159d381615633565b81146159de57600080fd5b50565b6159ea81615649565b81146159f557600080fd5b50565b615a01816156a3565b8114615a0c57600080fd5b5056fea26469706673582212200575a338f7973b3f646907047ba2935addc9bb9a44c9b9e16c3561d08d7cc17364736f6c63430008000033",
  "immutableReferences": {
    "4111": [
      {
        "length": 32,
        "start": 3690
      },
      {
        "length": 32,
        "start": 3771
      },
      {
        "length": 32,
        "start": 5332
      },
      {
        "length": 32,
        "start": 9356
      }
    ]
  },
  "source": "// SPDX-License-Identifier: MIT LICENSE\n\npragma solidity ^0.8.0;\nimport \"./Ownable.sol\";\nimport \"./Pausable.sol\";\nimport \"./ERC721Enumerable.sol\";\nimport \"./IWoolf.sol\";\nimport \"./IBarn.sol\";\nimport \"./ITraits.sol\";\nimport \"./WOOL.sol\";\n\ncontract Woolf is IWoolf, ERC721Enumerable, Ownable, Pausable {\n    // mint price\n    uint256 public MINT_PRICE = 0.0001 ether;\n    // max number of tokens that can be minted - 50000 in production\n    uint256 public immutable MAX_TOKENS;\n    // number of tokens that can be claimed for free - 20% of MAX_TOKENS\n    uint256 public PAID_TOKENS;\n    // number of tokens have been minted so far\n    uint16 public minted;\n\n    address public feeWallet = 0x3a536A80B441a54766C5A3b1Fc2758c08F482120;\n\n    // mapping from tokenId to a struct containing the token's traits\n    mapping(uint256 => SheepWolf) public tokenTraits;\n    // mapping from hashed(tokenTrait) to the tokenId it's associated with\n    // used to ensure there are no duplicates\n    mapping(uint256 => uint256) public existingCombinations;\n\n    // list of probabilities for each trait type\n    // 0 - 9 are associated with Sheep, 10 - 18 are associated with Wolves\n    uint8[][18] public rarities;\n    // list of aliases for Walker's Alias algorithm\n    // 0 - 9 are associated with Sheep, 10 - 18 are associated with Wolves\n    uint8[][18] public aliases;\n\n    // reference to the Barn for choosing random Wolf thieves\n    IBarn public barn;\n    // reference to $WOOL for burning on mint\n    WOOL public wool;\n    // reference to Traits\n    ITraits public traits;\n\n    /**\n     * instantiates contract and rarity tables\n     */\n    constructor(\n        address _wool,\n        address _traits,\n        uint256 _maxTokens\n    ) ERC721(\"Wolf Game\", \"WGAME\") {\n        wool = WOOL(_wool);\n        traits = ITraits(_traits);\n        MAX_TOKENS = _maxTokens;\n        PAID_TOKENS = _maxTokens / 5;\n\n        // I know this looks weird but it saves users gas by making lookup O(1)\n        // A.J. Walker's Alias Algorithm\n        // sheep\n        // fur\n        rarities[0] = [15, 50, 200, 250, 255];\n        aliases[0] = [4, 4, 4, 4, 4];\n        // head\n        rarities[1] = [\n            190,\n            215,\n            240,\n            100,\n            110,\n            135,\n            160,\n            185,\n            80,\n            210,\n            235,\n            240,\n            80,\n            80,\n            100,\n            100,\n            100,\n            245,\n            250,\n            255\n        ];\n        aliases[1] = [\n            1,\n            2,\n            4,\n            0,\n            5,\n            6,\n            7,\n            9,\n            0,\n            10,\n            11,\n            17,\n            0,\n            0,\n            0,\n            0,\n            4,\n            18,\n            19,\n            19\n        ];\n        // ears\n        rarities[2] = [255, 30, 60, 60, 150, 156];\n        aliases[2] = [0, 0, 0, 0, 0, 0];\n        // eyes\n        rarities[3] = [\n            221,\n            100,\n            181,\n            140,\n            224,\n            147,\n            84,\n            228,\n            140,\n            224,\n            250,\n            160,\n            241,\n            207,\n            173,\n            84,\n            254,\n            220,\n            196,\n            140,\n            168,\n            252,\n            140,\n            183,\n            236,\n            252,\n            224,\n            255\n        ];\n        aliases[3] = [\n            1,\n            2,\n            5,\n            0,\n            1,\n            7,\n            1,\n            10,\n            5,\n            10,\n            11,\n            12,\n            13,\n            14,\n            16,\n            11,\n            17,\n            23,\n            13,\n            14,\n            17,\n            23,\n            23,\n            24,\n            27,\n            27,\n            27,\n            27\n        ];\n        // nose\n        rarities[4] = [175, 100, 40, 250, 115, 100, 185, 175, 180, 255];\n        aliases[4] = [3, 0, 4, 6, 6, 7, 8, 8, 9, 9];\n        // mouth\n        rarities[5] = [\n            80,\n            225,\n            227,\n            228,\n            112,\n            240,\n            64,\n            160,\n            167,\n            217,\n            171,\n            64,\n            240,\n            126,\n            80,\n            255\n        ];\n        aliases[5] = [1, 2, 3, 8, 2, 8, 8, 9, 9, 10, 13, 10, 13, 15, 13, 15];\n        // neck\n        rarities[6] = [255];\n        aliases[6] = [0];\n        // feet\n        rarities[7] = [\n            243,\n            189,\n            133,\n            133,\n            57,\n            95,\n            152,\n            135,\n            133,\n            57,\n            222,\n            168,\n            57,\n            57,\n            38,\n            114,\n            114,\n            114,\n            255\n        ];\n        aliases[7] = [\n            1,\n            7,\n            0,\n            0,\n            0,\n            0,\n            0,\n            10,\n            0,\n            0,\n            11,\n            18,\n            0,\n            0,\n            0,\n            1,\n            7,\n            11,\n            18\n        ];\n        // alphaIndex\n        rarities[8] = [255];\n        aliases[8] = [0];\n\n        // wolves\n        // fur\n        rarities[9] = [210, 90, 9, 9, 9, 150, 9, 255, 9];\n        aliases[9] = [5, 0, 0, 5, 5, 7, 5, 7, 5];\n        // head\n        rarities[10] = [255];\n        aliases[10] = [0];\n        // ears\n        rarities[11] = [255];\n        aliases[11] = [0];\n        // eyes\n        rarities[12] = [\n            135,\n            177,\n            219,\n            141,\n            183,\n            225,\n            147,\n            189,\n            231,\n            135,\n            135,\n            135,\n            135,\n            246,\n            150,\n            150,\n            156,\n            165,\n            171,\n            180,\n            186,\n            195,\n            201,\n            210,\n            243,\n            252,\n            255\n        ];\n        aliases[12] = [\n            1,\n            2,\n            3,\n            4,\n            5,\n            6,\n            7,\n            8,\n            13,\n            3,\n            6,\n            14,\n            15,\n            16,\n            16,\n            17,\n            18,\n            19,\n            20,\n            21,\n            22,\n            23,\n            24,\n            25,\n            26,\n            26,\n            26\n        ];\n        // nose\n        rarities[13] = [255];\n        aliases[13] = [0];\n        // mouth\n        rarities[14] = [\n            239,\n            244,\n            249,\n            234,\n            234,\n            234,\n            234,\n            234,\n            234,\n            234,\n            130,\n            255,\n            247\n        ];\n        aliases[14] = [1, 2, 11, 0, 11, 11, 11, 11, 11, 11, 11, 11, 11];\n        // neck\n        rarities[15] = [\n            75,\n            180,\n            165,\n            120,\n            60,\n            150,\n            105,\n            195,\n            45,\n            225,\n            75,\n            45,\n            195,\n            120,\n            255\n        ];\n        aliases[15] = [1, 9, 0, 0, 0, 0, 0, 0, 0, 12, 0, 0, 14, 12, 14];\n        // feet\n        rarities[16] = [255];\n        aliases[16] = [0];\n        // alphaIndex\n        rarities[17] = [8, 160, 73, 255];\n        aliases[17] = [2, 3, 3, 3];\n    }\n\n    /** EXTERNAL */\n\n    /**\n     * mint a token - 90% Sheep, 10% Wolves\n     * The first 20% are free to claim, the remaining cost $WOOL\n     */\n    function mint(uint256 amount, bool stake) external payable whenNotPaused {\n        require(tx.origin == _msgSender(), \"Only EOA\");\n        require(minted + amount <= MAX_TOKENS, \"All tokens minted\");\n        require(amount > 0 && amount <= 10, \"Invalid mint amount\");\n        if (minted < PAID_TOKENS) {\n            require(\n                minted + amount <= PAID_TOKENS,\n                \"All tokens on-sale already sold\"\n            );\n            require(amount * MINT_PRICE == msg.value, \"Invalid payment amount\");\n        } else {\n            require(msg.value == 0);\n        }\n\n        uint256 totalWoolCost = 0;\n        uint16[] memory tokenIds = stake\n            ? new uint16[](amount)\n            : new uint16[](0);\n        uint256 seed;\n        for (uint256 i = 0; i < amount; i++) {\n            minted++;\n            seed = random(minted + block.timestamp);\n            generate(minted, seed);\n            address recipient = selectRecipient(seed);\n            if (!stake || recipient != _msgSender()) {\n                _safeMint(recipient, minted);\n            } else {\n                _safeMint(address(barn), minted);\n                tokenIds[i] = minted;\n            }\n            totalWoolCost += mintCost(minted);\n        }\n\n        if (totalWoolCost > 0) wool.burn(_msgSender(), totalWoolCost);\n        if (stake) barn.addManyToBarnAndPack(_msgSender(), tokenIds);\n    }\n\n    /**\n     * the first 20% are paid in ETH\n     * the next 20% are 20000 $WOOL\n     * the next 40% are 40000 $WOOL\n     * the final 20% are 80000 $WOOL\n     * @param tokenId the ID to check the cost of to mint\n     * @return the cost of the given token ID\n     */\n    function mintCost(uint256 tokenId) public view returns (uint256) {\n        if (tokenId <= PAID_TOKENS) return 0;\n        if (tokenId <= (MAX_TOKENS * 2) / 5) return 20000 ether;\n        if (tokenId <= (MAX_TOKENS * 4) / 5) return 40000 ether;\n        return 80000 ether;\n    }\n\n    function transferFrom(\n        address from,\n        address to,\n        uint256 tokenId\n    ) public virtual override {\n        // Hardcode the Barn's approval so that users don't have to waste gas approving\n        if (_msgSender() != address(barn))\n            require(\n                _isApprovedOrOwner(_msgSender(), tokenId),\n                \"ERC721: transfer caller is not owner nor approved\"\n            );\n        _transfer(from, to, tokenId);\n    }\n\n    /** INTERNAL */\n\n    /**\n     * generates traits for a specific token, checking to make sure it's unique\n     * @param tokenId the id of the token to generate traits for\n     * @param seed a pseudorandom 256 bit number to derive traits from\n     * @return t - a struct of traits for the given token ID\n     */\n    function generate(uint256 tokenId, uint256 seed)\n        internal\n        returns (SheepWolf memory t)\n    {\n        t = selectTraits(seed);\n        if (existingCombinations[structToHash(t)] == 0) {\n            tokenTraits[tokenId] = t;\n            existingCombinations[structToHash(t)] = tokenId;\n            return t;\n        }\n        return generate(tokenId, random(seed));\n    }\n\n    /**\n     * uses A.J. Walker's Alias algorithm for O(1) rarity table lookup\n     * ensuring O(1) instead of O(n) reduces mint cost by more than 50%\n     * probability & alias tables are generated off-chain beforehand\n     * @param seed portion of the 256 bit seed to remove trait correlation\n     * @param traitType the trait type to select a trait for\n     * @return the ID of the randomly selected trait\n     */\n    function selectTrait(uint16 seed, uint8 traitType)\n        internal\n        view\n        returns (uint8)\n    {\n        uint8 trait = uint8(seed) % uint8(rarities[traitType].length);\n        if (seed >> 8 < rarities[traitType][trait]) return trait;\n        return aliases[traitType][trait];\n    }\n\n    /**\n     * the first 20% (ETH purchases) go to the minter\n     * the remaining 80% have a 10% chance to be given to a random staked wolf\n     * @param seed a random value to select a recipient from\n     * @return the address of the recipient (either the minter or the Wolf thief's owner)\n     */\n    function selectRecipient(uint256 seed) internal view returns (address) {\n        if (minted <= PAID_TOKENS || ((seed >> 245) % 10) != 0)\n            return _msgSender(); // top 10 bits haven't been used\n        address thief = barn.randomWolfOwner(seed >> 144); // 144 bits reserved for trait selection\n        if (thief == address(0x0)) return _msgSender();\n        return thief;\n    }\n\n    /**\n     * selects the species and all of its traits based on the seed value\n     * @param seed a pseudorandom 256 bit number to derive traits from\n     * @return t -  a struct of randomly selected traits\n     */\n    function selectTraits(uint256 seed)\n        internal\n        view\n        returns (SheepWolf memory t)\n    {\n        t.isSheep = (seed & 0xFFFF) % 10 != 0;\n        uint8 shift = t.isSheep ? 0 : 9;\n        seed >>= 16;\n        t.fur = selectTrait(uint16(seed & 0xFFFF), 0 + shift);\n        seed >>= 16;\n        t.head = selectTrait(uint16(seed & 0xFFFF), 1 + shift);\n        seed >>= 16;\n        t.ears = selectTrait(uint16(seed & 0xFFFF), 2 + shift);\n        seed >>= 16;\n        t.eyes = selectTrait(uint16(seed & 0xFFFF), 3 + shift);\n        seed >>= 16;\n        t.nose = selectTrait(uint16(seed & 0xFFFF), 4 + shift);\n        seed >>= 16;\n        t.mouth = selectTrait(uint16(seed & 0xFFFF), 5 + shift);\n        seed >>= 16;\n        t.neck = selectTrait(uint16(seed & 0xFFFF), 6 + shift);\n        seed >>= 16;\n        t.feet = selectTrait(uint16(seed & 0xFFFF), 7 + shift);\n        seed >>= 16;\n        t.alphaIndex = selectTrait(uint16(seed & 0xFFFF), 8 + shift);\n    }\n\n    /**\n     * converts a struct to a 256 bit hash to check for uniqueness\n     * @param s the struct to pack into a hash\n     * @return the 256 bit hash of the struct\n     */\n    function structToHash(SheepWolf memory s) internal pure returns (uint256) {\n        return\n            uint256(\n                keccak256(\n                    abi.encodePacked(\n                        s.isSheep,\n                        s.fur,\n                        s.head,\n                        s.eyes,\n                        s.mouth,\n                        s.neck,\n                        s.ears,\n                        s.feet,\n                        s.alphaIndex\n                    )\n                )\n            );\n    }\n\n    /**\n     * generates a pseudorandom number\n     * @param seed a value ensure different outcomes for different sources in the same block\n     * @return a pseudorandom value\n     */\n    function random(uint256 seed) internal view returns (uint256) {\n        return\n            uint256(\n                keccak256(\n                    abi.encodePacked(\n                        tx.origin,\n                        blockhash(block.number - 1),\n                        block.timestamp,\n                        seed\n                    )\n                )\n            );\n    }\n\n    /** READ */\n\n    function getTokenTraits(uint256 tokenId)\n        external\n        view\n        override\n        returns (SheepWolf memory)\n    {\n        return tokenTraits[tokenId];\n    }\n\n    function getPaidTokens() external view override returns (uint256) {\n        return PAID_TOKENS;\n    }\n\n    /** ADMIN */\n\n    /**\n     * called after deployment so that the contract can get random wolf thieves\n     * @param _barn the address of the Barn\n     */\n    function setBarn(address _barn) external onlyOwner {\n        barn = IBarn(_barn);\n    }\n\n    /**\n     * allows owner to withdraw funds from minting\n     */\n    function withdraw() external onlyOwner {\n        payable(feeWallet).transfer(address(this).balance);\n    }\n\n    function setFeeWallet(address _feeWallet) external onlyOwner {\n      feeWallet = _feeWallet;\n    }\n\n    /**\n     * updates the number of tokens for sale\n     */\n    function setPaidTokens(uint256 _paidTokens) external onlyOwner {\n        PAID_TOKENS = _paidTokens;\n    }\n\n    /**\n     * enables owner to pause / unpause minting\n     */\n    function setPaused(bool _paused) external onlyOwner {\n        if (_paused) _pause();\n        else _unpause();\n    }\n\n    /** RENDER */\n\n    function setMintPrice(uint256 _price) external onlyOwner {\n        MINT_PRICE = _price;\n    }\n\n    function tokenURI(uint256 tokenId)\n        public\n        view\n        override\n        returns (string memory)\n    {\n        require(\n            _exists(tokenId),\n            \"ERC721Metadata: URI query for nonexistent token\"\n        );\n        return traits.tokenURI(tokenId);\n    }\n}\n",
  "sourcePath": "/home/silas/ftmwolf/contracts/Woolf.sol",
  "compiler": {
    "name": "solc",
    "version": "0.8.0+commit.c7dfd78e.Emscripten.clang"
  },
  "schemaVersion": "3.3.4",
  "updatedAt": "2022-01-06T04:51:35.966Z",
  "networkType": "ethereum",
  "devdoc": {
    "kind": "dev",
    "methods": {
      "approve(address,uint256)": {
        "details": "See {IERC721-approve}."
      },
      "balanceOf(address)": {
        "details": "See {IERC721-balanceOf}."
      },
      "getApproved(uint256)": {
        "details": "See {IERC721-getApproved}."
      },
      "isApprovedForAll(address,address)": {
        "details": "See {IERC721-isApprovedForAll}."
      },
      "mintCost(uint256)": {
        "params": {
          "tokenId": "the ID to check the cost of to mint"
        },
        "returns": {
          "_0": "the cost of the given token ID"
        }
      },
      "name()": {
        "details": "See {IERC721Metadata-name}."
      },
      "owner()": {
        "details": "Returns the address of the current owner."
      },
      "ownerOf(uint256)": {
        "details": "See {IERC721-ownerOf}."
      },
      "paused()": {
        "details": "Returns true if the contract is paused, and false otherwise."
      },
      "renounceOwnership()": {
        "details": "Leaves the contract without owner. It will not be possible to call `onlyOwner` functions anymore. Can only be called by the current owner. NOTE: Renouncing ownership will leave the contract without an owner, thereby removing any functionality that is only available to the owner."
      },
      "safeTransferFrom(address,address,uint256)": {
        "details": "See {IERC721-safeTransferFrom}."
      },
      "safeTransferFrom(address,address,uint256,bytes)": {
        "details": "See {IERC721-safeTransferFrom}."
      },
      "setApprovalForAll(address,bool)": {
        "details": "See {IERC721-setApprovalForAll}."
      },
      "setBarn(address)": {
        "params": {
          "_barn": "the address of the Barn"
        }
      },
      "supportsInterface(bytes4)": {
        "details": "See {IERC165-supportsInterface}."
      },
      "symbol()": {
        "details": "See {IERC721Metadata-symbol}."
      },
      "tokenByIndex(uint256)": {
        "details": "See {IERC721Enumerable-tokenByIndex}."
      },
      "tokenOfOwnerByIndex(address,uint256)": {
        "details": "See {IERC721Enumerable-tokenOfOwnerByIndex}."
      },
      "tokenURI(uint256)": {
        "details": "See {IERC721Metadata-tokenURI}."
      },
      "totalSupply()": {
        "details": "See {IERC721Enumerable-totalSupply}."
      },
      "transferFrom(address,address,uint256)": {
        "details": "See {IERC721-transferFrom}."
      },
      "transferOwnership(address)": {
        "details": "Transfers ownership of the contract to a new account (`newOwner`). Can only be called by the current owner."
      }
    },
    "version": 1
  },
  "userdoc": {
    "kind": "user",
    "methods": {
      "constructor": {
        "notice": "instantiates contract and rarity tables"
      },
      "getTokenTraits(uint256)": {
        "notice": "READ "
      },
      "mint(uint256,bool)": {
        "notice": "mint a token - 90% Sheep, 10% Wolves The first 20% are free to claim, the remaining cost $WOOL"
      },
      "mintCost(uint256)": {
        "notice": "the first 20% are paid in ETH the next 20% are 20000 $WOOL the next 40% are 40000 $WOOL the final 20% are 80000 $WOOL"
      },
      "setBarn(address)": {
        "notice": "called after deployment so that the contract can get random wolf thieves"
      },
      "setMintPrice(uint256)": {
        "notice": "RENDER "
      },
      "setPaidTokens(uint256)": {
        "notice": "updates the number of tokens for sale"
      },
      "setPaused(bool)": {
        "notice": "enables owner to pause / unpause minting"
      },
      "withdraw()": {
        "notice": "allows owner to withdraw funds from minting"
      }
    },
    "version": 1
  }
}